:020000040800F2
:10000000700500205D4300085D4200085F42000863
:1000100061420008634200086542000800000000D9
:10002000000000000000000000000000674200081F
:1000300069420008000000006B4200086D420008A1
:10004000794300087D430008814300088543000888
:10005000894300088D430008914300089543000838
:10006000994300089D430008A1430008A5430008E8
:10007000A9430008AD430008B1430008B543000898
:10008000B9430008BD430008C14300080000000058
:10009000000000000000000000000000C543000850
:1000A000C9430008CD430008D1430008D5430008E8
:1000B00089420008D9430008DD430008E1430008F5
:1000C000E5430008E9430008ED430008F143000858
:1000D000F5430008F9430008FD4300080000000054
:1000E00075420008014400080544000800000000B3
:1000F00000000000000000000000000009440008AB
:10010000000000000D4400081144000815440008D8
:1001100000000000000000000000000000000000DF
:10012000194400081D440008214400082544000823
:10013000294400080000000000000000000000004A
:100140000000000000000000000000002D44000836
:100150003144000835440008394400083D44000893
:100160004144000845440008000000000000000071
:10017000000000000000000000000000000000007F
:1001800000000000494400080000000000000000DA
:100190004D440008DFF8E00C704710B50400DFF8AC
:1001A000DC0C0088401CDFF8D41C088001F00CFA3D
:1001B00001F014FB01F0ECFA002C02D100F064FE17
:1001C00002E0200000F0FFFD10BDDFF8B00C008859
:1001D0007047DFF8AC1C08607047DFF8A81C0860A7
:1001E000704780B501F0C0FB002801D1012000E07C
:1001F000002002BD10B5040001F06EFB10BD10B56B
:10020000040001F086FB10BD10B50400DFF8700C8F
:100210000068002806D0200080B2DFF8641C09685E
:10022000884700E0FEE710BD38B50400DFF8100D88
:10023000B0F90850DFF8080D90F83D10002000F0EC
:1002400083FEDFF8FC0CB0F90800002824D001215F
:10025000002000F0BDFA0A20DFF8E41C81F83C0021
:1002600001F0BCFA01F04FFA42F2107001F051FABD
:100270000020DFF8D01C087001F01FFADFF8C00C76
:10028000B0F908000028F9D1DFF8B80C0078002890
:10029000FAD1DFF8AC0C05810820DFF8A41C81F846
:1002A0003C0031BD0100DFF8980C008E7047010062
:1002B000DFF88C0C008F70470100DFF8840C408E53
:1002C00070470100DFF8780C90F83C00704701009F
:1002D000DFF86C0C90F83B007047DFF83C0D70477E
:1002E0000100DFF85C0CC06870470100DFF8500CBB
:1002F000808E70470100DFF8480CC08E7047DFF831
:100300001C0D007870470100DFF8340C406870471E
:100310000100DFF82C0C90F83D0070470100DFF879
:10032000200C90F83F00704702000020C9B200295D
:1003300006D0022910D009D3042919D012D31DE008
:10034000DFF8FC3B93F82130180017E0DFF8F03BB2
:1003500093F82230180011E0DFF8E43B93F82030E6
:1003600018000BE0DFF8D83B93F82330180005E0C5
:10037000DFF8CC3B93F824301800FFE7C0B2704799
:100380000100DFF8BC0B90F82C0070470100DFF88B
:10039000B00BC08D704710B5040000200400002190
:1003A0002000C0B200F00DF810BD10B50400002010
:1003B0000400DFF88C0BC1682000C0B200F001F827
:1003C00010BD70B504000D0000200400DFF8700BB4
:1003D00090F83C00092804D12000C0B2FFF724FFA8
:1003E00009E0DFF85C0B90F83C00082803D02000FF
:1003F000C0B200F0BFF8DFF8480B4068A8421CDA32
:10040000DFF83C0B4068281ADFF8341BC861DFF8BE
:10041000300BC0697FF00041884202D20120060003
:1004200027E0002006005FF0FF30DFF8141BC969E9
:10043000401ADFF80C1BC8611BE0DFF8040B4068B2
:10044000401BDFF8FC1AC861DFF8F40AC0697FF0CE
:100450000041884202D2002006000AE00120060086
:100460005FF0FF30DFF8D81AC969401ADFF8D01AF8
:10047000C861DFF8CC0AC069002815D00220DFF877
:10048000C01A81F83A003100C9B22000C0B200F0B1
:100490009FF9DFF8AC0AC1692000C0B200F0F4FB9C
:1004A0002000C0B200F0BCFD70BD70B504000D00AE
:1004B000160000200400DFF8880A90F83C000928A4
:1004C00004D12000C0B2FFF7AFFE09E0DFF8700AE8
:1004D00090F83C00082803D02000C0B200F04AF891
:1004E000EDB2002D15D0DFF8580A4068B04207DAA7
:1004F000DFF84C0A4068301ADFF8441AC8611DE082
:10050000DFF83C0A4068301A401EDFF8341AC86130
:1005100014E0DFF82C0A4068B04208DADFF8200A5D
:100520004068801B401EDFF8181AC86106E0DFF83B
:10053000100A4068801BDFF8081AC861DFF8000A5B
:10054000C069002815D00220DFF8F41981F83A00BC
:100550002900C9B22000C0B200F03AF9DFF8E00982
:10056000C1692000C0B200F08FFB2000C0B200F0D3
:1005700057FD70BD10B504000820DFF8C41981F8DC
:100580003C00DFF8C00901F072F9002803D14AF2FB
:100590000E00FFF739FE012001F010F800220421BF
:1005A000002000F0DCF901F097F9DFF8940990F8E9
:1005B0003E00DFF88C1991F83D10884209D001F017
:1005C00037FADFF87C0990F83E00DFF8741981F8FB
:1005D0003D000020DFF8681981F83A000020DFF8BC
:1005E0006019C8610020DFF85819088710BD10B5E0
:1005F000040000200400DFF8480990F83F000028BC
:1006000035D10820DFF8381981F83C00DFF83409CB
:1006100001F02DF9002803D14AF20E00FFF7F4FD96
:1006200003212000C0B200F0F4FADFF8140990F8BA
:100630003E00DFF80C1991F83D10884209D001F016
:10064000F7F9DFF8FC0890F83E00DFF8F41881F8BD
:100650003D000020DFF8E81881F83A000020DFF8BC
:10066000E018C8610020DFF8D818088714E0DFF828
:10067000D00890F83F00012804D12000C0B2FFF755
:1006800079FF09E0DFF8B80890F83F00022803D1AD
:100690002000C0B200F036F810BD70B504000D00A7
:1006A000160000200400DFF8980890F83C000928A4
:1006B00004D12000C0B2FFF7B7FD09E0DFF88008E1
:1006C00090F83C00082803D02000C0B2FFF752FF8A
:1006D000002E16D0DFF86808C6610220DFF8601827
:1006E00081F83A002900C9B22000C0B200F070F8C9
:1006F00031002000C0B200F0C7FA2000C0B200F004
:100700008FFC70BD10B504002000C0B2FFF732FFAF
:1007100001F0D0F80920DFF8281881F83C0010BD5E
:1007200038B504000D00DFF8180890F83C000928DF
:1007300004D12000C0B2FFF777FD09E0DFF8000820
:1007400090F83C00082803D02000C0B2FFF712FF49
:100750002900C9B22000C0B200F03AF80120DFF849
:10076000E01781F83A002000C0B200F059FC31BD1A
:100770000200002089B2002910D0DFF8C43793F8B6
:100780003C301B0705D4DFF8B83793F83A30012B1B
:1007900004D1DFF8AC37198601231800C0B27047C6
:1007A0000200002089B2002910D0DFF8943793F8B6
:1007B0003C301B0705D4DFF8883793F83A30012B1B
:1007C00004D1DFF87C37598601231800C0B2704786
:1007D00038B504000D00DFF8680790F83C000828E1
:1007E00005D0DFF85C0790F83C00092808D1DFF855
:1007F000500780F83B502800C0B201F063F80FE0CA
:10080000DFF83C0790F83A00C00709D5DFF8300759
:1008100090F83A0050F00800DFF8241781F83A0009
:1008200031BD0021DFF8182751607047DFF810173D
:100830004968DFF80C27D160704770B504000D00DF
:100840000026ADB2082D2CDBADB242F2117085420C
:1008500010DBDFF8EC0690F82C00002821D0ADB2B8
:100860002000C0B2FFF754FD2900014142F211708F
:10087000814216DADFF8C806C08EADB2854210D3C9
:10088000DFF8BC0690F83C00000705D4DFF8B0069E
:1008900090F83A00012804D1DFF8A40685860120EB
:1008A00006003000C0B270BD0200002089B20829E5
:1008B0001BDB89B242F21173994216DADFF8F03C81
:1008C0009B8E89B28B4210D3DFF8E43C93F83C3026
:1008D0001B0705D4DFF8D83C93F83A30012B04D13C
:1008E000DFF8CC3CD98601231800C0B27047010064
:1008F000C9B2022904DADFF824070170012000E000
:100900000020704738B504000D00DFF8340690F879
:100910003C00082809D0DFF8280690F83C00092898
:1009200003D02000C0B2FFF725FE00F0C3FF002077
:10093000DFF80C1608810020DFF80416486000205C
:10094000DFF8FC15C8602900C9B22000C0B200F071
:10095000FBFA32BDDFF8582C82F83F10704770B5B3
:1009600004000D0016000120DFF8D41581F82500E1
:10097000F6B2652E01DB64200600EDB2002D06D034
:10098000022D0ED008D3042D1AD00FD323E0DFF8A8
:10099000B00580F8216023E0DFF8A40580F822602C
:1009A0001EE0DFF89C0580F8206019E0DFF8900574
:1009B00080F82360DFF8880590F83C0008280FD104
:1009C000DFF87C0580F824603100C9B2DFF87005DB
:1009D000806A00F0BCFE0020DFF8641581F8250075
:1009E00070BDDFF8CC2B82F82C107047DFF8C02BDD
:1009F000D185704701000020DFF8B42B92F83C202D
:100A000012070BD4DFF8A82B92F83A2052F0040218
:100A1000DFF89C3B83F83A2001221000C0B27047F7
:100A20000100DFF88C0B806A704738B504000D00B8
:100A3000DFF87C0B8562DFF8780B90F82410280033
:100A400000F085FE31BD10B504002000C0B2FFF7F4
:100A500038FC0007F9D52000C0B2FFF732FC0007D0
:100A600004D5DFF8500B00780028EED110BD38B562
:100A700004000D00DFF8380B90F82C00002800F07F
:100A80008F80DFF82C0B90F83D00092803DB4AF239
:100A90000C00FFF7B9FBDFF8180B90F83D000028B9
:100AA00042D0DFF80C0BC08DADB2DFF8041B91F91A
:100AB0003E102A000A41904280F29680DFF8F00A48
:100AC00090F83A0080070FD5DFF8E40AC069DFF834
:100AD000E01A4969401A0121DFF8D42A92F93E2030
:100AE00091408842C0F08080DFF8C40AB0F9080065
:100AF000C0B2802878D100F08FFF0020DFF8B01A54
:100B000081F83D00DFF8A80A0068DFF8A41A91F820
:100B10003E10C840DFF8981A0860DFF8940A90F891
:100B20003E00ADB2C5405FE0DFF8840AC08DADB2D3
:100B3000A84205D3DFF8780A90F83E00002814D1C7
:100B4000DFF86C0A90F83A0080074DD50120DFF8F5
:100B5000601A91F93E108840DFF8541AC969DFF82D
:100B6000502A5269891A88423ED300F061FFDFF8AB
:100B7000400A90F83E00DFF8381A81F83D00DFF8AF
:100B8000300A0068DFF8281A91F83E108840DFF834
:100B9000201A0860DFF8180A90F83E00854023E02C
:100BA000DFF80C0A90F83D00DFF8041A91F83E10C7
:100BB000884219D000F03CFFDFF8F40990F83E00BD
:100BC000DFF8EC1981F83D00DFF8E4090068DFF890
:100BD000E01991F83E108840DFF8D4190860DFF87A
:100BE000D00990F83E008540ADB2082D01DA08200A
:100BF0000500ADB242F21170854202DB42F2107084
:100C00000500DFF8AC090587280080B200F081FDFF
:100C100031BD70B504000D0000260020C84981F8E0
:100C20002500EDB2002D06D0022D12D00AD3042DDE
:100C30001DD015D31CE0C24890F82100C04981F8AE
:100C4000240016E0BE4890F82200BD4981F8240037
:100C50000FE0BB4890F82000B94981F8240008E073
:100C6000B74890F82300B64981F8240001E000E07D
:100C700009E0B34890F8240006003100C9B2B0483A
:100C8000806A00F064FD70BDF0B4DFF82449E48EA2
:100C9000DFF81C59AD8EA4B22D1B2B00DFF81059C4
:100CA000AD8EA4B214FA85F56B431A00DFF8005933
:100CB0002D8EB3FBF5F35B08DFF8F4586D8EB2FBB5
:100CC000F5F25208D518A9421ED2DFF8E4586D8E0D
:100CD000DFF8DC68368E01FB05F715EB060CB7FB79
:100CE000FCF73A00022A06D3571E3B00002B04D122
:100CF00001273B0001E000273B00DFF8B4783B61AF
:100D0000DFF8AC78BA6107E0DFF8A4582B618D1AE0
:100D10006D1EDFF89C68B561F0BC704780B559481E
:100D20000068002802D057480068804701BD10B510
:100D30000020DFF87C1808600020DFF87418486095
:100D40000020DFF86C1808810020DFF864180861C3
:100D50000020DFF85C1848610020DFF85418886133
:100D60000020DFF84C18C8610020DFF8441881F833
:100D700025000020DFF8381808870020DFF8301839
:100D800081F83A000120DFF8281881F83B00DFF8ED
:100D90002008C08E0400DFF8180890F82C00002806
:100DA00006D0DFF80C08C08D42F21171884205DAD6
:100DB000DFF8FC07808EA4B2A04203D24AF20900F9
:100DC000FFF722FA10BD10B5040009205C4981F834
:100DD0003C0021880020FFF7CBFC002803D14AF219
:100DE0000300FFF711FA61880020FFF7D9FC002803
:100DF00003D14AF20400FFF707FAA1880020FFF7A9
:100E00001CFD002803D14AF20100FFF7FDF9E1883B
:100E10000020FFF749FD002803D14AF20200FFF746
:100E2000F3F961690020FFF700FE227A002100201B
:100E3000FFF795FD627A01210020FFF790FDA27A6D
:100E400002210020FFF78BFDE27A03210020FFF74B
:100E500086FD207B3A4981F82C00E0893849C88515
:100E6000617C0020FFF776FDFFF761FF217C002009
:100E7000FFF748FD10BD00000400002040060020E0
:100E8000380600203406002080B509202C4981F85E
:100E90003C004FF4F0710020FFF76AFC002803D1FA
:100EA0004AF20300FFF7B0F94FF4F0710020FFF7AA
:100EB00077FC002803D14AF20400FFF7A5F94FF4AC
:100EC000C8610020FFF7B9FC002803D14AF20100F5
:100ED000FFF79AF94FF4C8710020FFF7E5FC0028EE
:100EE00003D14AF20200FFF78FF9DFF8CC16002099
:100EF000FFF79BFD142200210020FFF730FD0F2299
:100F000001210020FFF72BFD0A2202210020FFF71C
:100F100026FD192203210020FFF721FD01200849A9
:100F200081F82C00C8200649C88500210020FFF761
:100F300011FDFFF7FCFE05210020FFF7E3FC01BDDA
:100F4000700500204306002038B504000D00DFF8CE
:100F5000600680F83D50DFF8580680F83E50EDB24C
:100F6000002D0CD0022D14D00CD3042D1FD017D37C
:100F7000062D2AD022D3082D35D02DD33AE000F00B
:100F80004BFD39E0002301220021012000F0F3FC99
:100F900032E0012300220121002000F0ECFC2BE0D4
:100FA000002301220121012000F0E5FC24E00123BF
:100FB00001220121012000F0DEFC1DE001230022BE
:100FC0000021002000F0D7FC16E0012300220121BF
:100FD000012000F0D0FC0FE00023012200210020BE
:100FE00000F0C9FC08E0002300220121012000F0EC
:100FF000C2FC01E000200DE0012000F0DFFA00F06B
:1010000051FC012000F0DAFAEDB2002D01D000F021
:101010000FFD012032BD000000010100420600204A
:1010200010B50400002004002000C0B2FFF7E7F86C
:101030000020DFF8801508700020DFF874150860C4
:101040000020DFF86C154861DFF8640500690028AE
:1010500010D1DFF85C0590F83A0001280AD0022090
:10106000DFF84C1581F83C0001212000C0B2FFF7E9
:10107000D0FD09E00020DFF8381581F83C000021A0
:101080002000C0B2FFF7C5FD00F058FB00F0A6FB42
:1010900000F039FBDFF81805C18E2000C0B2FFF761
:1010A000E6FC00F00AFB10BD2DE9F84F0400DFF864
:1010B000000590F83E00DFF8F81491F83D10451A4D
:1010C00000200400DFF8E80490F83C000A2832D140
:1010D000DFF8E0040078002814D00020DFF8D414F2
:1010E0000870DFF8CC04B0F9080000281ED1DFF842
:1010F000C40400F0BCFB002803D14AF20E00FFF745
:1011000083F852E20120DFF8AC1408700120DFF808
:10111000A01491F83D10D1F1080188400600DFF8D5
:1011200090040089801BDFF88814088142F2107057
:1011300000F0EFFA39E2DFF87C040078002804D1EF
:101140000120DFF8701408701AE20020DFF8641440
:101150000870DFF85C0440690121A9400818DFF835
:1011600050144861DFF8480490F83B00002828D06C
:10117000DFF83C0440680121A9400818DFF830146A
:1011800048600120DFF8281491F83D10D1F10801E2
:1011900088400600DFF8180400893018DFF81014C2
:1011A0000881DFF80C04B0F90800B0F5806F2FDB80
:1011B000DFF8FC030089B0F58060DFF8F4130881E4
:1011C00026E0DFF8EC0340680121A940401ADFF86F
:1011D000E01348600120DFF8D81391F83D10D1F1F9
:1011E000080188400600DFF8C8030089801BDFF88B
:1011F000C0130881DFF8B803B0F90800002807D54C
:10120000DFF8AC03008910F58060DFF8A4130881D3
:10121000DFF89C0390F83C00002806D0022800F07C
:10122000DF80032800F08F80AAE1DFF8840347699C
:10123000DFF87C03D0F81080DFF87403B0F8389042
:10124000DFF86C03008E5FEA004A3AFA05FADFF82D
:10125000600390F83A000C2108420AD1DFF85003ED
:1012600090F83A00022813D1DFF8440380698742DE
:101270000ED30220DFF8381381F83C000020DFF89D
:101280003013086001212000C0B2FFF7C2FC59E012
:101290001FFA89F9DFF81803808E2841814506DAA4
:1012A000C34890F83A0002280BD1474509D30320E0
:1012B000BF4981F83C0002212000C0B2FFF7A9FC21
:1012C00040E05FF0000B1FFA89F9B9F1000F01D17E
:1012D00001208146B64800681FFA89F9BAFBF9F186
:1012E0000818B3490860B2480068B0F5803F0CD3D5
:1012F000AF48006800F17F4010F57F00AC490860FE
:1013000019F1010901208346EDE75FFA8BFBBBF180
:10131000000F0DD0A648808E28411FFA89F9484554
:1013200003DAA348808E28418146A148A0F838906E
:101330009F4890F82500002804D000212000C0B26A
:10134000FFF767FC1CE19A48878E2F419848D0F838
:101350001480974890F82500002804D0022120002E
:10136000C0B2FFF756FC924890F83A000C210842B0
:1013700012D18F4890F83A00022803D18C48806936
:10138000804509D28A4890F83A00012811D188484E
:10139000008FBFB287420CD20220854981F83C0001
:1013A00000208349086001212000C0B2FFF731FC12
:1013B00015E07F4890F83A00012810D17C48008F52
:1013C000BFB2B8420BD20020794981F83C0000201E
:1013D0007749086000212000C0B2FFF71AFCCFE077
:1013E000734847697248B0F838807148408E5FEAA8
:1013F000004939FA05F96E4890F83A000C21084284
:1014000006D06B48C08E28411FFA88F8404508DA9C
:10141000674890F83A0002284ED16548C069874273
:101420004AD3634890F83A0000072CD5604890F8FA
:101430003A0010F0F7005E4981F83A005C4890F8F5
:101440003B00002804D10120594981F83B0003E00A
:101450000020574981F83B00554890F83B0000F0C8
:1014600031FA534890F83A0040070CD40020504914
:1014700081F83C0000204E49086000212000C0B2E5
:10148000FFF7C7FB7CE04A4890F83F00002804D1F2
:101490002000C0B2FFF7ABF871E0454890F83F007C
:1014A000022804D12000C0B2FFF72CF967E0200029
:1014B000C0B2FFF75FF862E03D4890F83A000128BB
:1014C00010D13B48808E28411FFA88F8404509DB3F
:1014D0000320374981F83C0002212000C0B2FFF709
:1014E00098FB4CE03248C08E28411FFA88F84045EE
:1014F00045DA5FF0000A1FFA88F8B8F1000F01D151
:10150000012080462A4800681FFA88F8B9FBF8F1E4
:1015100008182749086026480068B0F5803F11D3B5
:101520002348006800F17F4010F57F0020490860E3
:101530001FFA88F8B8F1020F01DBB8F101080120A9
:101540008246E8E75FFA8AFABAF1000F0DD01FFA77
:1015500088F81748C08E2841804503DA1448C08EA9
:10156000284180461248A0F83880114890F825009C
:10157000002804D001212000C0B2FFF74AFBFFE79A
:101580000B4890F83C00000706D40948018F200062
:10159000C0B2FFF76CFA08E0064800F068F90028CE
:1015A00003D14AF20E00FEF72FFEBDE8F18F0000D6
:1015B0007005002043060020A086010010B504003D
:1015C000200000F08CFA10BD00B587B0002000901C
:1015D000DFF86C04006850F00100DFF86414086064
:1015E000DFF85C04006810F0010000900098002013
:1015F0000090DFF84C04006850F00200DFF840145F
:101600000860DFF83C04006810F0020000900098C9
:1016100000200090DFF82804006850F00400DFF894
:1016200020140860DFF81804006810F0040000902F
:10163000009800F051F900220121282000F0E6FA7C
:10164000282000F0F6FA10200190012002900020DE
:1016500003900120049001A9DFF8E80300F018FBD3
:10166000402001900120029000200390012004906E
:1016700001A9DFF8D00300F00BFB4FF4807001905C
:1016800001200290002003900120049001A9DFF8BE
:10169000B80300F0FDFA4FF40070019001200290B1
:1016A000002003900120049001A9DFF89C0300F0C2
:1016B000EFFA00F0FFF807B000BD80B57FF004003E
:1016C000DFF8881309680861DFF880030068006AA2
:1016D00080060AD4DFF874030068006A50F0200026
:1016E000DFF868130968086208E0DFF86003006843
:1016F000006A30F02000D549096808620421D34807
:1017000000F0C6FC01BDD1480068406AD0490860BD
:10171000704710B5040001F026FBCD490968A4B25A
:10172000802202FB04F2B0FBF2F04018C8490860C6
:10173000C7480068C5490968886310BD80B50421A1
:10174000C44800F05BFD192000F0C9F901BDF8B5EF
:1017500004000D0001F007FBB0FBF4F1491EBD4E83
:101760003300BD4E1E60EDB2652D01DB64263500F1
:10177000EDB2D5F1640606FB01F66427B6FBF7F679
:1017800032001E68F162D96092B21E68B263F1BD88
:1017900010B58AB0AF480400AF4820600020A060B8
:1017A000002060600020E060002020616020029046
:1017B0000020069000200390200000F003FD04228A
:1017C00002A9200000F04FFE0020009000200190B0
:1017D0006946200001F03AFB0AB010BD10B58AB08E
:1017E0009A4804005FF0804020600020A0603F2005
:1017F00060602068B0F1804F07D020689749884228
:1018000003D04FF6FF70E06002E05FF0FF30E06071
:1018100000202061200000F0FDFB0020049000204B
:1018200006900020039020688D49884209D05020FE
:101830000290042202A9200000F0DFFD3020029077
:1018400001E000200290042202A9200000F0D5FD52
:1018500000200090002001906946200001F0F6FA77
:101860000AB010BD80B5794800F0F0FB01BD10B59D
:10187000040072B62078012802D162B6012010E07F
:101880000821704800F089FB002802D062B60020D1
:1018900007E004216D4800F03CFC62B6FFF7E2FF70
:1018A000012010BD80B501224FF40071664800F0A0
:1018B00080FB01BD80B500224FF40071624800F04A
:1018C00078FB01BD10B504002200D2B24FF4807144
:1018D0005D4800F06EFB10BD00B585B04FF4806030
:1018E00000900120019000200290012003906946A1
:1018F000554800F0CDF972B600224FF4806152488D
:1019000000F057FB4FF480605649086062B605B09E
:1019100000BD00B585B04FF480614B4800F03DFB41
:1019200000281FD101224FF48061474800F041FB9D
:101930000A2000F0D4F84FF4806000904A480190EB
:10194000012002900120039069463F4800F0A0F971
:101950004FF4806043490860282000F07EF9282079
:1019600000F067F905B000BD80B54FF480613648DE
:1019700000F013FB02BDF0B585B004000D001600A9
:101980001F00E4B2002C05D0012210212D4800F0E8
:1019900010FB04E0002210212A4800F00AFBEDB2FF
:1019A000002D05D001224021264800F002FB04E072
:1019B00000224021234800F0FCFAFFF753FF0820E3
:1019C00000900120019000200290012003906946C0
:1019D0001C4800F05DF9F6B2002E05D00122082166
:1019E000184800F0E6FA04E000220821154800F04B
:1019F000E0FAFFB2002F06D001224FF480711248A6
:101A000000F0D7FA05E000224FF480710E4800F094
:101A1000D0FA012005B0F0BD80B5002210210948A0
:101A200000F0C7FA00224021064800F0C2FA01BDCA
:101A300080B501221021034800F0BBFA01BD00006F
:101A4000303802400004024000000240B00500208F
:101A500030060020EC05002000040040000C00408F
:101A600000080040143C01400000211080B52348CC
:101A7000006850F40070214908602048006850F464
:101A800080601E4908601D48006850F480701B4942
:101A90000860032000F0B4F80F2000F005F800F013
:101AA00002F8002002BD704710B504001448006819
:101AB0004FF47A71B0FBF1F000F0C9F80022210078
:101AC0005FF0FF3000F0A2F8002010BD0D48006864
:101AD000401C0C49086070470A480068704731B5DF
:101AE000FFF7FAFF0400009D15F1010F00D06D1CF7
:101AF000FFF7F2FF001BA842FAD331BD003C0240C1
:101B0000680100202C06002010F00702564B1B68CD
:101B100019004FF6FF031940544B53EA02231943AF
:101B2000514B1960704750480068C0F3022070475D
:101B3000012110F01F0291404D4A40B2430942F882
:101B400023107047012110F01F029140494A40B212
:101B5000430942F823107047012110F01F02914001
:101B6000454A40B2430942F82310704710B440B2CE
:101B7000002808D50A01414B40B210F00F04E318C9
:101B800003F8042C03E00A013D4B40B2C25410BCE0
:101B9000704770B4030013F00704D4F10706052E54
:101BA00001D3042001E0D4F10700261D072E01D245
:101BB000002500E0E51E012616FA00F0401E084050
:101BC000A8400121A940491E1140084370BC70473C
:101BD00010B50400601EB0F1807F01D301200EE03B
:101BE000601E284908600F215FF0FF30FFF7BEFF3D
:101BF000002025490860072024490860002010BD06
:101C000010B504002000FFF77FFF10BDF8B50400F9
:101C10000D0016000027FFF786FF0700320029009D
:101C20003800FFF7B6FF0100200040B2FFF79EFF2B
:101C3000F1BD10B50400200040B2FFF779FF10BDE0
:101C400010B50400200040B2FFF77CFF10BD10B5B6
:101C500004002000FFF7BCFF10BD10B504002000F9
:101C600040B2FFF779FF10BD0CED00E00000FA056F
:101C700000E100E080E100E080E200E018ED00E03B
:101C800000E400E014E000E018E000E010E000E014
:101C9000F8B400230024002500263200102A80F02A
:101CA000D8800126964033000E681E4034009C42C6
:101CB00040F0CD804E68022E02D04E68122E16D112
:101CC000D60810EB8606366A35000F2612F0070795
:101CD000FFB2BF00BE40B5430E6912F00707FFB266
:101CE000BF00BE403543D60810EB86063562066855
:101CF000350003261700FFB27F00BE40B5430E79C2
:101D000016F003061700FFB27F00BE4035430560A2
:101D10004E68012E08D04E68022E05D04E68112E56
:101D200002D04E68122E19D186683500032617009E
:101D3000FFB27F00BE40B543CE681700FFB27F0000
:101D4000BE40354385604668350001269640B54360
:101D50004E68C6F30016964035434560C6683500A8
:101D600003261700FFB27F00BE40B5438E68170000
:101D7000FFB27F00BE403543C5604E68F60066D5B1
:101D800000260096974E366856F48046954F3E6082
:101D9000944E366816F480460096009E924E970840
:101DA00056F8276035000F2612F00307FFB2BF0078
:101DB000BE40B5438D4EB04201D1002614E08C4E9A
:101DC000B04201D101260FE08A4EB04201D1022675
:101DD0000AE0894EB04201D1032605E0874EB042A9
:101DE00001D1042600E00726F6B212F00307FFB285
:101DF000BF00BE4035437C4E970846F82750804EC2
:101E000036683500A5434E68F60300D525437C4E61
:101E100035607C4E36683500A5434E68B60300D564
:101E20002543784E3560784E36683500A5434E68B8
:101E3000F60200D52543744E3560744E3668350081
:101E4000A5434E68B60200D52543704E3560521C3E
:101E500024E7F1BC7047F0B50022002300240026DF
:101E60003500102D80F098800126AE40320012EA35
:101E700001063300934240F08D8006680327AC468C
:101E80005FFA8CFC5FEA4C0C17FA0CF7BE43066055
:101E9000EE0810EB8606EF0810EB87073F6A5FF04D
:101EA0000F0C15F0070E5FFA8EFE5FEA8E0E1CFA1D
:101EB0000EFC37EA0C07376286680327AC465FFAE8
:101EC0008CFC5FEA4C0C17FA0CF7BE438660466840
:101ED0000127AF40BE434660C6680327AC465FFAA1
:101EE0008CFC5FEA4C0C17FA0CF7BE43C6603E4E02
:101EF000AF0856F8276034000F2615F00307FFB22D
:101F0000BF00BE403440394EB04201D1002614E03B
:101F1000374EB04201D101260FE0364EB04201D11A
:101F200002260AE0344EB04201D1032605E0334ECA
:101F3000B04201D1042600E00726F6B215F00307EF
:101F4000FFB2BF00BE40B44224D10F2615F00307F4
:101F5000FFB2BF00BE403400234EAF0856F82760E2
:101F6000A643214F5FEA950C47F82C60244E366853
:101F70009E43234F3E60234E36689E43214F3E6072
:101F8000214E36689E43204F3E60204E36689E4369
:101F90001E4F3E606D1C64E7F0BD0200136989B2FC
:101FA0000B4202D00123180001E000231800C0B248
:101FB0007047D2B2002A02D089B2816102E089B2B0
:101FC0000B048361704710B5040011480068A4B287
:101FD000204206D0A4B20E480460200080B201F076
:101FE0001CF810BD4438024008380140000002408F
:101FF0000004024000080240000C024000100240B1
:10200000003C0140043C0140083C01400C3C0140C4
:10201000143C014010B50400002C01D1012014E053
:1020200094F83900002805D1002084F838002000F9
:1020300000F09BFF022084F83900211D206800F089
:1020400096FA012084F83900002010BD10B5040074
:10205000022084F839002068006A41F21111084218
:102060000BD12068006A40F24441084205D1206843
:1020700000684008400021680860200000F0A2FFCE
:10208000002084F83900002084F83800002010BDBA
:1020900038B504000D002800002806D004280BD015
:1020A000082810D00C2815D01BE02068C06850F01C
:1020B00002002168C86014E02068C06850F0040085
:1020C0002168C8600DE02068C06850F008002168F1
:1020D000C86006E02068C06850F010002168C86041
:1020E000FFE701222900206800F0C3FA2068DFF82A
:1020F0009011884205D12068406C50F4004021685E
:1021000048642068006850F00100216808600020E1
:1021100032BD38B504000D002800002806D0042880
:102120000BD0082810D00C2815D01BE02068C06800
:1021300030F002002168C86014E02068C06830F008
:1021400004002168C8600DE02068C06830F0080015
:102150002168C86006E02068C06830F0100021687F
:10216000C860FFE700222900206800F082FA20689A
:10217000DFF80C11884211D12068006A41F2111178
:1021800008420BD12068006A40F24441084205D160
:102190002068406C30F40040216848642068006A80
:1021A00041F2111108420BD12068006A40F244410B
:1021B000084205D120680068400840002168086096
:1021C000002032BD10B50400002C01D1012014E024
:1021D00094F83900002805D1002084F83800200048
:1021E00000F09EFE022084F83900211D206800F0D6
:1021F000BEF9012084F83900002010BD38B5040074
:102200000D002800002806D004280BD0082810D084
:102210000C2815D01BE02068C06850F0020021682F
:10222000C86014E02068C06850F004002168C860ED
:102230000DE02068C06850F008002168C86006E022
:102240002068C06850F010002168C860FFE70122D4
:102250002900206800F00DFA2068DFF82410884279
:1022600005D12068406C50F4004021684864206823
:10227000006850F0010021680860002032BD0000B5
:102280000000014010B504002068006980071AD5DD
:102290002068C068800716D57FF0020021680861B9
:1022A000012020762068806910F0030F03D0200001
:1022B00000F05AF905E0200000F0A2FE200000F036
:1022C00054F9002020762068006940071AD520685C
:1022D000C068400716D57FF004002168086102201D
:1022E00020762068806910F4407F03D0200000F041
:1022F0003BF905E0200000F083FE200000F035F9F6
:10230000002020762068006900071AD52068C06880
:10231000000716D57FF008002168086104202076A8
:102320002068C06910F0030F03D0200000F01CF9F2
:1023300005E0200000F064FE200000F016F9002007
:10234000207620680069C0061AD52068C068C006DB
:1023500016D57FF0100021680861082020762068DB
:10236000C06910F4407F03D0200000F0FDF805E0C4
:10237000200000F045FE200000F0F7F80020207655
:1023800020680069C0070AD52068C068C00706D564
:102390007FF0010021680861200000F0E4F8206867
:1023A000006900060AD52068C068000606D57FF0DF
:1023B000800021680861200000F076FD2068006937
:1023C00040060AD52068C068400606D57FF0400068
:1023D00021680861200000F0C9F8206800698006C3
:1023E0000AD52068C068800606D57FF020002168E5
:1023F0000861200000F057FD10BD70B504000D000D
:10240000160094F83800012801D102202AE00120AA
:1024100084F83800022084F839003000002806D003
:10242000042809D008280CD00C280FD013E029006C
:10243000206800F02DF90EE02900206800F0E4F893
:1024400009E02900206800F053F904E02900206821
:1024500000F082F9FFE7012084F83900002084F8B9
:102460003800002070BD70B504000D00160094F80F
:102470003800012801D1022074E0012084F83800DE
:10248000022084F839003000002806D004281BD030
:10249000082831D00C2846D05DE02900206800F0E3
:1024A000F7F82068806950F008002168886120688A
:1024B000806930F00400216888612068806929699A
:1024C00008432168886146E02900206800F09CF8F4
:1024D0002068806950F40060216888612068806904
:1024E00030F480602168886120688069296950EA39
:1024F0000120216888612EE02900206800F0F8F8AA
:102500002068C06950F008002168C8612068C0696F
:1025100030F004002168C8612068C0692969084357
:102520002168C86117E02900206800F015F92068CB
:10253000C06950F400602168C8612068C06930F447
:1025400080602168C8612068C069296950EA01205B
:102550002168C861FFE7012084F83900002084F871
:102560003800002070BD70477047704770470022E8
:1025700003681A00DFF8343298420CD0B0F1804F73
:1025800009D0DFF82C32984205D08A4B984202D00D
:10259000894B984201D1012300E00023DBB2002BDC
:1025A00003D032F070024B681A43804B984214D02B
:1025B000B0F1804F11D07E4B98420ED07D4B9842A7
:1025C0000BD07D4B984208D07C4B984205D07C4B79
:1025D000984202D07B4B984201D1012300E00023B6
:1025E000DBB2002B03D032F44072CB681A43026096
:1025F0008B68C3620B6883626C4B984201D10B6994
:10260000036301234361704730B400220023002498
:10261000056A35F010050562056A2B0045682C0037
:1026200085692A0032F4E04232F440720D6852EAC1
:10263000052233F020038D6853EA05135B4DA84251
:1026400010D133F08003CD6853EA051333F0400313
:1026500034F4806434F400644D6954EA85048D696F
:1026600054EA8504446082614D688563036230BC2E
:10267000704730B4002301248C402300046A9C433B
:102680000462046A12FA01F52C43046230BC7047FC
:1026900030B4002200230024056A6D086D00056235
:1026A000056A2B0045682C0085692A0032F070020B
:1026B000920892000D682A4333F002038D682B4381
:1026C0003A4DA8420DD133F00803CD682B4333F0C7
:1026D000040334F4807434F400744D692C438D6920
:1026E0002C43446082614D684563036230BC70478F
:1026F00030B4002200230024056A35F48075056299
:10270000056A2B0045682C00C5692A0032F070026A
:10271000920892000D682A4333F400738D6853EADF
:102720000523224DA84210D133F40063CD6853EA4B
:10273000052333F4806334F4805434F400544D6939
:1027400054EA05148D6954EA05144460C2614D6869
:10275000C563036230BC704730B4002200230024FC
:10276000056A35F480550562056A2B0045682C0022
:10277000C5692A0032F4E04232F440720D6852EA30
:10278000052233F400538D6853EA0533074DA84200
:1027900004D134F480444D6954EA85144460C26124
:1027A0004D680564036230BC7047000000000140C2
:1027B0000004004000080040000C004000400140C0
:1027C000004401400048014070B582B0040000257B
:1027D0002078C0076FD5DFF83406006810F00C00D1
:1027E00004280BD0DFF82406006810F00C0008283D
:1027F0000ED1DFF81C060068400209D5DFF8140688
:102800000068800357D56068002854D10120D0E1CA
:102810006068B0F5803F08D1DFF8F805006850F433
:102820008030DFF8F015086024E06068B0F5A02F74
:1028300010D1DFF8E005006850F48020DFF8D415EF
:102840000860DFF8D005006850F48030DFF8C41568
:1028500008600FE0DFF8BC05006830F48030DFF876
:10286000B4150860DFF8AC05006830F48020DFF8AC
:10287000A4150860606800280ED0FFF72DF9050048
:10288000DFF890050068800315D4FFF725F9401B99
:102890006528F5D303208CE1FFF71EF90500DFF86A
:1028A00074050068800306D5FFF716F9401B6528FC
:1028B000F5D303207DE12078800766D5DFF84C054D
:1028C000006810F00C0F0BD0DFF84005006810F026
:1028D0000C0008281FD1DFF83805006840021AD420
:1028E000DFF830050068800704D5E068012801D0D2
:1028F00001205EE1DFF81C0500685FF0F851B1FAD5
:1029000081F130F0F800226912FA01F10843DFF892
:102910000415086039E0E068002823D00120DFF8C2
:10292000F8140860FFF7D8F80500DFF8E80400683D
:10293000800706D4FFF7D0F8401B0328F5D3032007
:1029400037E1DFF8D00400685FF0F851B1FA81F1A7
:1029500030F0F800226912FA01F10843DFF8B414EC
:10296000086012E00020DFF8B0140860FFF7B4F848
:102970000500DFF8A0040068800706D5FFF7ACF873
:10298000401B0328F5D3032013E12078000728D546
:102990006069002812D00120DFF880140860FFF77A
:1029A0009BF80500DFF878040068800719D4FFF76A
:1029B00093F8401B0328F5D30320FAE00020DFF84A
:1029C0005C140860FFF788F80500DFF8540400681D
:1029D000800706D5FFF780F8401B0328F5D30320B6
:1029E000E7E0207840077CD500200090DFF8340431
:1029F000006850F08050DFF82C140860DFF82404E1
:102A0000006810F0805000900098DFF81C04006807
:102A100050F48070DFF810140860FFF75DF80500CF
:102A2000DFF804040068C00506D4FFF755F8401B22
:102A30000328F5D30320BCE0A068012808D1DFF803
:102A4000EC03006850F00100DFF8E013086023E0B9
:102A5000A068052810D1DFF8D403006850F0040006
:102A6000DFF8C8130860DFF8C403006850F0010005
:102A7000DFF8B81308600FE0DFF8B0030068400823
:102A80004000DFF8A8130860DFF8A003006830F00A
:102A90000400DFF898130860A068002810D0FFF742
:102AA0001BF80500DFF884030068800719D4FFF7DE
:102AB00013F8401B41F289318842F3D3032078E0B8
:102AC000FFF70AF80500DFF864030068800708D5FF
:102AD000FFF702F8401B41F289318842F3D303200B
:102AE00067E0A069002863D0DFF82003006810F0D9
:102AF0000C0008285AD0A069022844D10020DFF831
:102B000030130860FEF7E8FF0500DFF808030068EF
:102B1000800106D5FEF7E0FF401B0328F5D3032014
:102B200047E0DFF81003B0FA80F24FF44040B0FA0B
:102B300080F0F021B1FA81F1E369266A3343666AD5
:102B400016FA02F21A43A36A5B085B1E13FA00F03E
:102B50001043E26A12FA01F10843DFF8B412086088
:102B60000120DFF8CC120860FEF7B6FF0500DFF8A1
:102B7000A402006880011BD4FEF7AEFF401B0328AF
:102B8000F5D3032015E00020DFF8A4120860FEF75B
:102B9000A3FF0500DFF87C020068800108D5FEF77E
:102BA0009BFF401B0328F5D3032002E0012000E037
:102BB000002076BD70B504000D000026DFF8780215
:102BC000006810F00F00A8420BD2DFF86C0205700D
:102BD000DFF86402006810F00F00A84201D0012065
:102BE000C0E02078800709D5DFF82002006830F0C7
:102BF000F000A1680843DFF8141208602078C007CD
:102C000072D56068012806D1DFF8080200688003E9
:102C100015D40120A6E06068022802D0606803286D
:102C200006D1DFF8F0010068800108D4012099E0A6
:102C3000DFF8E0010068800701D4012092E0DFF8AE
:102C4000CC0100688008800061680843DFF8BC118F
:102C50000860FEF741FF0600606801280FD1DFF829
:102C6000AC01006810F00C0004283DD0FEF734FFE2
:102C7000801B41F289318842F1D3032072E0606801
:102C800002280FD1DFF88401006810F00C0008283A
:102C90002AD0FEF721FF801B41F289318842F1D30F
:102CA00003205FE0606803280FD1DFF8600100684F
:102CB00010F00C000C2817D0FEF70EFF801B41F21D
:102CC00089318842F1D303204CE0DFF840010068ED
:102CD00010F00C0F08D0FEF7FFFE801B41F2893187
:102CE0008842F2D303203DE0DFF84C01006810F089
:102CF0000F0085420BD2DFF840010570DFF8380184
:102D0000006810F00F00A84201D001202AE02078CE
:102D1000400707D53D48006830F4E050E1680843BB
:102D20003A4908602078000708D53848006830F430
:102D30006040216950EAC1003449086000F013F88E
:102D4000324909685FF07062B2FA82F23B4B11F0CF
:102D5000F001D140C95CC840394908600F20FEF736
:102D6000A3FE002070BD70B40021002200230020CB
:102D7000264C246814F00C04002C04D0042C05D03C
:102D8000082C06D03DE02F4C20003CE02E4C2000CB
:102D900039E01F4C246814F03F0421001C4C2468C7
:102DA00064020FD51A4C2468274DB5FBF1F547F6A0
:102DB000C07634401F4EB6FA86F6F44004FB05F4A4
:102DC00022000EE0124C24681E4DB5FBF1F547F6CB
:102DD000C0763440174EB6FA86F6F44004FB05F48C
:102DE00022000B4C246814F440344FF44045B5FAEB
:102DF00085F5EC40641C64002300B2FBF3F4200072
:102E000001E0104C200070BC704700000838024000
:102E1000043802400038024000004742800E47421A
:102E20007438024040380240007000407038024060
:102E3000600047420000FE03003C02404C43000893
:102E4000680100200024F40000127A00020092F8C9
:102E50003800012801D1022024E0012082F8380046
:102E6000022082F839001068406830F07000136862
:102E70005860106840680B68184313685860106801
:102E8000806830F0800013689860106880684B6834
:102E9000184313689860012082F83900002082F8F6
:102EA00038000020704770477047F0B401684468EC
:102EB0008368091801EB5402E40748BF4B440C3007
:102EC00091422BD011F8014B14F0030504BF11F807
:102ED000015BED1C26090F2E07D111F8016B0F368F
:102EE00003E011F8017B03F8017B6D1EF9D1002E80
:102EF000E6D0A40811F8015B04F00304032C08BF1A
:102F000011F8014B05EB04241C1BB51CD8D014F898
:102F1000016B03F8016B6D1EF9D1D1E7F0BC70476E
:102F200010B586B004002068314988421BD10020CA
:102F300000903048006850F002002E4908602D488B
:102F4000006810F00200009000988020019002209C
:102F5000029000200390012004900220059001A916
:102F60002548FEF795FE06B010BD10B586B00400EA
:102F70002068B0F1804F23D1002000901D480068E8
:102F800050F001001B4908601A48006810F0010069
:102F900000900098082001900220029000200390E9
:102FA000012004900120059001A91448FEF770FE4D
:102FB000002202211C20FEF729FE1C20FEF739FE0C
:102FC00006B010BD10B504002068B0F1804F0CD1E0
:102FD0000848006840084000064908600821074882
:102FE000FEF739FF1C20FEF72BFE10BD000000008D
:102FF0000004004040380240000802400004024043
:1030000010B504002068B0F1804F05D1207E022861
:1030100002D1002000F0E7FA10BD10B50400A4B200
:10302000B4F5806F01D100F07AF8A4B2B4F5005F76
:1030300001D100F0E8FF10BD00207047002070476C
:103040000020704700207047002070470020704724
:103050000020704710B50400DFF8E406006800287F
:103060000CD0DFF8DC0600688068002806D020005D
:10307000DFF8CC1609688968884703E040F602004B
:1030800000F01AF810BD10B50400DFF8B4060068AF
:1030900000280CD0DFF8A8060068C068002806D019
:1030A0002000DFF89C160968C968884703E040F6ED
:1030B000030000F001F810BD10B50400DFF8800631
:1030C000006800280FD0DFF878060068D0F8F0001C
:1030D000002808D0200080B2DFF864160968D1F813
:1030E000F010884700E0FEE710BD38B504000D0081
:1030F000DFF84C06006800280CD0DFF844060068B2
:103100000068002806D02800DFF83416096809682E
:10311000884703E04FF40060FFF7CEFF31BD80B574
:10312000DFF81C06006800280BD0DFF814060068E2
:103130004069002805D0DFF808060068406980472C
:1031400003E040F60500FFF7B7FF01BD38B5040006
:103150000025DFF8EC05006800280ED0DFF8E00558
:1031600000688069002808D02000C0B2DFF8D015C0
:10317000096889698847050003E040F60600FFF703
:103180009BFF280080B232BD38B504000025DFF86F
:10319000B005006800280ED0DFF8A4050068C069FB
:1031A000002808D02000C0B2DFF894150968C9696A
:1031B0008847050003E040F60700FFF77DFF280081
:1031C00080B232BD38B504000025DFF87405006810
:1031D00000280ED0DFF868050068006A002808D0D3
:1031E0002000C0B2DFF858150968096A8847050051
:1031F00003E040F60800FFF75FFF280080B232BD11
:1032000038B504000825DFF83805006800280ED01E
:10321000DFF82C050068406A002808D02000C0B202
:10322000DFF81C150968496A8847050003E040F685
:103230000900FFF741FF2800C0B232BD38B50400D5
:103240000025DFF8FC04006800280ED0DFF8F00449
:103250000068006B002808D02000C0B2DFF8E0143E
:103260000968096B8847050003E040F60C00FFF78A
:1032700023FF280080B232BD38B504000025DFF8F6
:10328000C004006800280ED0DFF8B4040068406B6A
:10329000002808D02000C0B2DFF8A4140968496BE8
:1032A0008847050003E040F60D00FFF705FF280002
:1032B00080B232BD38B504000025DFF88404006810
:1032C00000280ED0DFF878040068806B002808D052
:1032D0002000C0B2DFF868140968896B88470500D0
:1032E00003E040F60E00FFF7E7FE280032BD10B500
:1032F0000400DFF84C04006800280DD0DFF840041B
:103300000068C06B002807D02000C0B2DFF830147E
:103310000968C96B884703E040F60F00FFF7CCFE51
:1033200010BD10B50400DFF81804006800280DD0A7
:10333000DFF80C040068006C002807D02000C0B241
:10334000DFF8FC130968096C884703E04FF401605B
:10335000FFF7B2FE10BD38B504000D00DFF8E00342
:10336000006800280ED0DFF8D8030068406C002801
:1033700008D029002000C0B2DFF8C4231268526CC4
:10338000904703E040F61100FFF796FE31BD10B5FF
:103390000400DFF8AC03006800280DD0DFF8A003BC
:1033A0000068806C002807D02000C0B2DFF89013BE
:1033B0000968896C884703E040F61200FFF77CFE3D
:1033C00010BD70B504000D001600DFF8740300682E
:1033D000002810D0DFF868030068C06C00280AD00D
:1033E00032002900C9B22000C0B2DFF854331B6894
:1033F000DB6C984703E040F61300FFF75DFE70BDFD
:1034000038B504000D00DFF83803006800280FD03D
:10341000DFF82C030068406D002809D02900C9B2EC
:103420002000C0B2DFF818231268526D904703E005
:1034300040F61500FFF740FE31BD70B504000D00E9
:103440000026DFF8FC020068002810D0DFF8F00248
:103450000068806D00280AD0290089B22000C0B21F
:10346000DFF8DC221268926D9047060003E040F618
:103470001600FFF721FE3000C0B270BD70B5040029
:103480000D000026DFF8B8020068002810D0DFF831
:10349000B0020068C06D00280AD0290089B220005F
:1034A000C0B2DFF89C221268D26D9047060003E09C
:1034B00040F61700FFF700FE3000C0B270BD10B537
:1034C0000400DFF87C02006800280DD0DFF87002ED
:1034D0000068006E002807D02000C0B2DFF860123C
:1034E0000968096E884703E040F61800FFF7E4FD1D
:1034F00010BD10B50400DFF84802006800280DD0A8
:10350000DFF83C020068406E002807D02000C0B2FF
:10351000DFF82C120968496E884703E040F619006D
:10352000FFF7CAFD10BD70B504000D000026DFF8DE
:1035300010020068002810D0DFF804020068806ED6
:1035400000280AD0290089B22000C0B2DFF8F0219B
:103550001268926E9047060003E040F61A00FFF7EB
:10356000ABFD3000C0B270BD70B504000D00002688
:10357000DFF8CC010068002810D0DFF8C401006833
:10358000C06E00280AD0290089B22000C0B2DFF83E
:10359000B0211268D26E9047060003E040F61B008F
:1035A000FFF78AFD3000C0B270BD38B504000025B9
:1035B000DFF88C01006800280ED0DFF88401006875
:1035C000006F002808D02000C0B2DFF8741109682D
:1035D000096F8847050003E040F61C00FFF76CFD0B
:1035E0002800C0B232BD10B50400DFF854010068F5
:1035F00000280DD0DFF848010068406F002807D090
:103600002000C0B2DFF838110968496F884703E02D
:1036100040F61D00FFF750FD10BD10B50400DFF8A7
:103620002001006800280DD0DFF814010068806FC9
:10363000002807D02000C0B2DFF804110968896FA4
:10364000884703E040F61E00FFF736FD10BD10B5B9
:103650000400DFF8EC00006800280DD0DFF8E0007F
:103660000068C06F002807D02000C0B2DFF8D0107B
:103670000968C96F884703E040F61F00FFF71CFD8B
:1036800010BD70B504000D000026DFF8B40000681E
:10369000002812D0DFF8A8000068D0F8A0000028A9
:1036A0000BD02900C9B22000C0B2DFF89420126804
:1036B000D2F8A0209047060003E040F62800FFF76C
:1036C000FBFC3000C0B270BD38B504000D00DFF85F
:1036D0007000006800280FD019480068D0F8A400D6
:1036E000002809D02900C9B22000C0B2144A1268CB
:1036F000D2F8A420904703E040F62900FFF7DCFC55
:1037000031BD70B504000D0016000D48006800289A
:1037100010D00B480068D0F8A80000280AD032006A
:103720002900C9B22000C0B2054B1B68D3F8A830ED
:10373000984703E040F62A00FFF7BEFC70BD00008A
:103740002806002038B504000025DFF8A80200682C
:10375000002810D0DFF89C020068D0F8080100288B
:1037600009D02000C0B2DFF88C120968D1F8081126
:103770008847050003E040F64200FFF79DFC280063
:1037800032BD38B504000D00DFF86802006800287B
:1037900010D0DFF860020068D0F80C01002809D0D2
:1037A00029002000C0B2DFF84C221268D2F80C21A8
:1037B000904703E040F64300FFF77EFC31BD38B58B
:1037C00004000D00DFF82C020068002811D0DFF89B
:1037D00024020068D0F8100100280AD02900C9B2DC
:1037E0002000C0B2DFF80C221268D2F810219047F6
:1037F00003E040F64400FFF75FFC31BD38B504003C
:10380000FE25DFF8F0010068002810D0DFF8E401A1
:103810000068D0F82001002809D02000C0B2DFF8ED
:10382000D4110968D1F820118847050003E040F65B
:103830004800FFF741FC2800C0B232BD38B5040093
:10384000FF25DFF8B0010068002810D0DFF8A401E0
:103850000068D0F82401002809D02000C0B2DFF8A9
:1038600094110968D1F824118847050003E040F657
:103870004900FFF721FC2800C0B232BD70B504003A
:103880000D000026DFF86C010068002812D0DFF878
:1038900064010068D0F8300100280BD02900C9B2BB
:1038A0002000C0B2DFF84C211268D2F830219047D6
:1038B000060003E040F64C00FFF7FEFB3000C0B20C
:1038C00070BD70B504000D001600DFF82801006817
:1038D000002813D0DFF81C010068D0F82C01002864
:1038E0000CD03200D2B22900C9B22000C0B2DFF839
:1038F00004311B68D3F82C31984703E040F64B00A5
:10390000FFF7DAFB70BD70B504000D003A48048083
:103910000026A4B241F64A10844204D1FFF78CFB82
:10392000344908604EE0A4B2012C04D1FFF78AFBB1
:103930003049086046E0A4B241F63E00844204D11A
:10394000FFF782FB2B4908603CE0A4B2B4F5C25FEC
:1039500004D1FFF77BFB2749086033E0A4B2DC2CDD
:1039600004D1FCF717FC234908602BE0A4B241F610
:103970004610844204D0A4B241F64810844204D1D7
:10398000FFF75CFB1B4908601CE0A4B241F6501035
:10399000844204D0A4B241F65210844204D1FFF70D
:1039A0004FFB144908600DE0A4B2F02C02D0A4B281
:1039B000FA2C04D1FFF74CFB0E49086002E000200E
:1039C0000C4908600B480068002810D009480068BE
:1039D000D0F8440100280AD0EDB2002D07D028000D
:1039E000C0B204490968D1F8441188470600300084
:1039F000C0B270BD280600203E0600202DE9F84325
:103A0000FEF734F800F020FB0121DC20FFF77BFFFC
:103A10000021DC20FFF769FB0FF2D950FFF733FBE1
:103A20000FF2DD50FFF716FB002200215FF0FF30A0
:103A3000FEF7ECF80121002000F05CFB0020FFF70E
:103A400081FE80465FEA58010020FFF79AFE0020C1
:103A5000FFF7D4FE07004FF4C87010FA07F20121F7
:103A60000020FFF7AEFC0020FFF7D7FD4FF47A707F
:103A7000FEF735F80020FFF7EAFD4FF47A70FEF705
:103A80002EF801210020FFF79AFE4FF4C87010FABB
:103A900007F200210020FFF794FC0020FFF7BDFD96
:103AA0000020FFF70CFD4FF47A70FEF718F80021A4
:103AB0000020FFF784FEDFF884150020FFF74BFCA1
:103AC0000020FFF7AAFD0020FFF7F4FB040014F527
:103AD000C85F03D04AF2070000F092FA0020FFF717
:103AE00008FD4FF47A70FDF7FAFF0020FFF7FFFBA7
:103AF0000020FFF792FD0020FFF7DCFB04004FF4ED
:103B00007A70FDF7ECFF4FF4C85201210020FFF757
:103B1000F8FD0020FFF781FD0020FFF7CBFB04003C
:103B20004FF47A70FDF7DBFF0020FFF7FAFB00206F
:103B3000FFF773FD0020FFF7BDFB04004FF47A7020
:103B4000FDF7CDFF00210020FFF75AFC41F288303D
:103B5000FDF7C5FF0020FFF717FB05004FF41661C6
:103B60000020FFF7E0FC41F28830FDF7B8FF0020AD
:103B7000FFF70AFB05004FF496610020FFF7D3FC26
:103B800041F28830FDF7ABFF0020FFF7FDFA05009A
:103B90004FF4FA610020FFF750FC41F28830FDF746
:103BA0009EFF4FF416610020FFF7BDFC41F2883004
:103BB000FDF795FF0020FFF7E7FA0500ADB2B5F578
:103BC000166F03D04AF2080000F01AFA0020FFF73F
:103BD000F9FA06004FF4FA610020FFF74FFC41F2BA
:103BE0008830FDF77CFF4FF496610020FFF79BFCC7
:103BF00041F28830FDF773FF0020FFF7C5FA05009A
:103C0000310089B20020FFF739FC0020FFF7CDFC1E
:103C10000020FFF702FD4FF4FA60FDF760FF01217D
:103C20000020FFF7EDFB41F28830FDF758FF002040
:103C3000FFF7ADFB0020FFF7F0FC4FF4FA60FDF753
:103C40004EFF44F620610020FFF785FB41F28830EB
:103C5000FDF745FF0020FFF7A8FC0020FFF7DDFC83
:103C60004FF4FA60FDF73BFF02210020FFF706FE4C
:103C7000814601210020FFF7C3FB0020FFF7C0FAB7
:103C80000328FAD16420FDF72AFF4846C0B2420853
:103C900004210020FFF715FE4FF47A70FDF71FFF97
:103CA0000020FFF782FC0020FFF7B7FC0221002074
:103CB000FFF7E4FD5FFA89F9484503D04AF20700AF
:103CC00000F09EF94FF47A70FDF709FF05220321F9
:103CD0000020FFF7F6FD4FF47A70FDF700FF00219A
:103CE0000020FFF7CEFC0020FFF7C6FA80B2384173
:103CF000010089B20020FFF737FC002803D14AF207
:103D0000020000F07DF90020FFF798FA80B23841F8
:103D1000010089B20020FFF706FC002803D14AF217
:103D2000010000F06DF90020FFF710FA80B2384171
:103D3000010089B20020FFF780FB002803D14AF27E
:103D4000030000F05DF90020FFF73CFA80B2384133
:103D5000010089B20020FFF791FB002803D14AF24D
:103D6000040000F04DF9C8210020FFF7F4FA00200C
:103D7000FFF753FC0020FFF79DFA0400C82C03D086
:103D80004AF2070000F03CF94FF4FA60FDF7A7FE95
:103D90003900C9B20020FFF774FC0020FFF74EFA8B
:103DA00080B2B840010089B20020FFF7BCFB0028B8
:103DB00003D14AF2010000F023F90020FFF75CFA7A
:103DC00080B2B840010089B20020FFF7CDFB002887
:103DD00003D14AF2020000F013F90020FFF7B6F910
:103DE00080B2B840010089B20020FFF726FB00280E
:103DF00003D14AF2030000F003F90020FFF7E2F9D3
:103E000080B2B840010089B20020FFF737FB0028DC
:103E100003D14AF2040000F0F3F8C820B8400400CF
:103E200021000020FFF797FA0020FFF7F6FB0020A3
:103E3000FFF740FAA04204D04AF2070000F0E0F891
:103E400002E00020FFF73BFB4FF4FA60FDF747FE6E
:103E5000C820791C88400500290089B20020FFF79E
:103E600062FB002803D14AF2010000F0C9F80020EB
:103E7000FFF76CF9C10089B20020FFF7DEFA0028D5
:103E800003D14AF2030000F0BBF80020FFF79AF9D3
:103E9000C10089B20020FFF7F1FA002803D14AF2ED
:103EA000040000F0ADF800210020FFF7A9FA41F26C
:103EB0008830FDF714FE0020FFF777FB41F28830D1
:103EC000FDF70DFE0020FFF7FAFA08210020FFF7AA
:103ED0004BFB08210020FFF726FB08210020FFF7FD
:103EE000ACFA08210020FFF7C9FA0120B840401CB5
:103EF0000400220001210020FFF763FA0020FFF7F1
:103F00008CFB0020FFF7D6F9A04204D04AF207004C
:103F100000F076F802E00020FFF7D1FA2820FDF744
:103F2000DEFD02210020FFF74AFC012201210020D2
:103F3000FFF747FA0020FFF770FB0020FFF7BFFAFA
:103F40002820FDF7CCFD012201210020FFF739FADE
:103F50000020FFF762FB0020FFF7B1FA2820FDF7F1
:103F6000BEFD012201210020FFF72BFA0020FFF700
:103F700054FB0020FFF7A3FA2820FDF7B0FD012233
:103F800001210020FFF71DFA0020FFF746FB00206B
:103F9000FFF795FA00210020FFF711FC4FF4C861EC
:103FA0000020FFF7C0FA4FF4C8710020FFF7DCFAD9
:103FB0004FF4F0710020FFF740FA4FF4F071002049
:103FC000FFF75CFA4FF4FA60FDF789FD0020FFF778
:103FD00035FC0100C9B20020FFF712FA4FF47A60F5
:103FE000FDF77DFD0020FFF7E0FA41F28830FDF794
:103FF00076FDEBE780B50020FFF729FB01BD00004F
:104000000F490880FEE780B50020FFF717FC002865
:1040100004D000210020FFF757FB03E0012100201E
:10402000FFF752FBC820FDF75AFD4FF40050054939
:1040300008602820FDF711FE01BD000000E7FFFF2A
:104040003C060020143C014000B593B000200090D5
:104050002648006850F080502449086023480068D2
:1040600010F08050009000980020009020480068D8
:1040700030F4404050F400401D4908601C4800687E
:1040800010F4404000900098022006900120099012
:1040900010200A9002200C9000200D9010200E900D
:1040A0004FF4A8700F90042010900720119006A8DC
:1040B000FEF78AFB002802D00020FFF7A1FF0F20A7
:1040C000019002200290002003904FF48050049051
:1040D00000200590022101A8FEF76CFD002802D007
:1040E0000120FFF78DFF13B000BD00BF4038024034
:1040F0000070004030B587B004000D000020009033
:10410000DFF89800006850F00400DFF890100860B5
:10411000DFF88800006810F0040000900098EDB20D
:10412000002D13D1DFF87800E4B230F814000190CC
:1041300000200290022003900220049001A9DFF8E1
:104140006400E4B250F82400FDF7A2FDEDB2012DA9
:1041500022D1DFF84C00E4B230F8140001900020C6
:104160000390DFF84400029001A9DFF83800E4B2C0
:1041700050F82400FDF78CFD00220F21DFF82C0001
:10418000E4B2205640B2FDF741FDDFF82000E4B272
:10419000205640B2FDF74DFD07B030BD303802402B
:1041A0000443000800000020000021102A430008FA
:1041B0001248006850F47000104908601048006808
:1041C00050F001000E49086000200E4908600C48BC
:1041D00000680D4908400A4908600C480C4908600D
:1041E0000748006830F4802005490860002009492C
:1041F00008605FF0006008490860704788ED00E0E3
:104200000038024008380240FFFFF6FE103000245C
:10421000043802400C38024008ED00E019E050F884
:10422000041BCB0744BFA9F101035918121F002337
:10423000042A41F8043BF9D25FEA827C0B4604D59C
:104240004FF0000CA1F800C09B1CD10744BF002117
:10425000197050F8042B002AE1D170477047FEE72F
:10426000FEE7FEE7FEE770477047704780B5FDF751
:104270002DFC01BD80B54FF48060FDF7A4FE4FF426
:104280000050FDF7A0FE01BD80B50248FDF7FAFF22
:1042900001BD0000B005002010B507497944183170
:1042A000064C7C44163404E00A68081D51188847FF
:1042B0000146A142F8D110BD2C00000048000000CA
:1042C0004EF68851CEF20001086840F47000086094
:1042D000BFF34F8FBFF36F8F4FF00070E1EE100A06
:1042E0007047000039FFFFFFD40000007005002078
:1042F00000000000B7EBFFFF580100008C01000038
:10430000000000200020000000F00BF8002801D081
:10431000FFF7C2FF0020C046C046FFF76FFB00F06A
:1043200002F80120704700F001B82800074638461F
:1043300000F002F8FBE7000080B5C046C046024A24
:1043400011001820ABBEFBE72600020000000000B1
:104350000000000001020304060708090148804725
:1043600001480047B14100086D430008C046C046FF
:10437000FFF7A6FFFFF7C8FFFFF7FEBFFFF7FEBF7F
:10438000FFF7FEBFFFF7FEBFFFF7FEBFFFF7FEBF61
:10439000FFF7FEBFFFF7FEBFFFF7FEBFFFF7FEBF51
:1043A000FFF7FEBFFFF7FEBFFFF7FEBFFFF7FEBF41
:1043B000FFF7FEBFFFF7FEBFFFF7FEBFFFF7FEBF31
:1043C000FFF7FEBFFFF7FEBFFFF7FEBFFFF7FEBF21
:1043D000FFF7FEBFFFF7FEBFFFF7FEBFFFF7FEBF11
:1043E000FFF7FEBFFFF7FEBFFFF7FEBFFFF7FEBF01
:1043F000FFF7FEBFFFF7FEBFFFF7FEBFFFF7FEBFF1
:10440000FFF7FEBFFFF7FEBFFFF7FEBFFFF7FEBFE0
:10441000FFF7FEBFFFF7FEBFFFF7FEBFFFF7FEBFD0
:10442000FFF7FEBFFFF7FEBFFFF7FEBFFFF7FEBFC0
:10443000FFF7FEBFFFF7FEBFFFF7FEBFFFF7FEBFB0
:10444000FFF7FEBFFFF7FEBFFFF7FEBFFFF7FEBFA0
:104450001007000802409B010008CB0412D304128D
:10446000DB0412000110071D0D0008A5020008AFB3
:104470000412B90412C30412DB0412E10412EB04A7
:1044800012F504100307030008970412AB0412C3CB
:10449000044004EF0500089B0640100321070008B4
:1044A000710412A1041003230800082D04123B0418
:1044B00012A90413F509081003100008470A0C118B
:1044C0007052FF74F1070112053012D14843AB045A
:1044D00028D2E330F309050740F301FF021CF3057E
:1044E000090230122190122B04125570831D0324EF
:1044F00012110C12CF34122904125F1CF30129038C
:104500004083EF081412E32412812412ED08628D17
:064510002C000124F40060
:040000050800436D3F
:00000001FF
