:020000040800F2
:1000000070050020E13F0008D53E0008D73E0008FB
:1000100000000000000000000000000000000000E0
:10002000000000000000000000000000D93E0008B1
:100030000000000000000000DB3E0008DD3E00087C
:100040001B1D0008832E0008872E0008BF3F0008F4
:10005000CB3F0008FD3F0008FF3F0008E93E0008D5
:100060000140000803400008054000080740000860
:10007000094000080B40000800000000013F000894
:10008000000000000D40000800000000000000001B
:100090000F40000800000000114000081340000855
:1000A0001540000817400008194000081B400008D0
:1000B0001D4000081F4000082140000823400008A0
:1000C0005F48704710B504005E480188491C0180F4
:1000D00001F0D8FB01F0AAFC01F08AFC002C02D14F
:1000E00001F08AF810BD200000F0AEFF10BD5548A9
:1000F0000088704754490864704754490860704745
:1001000000B581B001F044FD401E8041C00F01B038
:1001100000BD00B581B001F0F3FC01B000BD00B539
:1001200081B001F008FD01B000BD00B581B0AA4961
:10013000096C0A0002D0884701B000BDFEE7F0B5A7
:1001400081B0414C0820275E25003A35E97800202F
:1001500001F006F90820205E002827D0A87808289A
:100160000AD0A878092807D02878C00708D52878A9
:1001700008210143297003E00120687001F0B5FCFB
:100180000A20A87001F052FC01F0F6FB934801F040
:10019000F8FB934E0020307001F0D8FB0820205E61
:1001A0000028FBD130780028FCD127810820A870D6
:1001B00001B0F0BD8848008E70478748008F7047B7
:1001C0008548408E70478748007870478648007899
:1001D0007047864870478048C06870477E48808E68
:1001E00070477D48C08E70478148007870477A48D4
:1001F000406870477F48007870477F4800787047B4
:100200000020002906D002290AD006D304290DD0E7
:1002100009D37047794840787047784880787047AC
:100220007648007870477548C07870477348007901
:1002300070477348007870476748C08D704700006A
:10024000040000203A06002070050020340600203B
:10025000F0B581B0604C26002836307D092834D1B5
:100260000820275E717D002001F07AF80820205ECA
:10027000002827D0307D08280AD0307D092807D0F3
:10028000B07CC00708D5B07C08210143B17403E0FD
:100290000120F07401F029FC0A20307501F0C6FB42
:1002A00001F06AFB4D4801F06CFB4D4D00202870B9
:1002B00001F04CFB0820205E0028FBD128780028A4
:1002C000FCD12781082030752AE0307D082827D00E
:1002D00008203075424801F0D8FB002805D1B169EB
:1002E000080000D1FEE7AB488847012001F0C4FABE
:1002F00027002137012038710025FD70002130686A
:1003000001F059FB3D7101F0FBFBB07D717D88422E
:1003100003D001F094FCB07D7075B574E561358251
:100320009D4861680029616808D54A42E26111462A
:10033000814201D201200BE0002005E0E161814211
:1003400001D2002004E001200022D243511AE161D1
:10035000E16900293DD00227B774317D08290AD010
:10036000317D092907D0B07CC00707D5B07C0821B2
:100370000143B17402E0F07401F0B7FBE1690020C1
:1003800000F0F4FD01F0D7FB002515490D70256044
:1003900065612069002807D1B07C012804D0377539
:1003A00021342571607803E035752134257120787A
:1003B000E070E178306801F0FEFA01F0F1FA01F046
:1003C00035FB01F0D9FAF189002000F067FD01F05A
:1003D000BDFA01B0F0BD000070050020102700003C
:1003E0003D060020AC050020AB0500200001010007
:1003F0003C060020AD050020AF0500209005002040
:100400009C050020F0B581B0644CE06800902600A7
:100410002836307D092834D10820275E717D0020E0
:1004200000F09EFF0820205E002827D0307D08289D
:100430000AD0307D092807D0B07CC00708D5B07C31
:1004400008210143B17403E00120F07401F04DFB79
:100450000A20307501F0EAFA01F08EFAB34801F093
:1004600090FAB34D0020287001F070FA0820205E49
:100470000028FBD128780028FCD12781082030757E
:100480002AE0307D082827D008203075A84801F0E0
:10049000FCFA002805D1B169080000D1FEE73D480B
:1004A0008847012001F0E8F9270021370120387141
:1004B0000025FD700021306801F07DFA3D7101F0EA
:1004C0001FFBB07D717D884203D001F0B8FBB07D89
:1004D0007075B574E56135822F486168009A914264
:1004E00009DA11466268891AE161814201D201206C
:1004F0000DE0002007E06168891AE161814201D2C4
:10050000002004E001200022D243511AE161E16998
:1005100000293DD00227B774317D08290AD0317DEA
:10052000092907D0B07CC00707D5B07C082101435A
:10053000B17402E0F07401F0D8FAE169002000F033
:1005400015FD01F0F8FA002579490D702560656107
:100550002069002807D1B07C012804D037752134E8
:100560002571607803E03575213425712078E070BD
:10057000E178306801F01FFA01F012FA01F056FA42
:1005800001F0FAF9F189002000F088FC01F0DEF9B1
:1005900001B0F0BD0EA00000FFFFFF7F700500203E
:1005A000F2B5644C26002836307D092834D1082065
:1005B000275E717D002000F0D3FE0820205E002819
:1005C00027D0307D08280AD0307D092807D0B07C9C
:1005D000C00708D5B07C08210143B17403E00120B5
:1005E000F07401F082FA0A20307501F01FFA01F070
:1005F000C3F94E4801F0C5F94D4D0020287001F0B7
:10060000A5F90820205E0028FBD128780028FCD11D
:100610002781082030752AE0307D082827D008205F
:100620003075434801F031FA002805D1B16908005E
:1006300000D1FEE7A2488847012001F01DF92700FC
:100640002137012038710025FD700021306801F04C
:10065000B2F93D7101F054FAB07D717D884203D04A
:1006600001F0EDFAB07D7075B574E561358295489D
:100670006168009A914209DA11466268891AE1615B
:10068000814201D201200DE0002007E06168891A53
:10069000E161814201D2002004E001200022D24326
:1006A000511AE161E16900293DD00227B774317D1B
:1006B00008290AD0317D092907D0B07CC00707D5A9
:1006C000B07C08210143B17402E0F07401F00DFA2E
:1006D000E169002000F04AFC01F02DFA00251449E0
:1006E0000D70256065612069002807D1B07C012864
:1006F00004D0377521342571607803E035752134D5
:1007000025712078E070E178306801F054F901F04B
:1007100047F901F08BF901F02FF9F189002000F081
:10072000BDFB01F013F901B0F0BD0000102700007F
:100730003D06002070050020F6B581B09D4C2600D6
:100740002836307D092834D10820275E717D0020AD
:1007500000F006FE0820205E002827D0307D082803
:100760000AD0307D092807D0B07CC00708D5B07CFE
:1007700008210143B17403E00120F07401F0B5F9E0
:100780000A20307501F052F901F0F6F88A4801F0BC
:10079000F8F88A4D0020287001F0D8F80820205E73
:1007A0000028FBD128780028FCD12781082030754B
:1007B0002AE0307D082827D0082030757F4801F0D6
:1007C00064F9002805D1B169080000D1FEE73C4872
:1007D0008847012001F050F82700213701203871A7
:1007E0000025FD700021306801F0E5F83D7101F051
:1007F00087F9B07D717D884203D001F020FAB07D89
:100800007075B574E56135826846007900286068C6
:10081000029906D088420846616808DB401A401EEB
:1008200006E08842606802DA401A401E00E0401A82
:10083000E061E069002841D00227B774307D0828C4
:100840000AD0307D092807D0B07CC0070BD5B07C1A
:1008500008210143B17406E068460079F0746846E7
:10086000007901F042F9E169002000F07FFB01F01E
:1008700062F9002551490D702560656120690028E5
:1008800007D1B07C012804D03775213425716078F8
:1008900003E03575213425712078E070E178306807
:1008A00001F089F801F07CF801F0C0F801F064F87B
:1008B000F189002000F0F2FA01F048F803B0F0BD31
:1008C0000EA00000FFFFFF7F70B53A4C26003C36BB
:1008D000F078002816D108203070384801F0D5F89B
:1008E000002805D17168080000D1FEE7B8488847A4
:1008F0001C3400256572E0792072217AE06801F0ED
:100900005AF81DE0012827D1082030702B4801F04B
:10091000BCF8002805D17168080000D1FEE7AC489A
:100920008847012000F0A8FF1C34012060720025D8
:1009300025720021E06801F03EF8657201F0E0F8F0
:10094000B0787178884203D001F079F9B07870708E
:10095000A5772560A58370BD02282AD108203070B4
:10096000164801F092F8002805D17168080000D1FE
:10097000FEE797488847012000F07EFF1C340120E5
:100980006072002525720021E06801F014F865729C
:1009900001F0B6F8B0787178884203D001F04FF9D1
:1009A000B0787070A5772560A58301F093F80920D1
:1009B000307070BD70050020102700003D0600203B
:1009C000F6B581B0B94D2C002834207D092834D1EA
:1009D00008202F5E617D002000F0C2FC0820285E08
:1009E000002827D0207D08280AD0207D092807D09C
:1009F000A07CC00708D5A07C08210143A17403E0B6
:100A00000120E07401F071F80A20207501F00EF861
:100A100000F0B2FFB64800F0B4FF544E0020307032
:100A200000F094FF0820285E0028FBD130780028D1
:100A3000FCD12F81082020752AE0207D082827D0AE
:100A400008202075494801F020F8002805D1A16947
:100A5000080000D1FEE75E488847012000F00CFF47
:100A60002F002137012038710026FE7000212068F8
:100A700000F0A1FF3E7101F043F8A07D617D884246
:100A800003D001F0DCF8A07D6075A674EE612682CB
:100A90000298002868D0E8610220A074207D082810
:100AA0000AD0207D092807D0A07CC0070BD5A07CE8
:100AB00008210143A17406E068460079E0746846A5
:100AC000007901F012F8E089A1890E1AA1890818AD
:100AD00046433000218901F0C9F847083000618998
:100AE00001F0C4F84008002602993A1891420FD24A
:100AF0006189029848432289511801F0B7F8022809
:100B000003D3471E02D1012700E000272F6103E035
:100B10002F610299081A401EA86101F00CF81349D0
:100B20000E702E606E612869002808D1A07C012813
:100B300005D00220207521352E71687803E02675D6
:100B400021352E712878E870E978206800F033FFAD
:100B500000F026FF00F06AFF00F00EFFE1890020A0
:100B600000F09CF900F0F2FE03B0F0BD3D0600205D
:100B700070B54E4C26003C36082030709C4800F082
:100B800084FF002805D17168080000D1FEE75948AC
:100B90008847012000F070FE1C340120607200259F
:100BA00025720021E06800F006FF657200F0A8FFE2
:100BB000B0787178884203D001F041F8B078707055
:100BC000A5772560A58300F085FF0920307070BDF2
:100BD0000EA00000F1B50F00344E34001C343C363A
:100BE0003078092804D168460078FFF7A8FA28E091
:100BF0003078082825D0082030707D4800F045FF67
:100C0000002805D17168080000D1FEE739488847FF
:100C1000012000F031FE01206072002525720021C4
:100C2000E06800F0C8FE657200F06AFFB078717885
:100C3000884203D001F003F8B0787070A577256082
:100C4000A583307808280AD03078092807D0A07FFB
:100C5000C00708D5A07F08210143A17703E0E7770B
:100C6000380000F042FF0120A0776846007800F0CD
:100C7000C2FB01B0F0BD0020002908D0854A137BDB
:100C80001B0702D4937A012B01D1118001207047F8
:100C90000020002908D0804A937A1B0702D4137AD7
:100CA000012B01D111800120704700007005002048
:100CB00000B581B00800A8498A78082A02D08A784D
:100CC000092A03D1487000F010FF06E00878C00739
:100CD00003D50878082202430A7001B000BD002045
:100CE0009E49486070479D484168C1607047000058
:100CF000102700000EA0000000200B00082B00DAD7
:100D0000704730B4964A974CA34206DB1578002D05
:100D10000ED0557CEB40A3420ADA5389994207D39F
:100D2000137C1B0702D4937B012B01D1118101207D
:100D300030BC704700200A00083A8B4B9A420BD215
:100D4000A04A13888B4207D3137A1B0702D49379E6
:100D5000012B01D1518001207047022803DA9F49FD
:100D600008700120704700207047F1B50F007B4CE0
:100D700026002436307E082829D0307E092826D047
:100D8000082030761A4800F080FE002805D1F1696D
:100D9000080000D1FEE792488847012000F06CFD72
:100DA00001207070002535700021706800F003FE8E
:100DB000757000F0A5FEB07E717E884203D000F011
:100DC0003EFFB07E7076B575201D8561B58200F05E
:100DD00081FE241D0025A5802560A5603900684698
:100DE000007800F0BDFA01B0F0BD92480170704784
:100DF0003D06002010B5904C01206071652A00DB93
:100E00006422002906D0022908D005D304290BD07A
:100E100006D30EE0627010BDA27010BD227010BD2E
:100E2000E270207F082806D122711100A06800F02E
:100E3000C2FD0020607110BD4948017070476948CB
:100E4000C1857047002044498A78120704D4087885
:100E5000042202430A70012070476248806A70478A
:100E600000B581B0080075494860097800F0A3FD1D
:100E700001B000BD724808215A4A3C23D35C0B42A2
:100E8000FBD03C23D35C0B4202D00378002BF4D17F
:100E900070470000A0050020A205002070B50E00DC
:100EA0002E4C25002C3528780028687C3BD009285A
:100EB00005DB6969080000D1FEE762488847687C65
:100EC00000281ED0A97C6A883000C840824235DAEA
:100ED000A87B800706D5E0696269801A01228A40F2
:100EE00090422BD30820205EC0B2802826D100F08B
:100EF00099FE00206874A87C2168C1402160C6402A
:100F00001CE06888B04202D3A87C00280ED1A87BE0
:100F1000800713D50120A97C8840E1696269891A9C
:100F200088420BD302E0A97C884207D000F087FEFC
:100F3000A87C68742168814021608640B6B2082E82
:100F400001DA082603E0A6498E4200DB4E1EAE8180
:100F5000300000F016FD70BDAA05002070050020CD
:100F60009C0500201127000009270000F0B50C00A7
:100F70009C4DE88EA98E0E1AA98E081846433000A3
:100F8000298E00F073FE47083000698E00F06EFE77
:100F9000400839188C420FD2698E4C4320002A8EAB
:100FA000511800F063FE022803D3471E02D1012727
:100FB00000E000272F6102E02F61201A401EA86187
:100FC000F0BD0000A405002087480068010000D1A2
:100FD000704700B581B0804701B000BD3C060020DD
:100FE0000EA000007005002010B500227D480260B0
:100FF00042600281026142618261C2610300253365
:101000001A7001002E314A810A7301224A730A893B
:10101000DB79002B03D00B88714CA34202DAC9881C
:10102000914205D2016C080000D1FEE76F48884765
:1010300010BD0000AF0500209005002094050020A1
:101040003D0600200CA00000F0B581B00400654E04
:1010500035002435092028762088002807D0297EED
:10106000090702D4A97D012901D1A88105E0E96918
:10107000080000D1FEE75E4888476088002807D056
:10108000297E090702D4A97D012901D1E88105E063
:10109000E969080000D1FEE756488847A0880100AA
:1010A000082914DB4E4A914206DB2B7A002B0ED026
:1010B0006B7ED94091420ADA698A884207D3297E39
:1010C000090702D4A97D012901D1288205E0E96937
:1010D000080000D1FEE79F488847E08801000839F2
:1010E0009D4A91420AD2298A814207D3297E090763
:1010F00002D4A97D012901D1688205E0E9690800CF
:1011000000D1FEE79548884760696860297800F05B
:1011100052FC207A01276F70652800DB6420361DA1
:101120007077607A6F70652800DB6420B077A07AF2
:101130006F70652800DB64203077E17A6F70652975
:1011400000DB6421F177287E082805D129706868C2
:1011500000F031FC00206870207B2872E0896881F3
:10116000607CE876FFF740FF6846217C0170287EAE
:10117000082827D0287E092824D008202876B448BB
:1011800000F083FC002805D1E969080000D1FEE7E2
:10119000B0488847012000F06FFB6F7000242C706E
:1011A0000021686800F007FC6C7000F0A9FCA87EC4
:1011B000697E884203D000F042FDA87E6876AC7557
:1011C000B461AC8200F086FC0024B4803460B4606A
:1011D00068460178002000F0C3F801B0F0BD0000BF
:1011E00011270000700500203406002009A000002F
:1011F00003A0000004A00000F0B581B0964D2C00C3
:101200002434092020760827207E384202D1A07D90
:10121000012803D1F0204000A08105E0E169080029
:1012200000D1FEE78D488847207E384202D1A07D5C
:10123000012803D1F0204000E08105E0E1690800C9
:1012400000D1FEE786488847608A8649884208D2EE
:10125000207E384202D1A07D012802D1481E208282
:1012600005E0E169080000D1FEE73A488847C82058
:101270004000218A814207D3217E394202D1A17DDB
:10128000012901D1608205E0E169080000D1FEE793
:101290003248884774486060217800F08CFB012652
:1012A00066702D1D00951420687766700F200099D8
:1012B000887766700A20009908776670192000996F
:1012C000C8770025217E082905D120701921606882
:1012D00000F071FB65702672C8206081E576FFF72B
:1012E00083FE207E082826D0207E092823D027765A
:1012F000574800F0CAFB002805D1E169080000D179
:10130000FEE754488847012000F0B6FA6670257061
:101310000021606800F04FFB657000F0F1FBA07EDB
:10132000617E884203D000F08AFCA07E6076A575BD
:1013300000988561A58200F0CDFB00998D80009812
:101340000560009885600521002000F009F801B0D3
:10135000F0BD000001A000000927000002A000006D
:1013600010B50C004148047044702000082840D893
:1013700001A1095C8F4400BF0A2A383E48525C66CE
:10138000700000F04FFC012000F076FA00F098FBAE
:10139000012000F071FA002C01D000F050FC012077
:1013A00010BD002301221946104600F0FBFBEAE7BE
:1013B00001230022F7E70023012201210120F4E7A5
:1013C0000123012201210120EFE701230022002156
:1013D0000020EAE70123002201210120E5E70023A4
:1013E000012200210020E0E700230022012101204A
:1013F000DBE7002010BD10B500F09DFB0020144A73
:1014000010701549086048610C0028340A69002AE8
:1014100008D1A27C012A05D002222275213108714F
:10142000487803E02075213108710878C870C978C0
:10143000206800F0C0FA00F0B3FA00F0F7FA00F00C
:101440009BFAE1890020FFF729FD00F07FFA10BD2B
:101450003D0600200EA000007005002003A0000043
:1014600004A0000041060000A0860100AD05002098
:10147000F0B583B0A64C26002836B07D717D401AA9
:101480000190307D0A28A348007819D1002808D09F
:101490000020A04908700820205E00280CD10846D2
:1014A000D7E101209B490870707D21890122082322
:1014B000181A8240881A2081974800F062FAD2E117
:1014C000002803D1012093490870B9E10027914910
:1014D0000F70012001998840616909186161F17CF0
:1014E0000029616810D008186060707D2189012290
:1014F0000823181A824088182081E05ED9018842AA
:1015000013DB2089401A0FE0081A6060707D218982
:1015100001220823181A8240881A2081E05E0028E0
:1015200003D52089D90140182081307D002805D0BD
:10153000022800D196E0032860D081E1616920692A
:101540000090358A30890004019AD040B37C0C2287
:10155000134278D1B27C022A02D1A269914272D29E
:10156000B289019BDA40954200DB25E1B27C022A78
:1015700003D1009A914200D31EE1002D00D1012534
:1015800021680091290000F071FB00990818206083
:10159000B648414222688A4228D322681218226043
:1015A0006D1CADB222688A4217D3226812182260DD
:1015B0006D1CADB222688A420FD3226812182260D5
:1015C0006D1CADB222688A4207D3226812182260CD
:1015D0006D1CADB222688A42DFD2B0890199C84041
:1015E000A84202DAB5890846C540358221342079FF
:1015F000002800D124E1277120781CE1B0890199ED
:10160000C8400090606901902500213528790028A4
:1016100007D02F712020205CE870E978306800F056
:10162000CAF9B07C0C2108420DD1B07C022803D14C
:101630000198A169884206D2B07C012808D100989F
:10164000318A884204DA0220307527602134F0E0C4
:10165000B07C012800D0F3E0308A0099884200DB9A
:10166000EEE029E06169358A70890004019AD04072
:10167000B37C0C22134204D0F289019BDA40AA42C7
:1016800007DAB27C022A00D08EE0E269914200D2F1
:101690008AE00825B07C284214D0B07CF7210140B4
:1016A000B174F07C411E8941C90FF174F07C00F0E7
:1016B0001CFAB07C400705D43775276021342771A8
:1016C0002078B8E0F07D002815D13575114800F07C
:1016D000DCF9002805D1B169080000D1FEE76448B3
:1016E0008847250021352F71A878E870E97830689F
:1016F00000F061F94CE00228357506482FD100F062
:10170000C4F900280CD1B169080007D1FEE700BF79
:10171000700500203D06002010270000544888472F
:10172000012000F0A9F82500213501202871EF7073
:101730000021306800F03FF92F7100F0E1F9B07D31
:10174000717D884203D000F07AFAB07D7075B7746D
:10175000E761378200F0BEF90920307570E000F0D3
:1017600094F9002805D1B169080000D1FEE740488E
:101770008847012000F080F82500213501202871DC
:10178000EF700021306800F016F92F7100F0B8F901
:10179000B07D717D884203D000F051FAB07D707544
:1017A000B774E76137824BE0B17C01290ED1B18972
:1017B000019AD140A94209DB03203075250021356B
:1017C0002F7120342078E870E97836E0F189019AA9
:1017D000D140A94234DA6A461772002D00D10125A2
:1017E00021680091290000F041FA00990818206052
:1017F0001E4841426B4608E0226812182260022D02
:1018000001DB6D1EADB201221A7222688A42F3D248
:101810006846007A002808D0F0890199C8408542BE
:1018200002DAF5890846C54035822134207900283E
:1018300006D027716078E070E178306800F0BBF87E
:10184000307D000704D4318A0020FFF727FB0AE02F
:10185000084800F01AF9002805D1B169080000D144
:10186000FEE70348884703B0F0BD00000000FFFF1B
:101870000EA000003D06002000B581B000F07CFA0B
:1018800001B000BDF0B58BB00124BF480168214311
:1018900001600168214000910099022102680A4319
:1018A00002600268114000910099042102680A4315
:1018B00002600068014000910098A6020696079415
:1018C000002508950994A027FF0506A9380000F017
:1018D00067FA72B600223100380000F0AAFBAB486C
:1018E000066062B600220121072000F0C5FB072038
:1018F00000F0DCFB10200190029403950494C84E84
:1019000001A9300000F04CFA4020019002940395A8
:10191000049401A9300000F043FA200201900294DF
:101920000395049401A9380000F03AFA6602019682
:1019300002940395049401A9380000F031FA0022C2
:101940003100380000F075FB0BB0F0BD00B581B080
:10195000BF4801680422D2430A610A6A002A04D1FE
:101960000A6A202313430B6201E000220A62042169
:1019700000F028FC01B000BDB5480168496A8163E8
:10198000704770B5050001F00DFAB14CA66BA901C6
:1019900000F06CF93018A063A06B2168886370BDFB
:1019A00000B581B00421AB4800F0A4FC192000F080
:1019B000E3F901B000BD30B581B005000C0001F0C5
:1019C000F1F9290000F052F9401EA24DA249296008
:1019D000652C00DB6424C862E8606421091B48436D
:1019E000642100F043F980B22968886301B030BDFA
:1019F00030B587B0974D984828600024AC606C6083
:101A0000EC602C616020029005940394280000F0A3
:101A100037FC042202A9280000F0BAFD00940194CA
:101A20006946280001F008FA07B030BD30B587B02C
:101A3000874D8020C00528600024AC601F206860AE
:101A40008648E8602C61280000F06AFB0494059445
:101A5000039428688249884209D0502002900422C9
:101A600002A9280000F008FD3020029000E0029456
:101A7000042202A9280000F0FFFC009401946946AA
:101A8000280001F0D9F907B030BD10B572B6007862
:101A9000012801D162B610BD0821614800F0C2FAE8
:101AA000002802D062B6002010BD694C042120003D
:101AB00000F0B3FB62B6200000F06CFB012010BD0B
:101AC00000B581B001225102A020C00500F0B1FA9A
:101AD00001B000BD00B581B0002280218900A020A6
:101AE000C00500F0A6FA01B000BD00B581B002004B
:101AF00080214900A020C00500F09BFA01B000BD84
:101B000030B585B08024E4000094012001900021CC
:101B100002910390A025ED056946280000F040F9E8
:101B200072B600222100280000F083FA17480460F2
:101B300062B605B030BD30B585B08024E400A02584
:101B4000ED052100280000F06DFA002819D10122CE
:101B50002100280000F06DFA0A2000F00DF9009431
:101B6000404801900120029003906946280000F04F
:101B700017F906480460072000F0BCFA072000F0BF
:101B800095FA05B030BD00002C100240140401404D
:101B900000B581B08021C900A020C00500F042FA44
:101BA00001B000BDF0B585B00E0015001F001C4C43
:101BB000002801D0012200E000221021200000F0C6
:101BC00038FA002E01D0012200E00022402120003E
:101BD00000F02FFA1E4800F0DDFA082000900120E6
:101BE00001900021029103906946200000F0D8F88E
:101BF000002D01D0012200E000220821200000F089
:101C000018FAA020C00580214900002F01D0012230
:101C100000E0002200F00DFA012005B0F0BD000048
:101C20000004005010B5104C00221021200000F0DC
:101C300000FA00224021200000F0FBF910BD00B5A1
:101C400081B001221021084800F0F3F901B000BD75
:101C5000B4050020F005002000140140FFFF000043
:101C60000008014000002110000400500022030A77
:101C70008B420BD203098B4219D243088B422ED2DE
:101C8000411A00D20146524110467047FF22090214
:101C90003FD012068B4205D3121209028B4201D3A8
:101CA0001212090203098B4219D300E0090AC30981
:101CB0008B4201D3CB01C01A524183098B4201D31D
:101CC0008B01C01A524143098B4201D34B01C01A08
:101CD000524103098B4201D30B01C01A5241C30880
:101CE0008B4201D3CB00C01A524183088B4201D3EF
:101CF0008B00C01A524143088B4201D34B00C01ADB
:101D00005241884200D3401A5241CFD20146104678
:101D1000704708B501F0B6F808BDFEE700B581B020
:101D20001C48016840220A430260016802220A43FB
:101D30000260032000F006F800F003F8002001B074
:101D400000BD704710B5040013480068FA218900EF
:101D5000FFF78CFF00F0B8F9002221000020C043FB
:101D600000F08AF9002010BD0C480168491C016090
:101D700070470A480068704711B581B0FFF7F9FF56
:101D80000400FFF7F6FF001B01998842F9D302B067
:101D900010BD000000200240680100203006002035
:101DA000F0B483B00200002303240868002800D1A7
:101DB000BEE00120984002900868029D0540019510
:101DC0000198002800D1AEE04868022801D012280E
:101DD00011D1D80880001018056A5E07F60E6F460C
:101DE0003E700F263F78BE40B5430E696F463F7880
:101DF000BE402E4306624868012805D0022803D061
:101E0000112801D0122817D1956858006E463070FD
:101E1000684606780320B0408543C8686E46367829
:101E2000B040284390605068029DA8434D68EE067C
:101E3000F60F9E4006435660166858006D4628709F
:101E4000684605780320A840C5432E4048682040D6
:101E50006F463F78B84030431060D06805408868CE
:101E60006E463678B0402843D0604868C0005AD5E6
:101E700079480068012505437748056077489D0843
:101E8000AD0040190290006803261E40B5000F26E1
:101E9000AE40B043A026F605B24201D1002614E0C0
:101EA0006F4EB24201D101260FE06E4EB24201D117
:101EB00002260AE06C4EB24201D1032605E06B4EC9
:101EC000B24201D1052600E00626AE400643029844
:101ED000066067480568019EF04305404E68F603BA
:101EE00002D52E00019D3543614E35607568054071
:101EF0004E68B60302D52E00019D35435C4E7560D9
:101F0000B56805404E68F60202D52E00019D3543A6
:101F1000574EB560F56828404D68AD0202D5050002
:101F200001982843F0605B1C0868D84000D040E767
:101F300003B0F0BC7047C2B483B0010000224C4B28
:101F4000039800286BD00120904002900398029ED5
:101F500006400196019800285DD050000326864077
:101F60000096086806430E60D00880000E18376A95
:101F7000BC465007C70E0F20B840674687433762FC
:101F8000009EF0438E6806408E604E68029FBE43FE
:101F90004E60CE683040C86030489608B600801960
:101FA0000090066803271740BF000F20B84030405C
:101FB000A026F605B14201D1002614E0284EB14218
:101FC00001D101260FE0274EB14201D102260AE0DD
:101FD000254EB14201D1032605E0244EB14201D184
:101FE000052600E00626BE40B04214D100980668DF
:101FF0000F20B840864300980660019EF0431E689B
:1020000006401E605E6806405E609E6806409E60F8
:10201000DE683040D860521C0398D04093D104B0A1
:10202000C0BC704700690840401E8041C043C00FDB
:102030007047002A01D081617047816270470D4A64
:102040001368034000D1704700B581B0106000F004
:1020500089FF01B000BD00003410024008000140BB
:102060000004005000080050000C0050001C0050FC
:10207000000401401404014010B48207D30EFF2471
:102080009C40E2438907090E9940030004D51D488E
:102090001B071B0F083B00E01B489B089B00C01858
:1020A00003681A401143016010BC70470121C0064B
:1020B000C00E81401548016070470121C006C00E66
:1020C0008140134801607047401E802149048842C6
:1020D00001D3012070470F4948600F48026812027F
:1020E000120AC0231B0613430360002088600722E6
:1020F0000A6070470121C006C00E81400748016098
:10210000704700001CED00E000E400E000E100E0AA
:1021100080E100E010E000E020ED00E080E200E07F
:1021200030B581B0050001D1012031E02C003434FC
:102130006078002803D12070280000F0C0FE022043
:102140006070281D29680B688022D205914205D055
:102150001A4DA94202D01A4DA94209D17025AB43AC
:102160001D0043682B43914205D0144A914202D08E
:10217000134A914203D1404A1A40C36813430B608B
:102180008268CA620068886201204861607000202D
:1021900001B030BD10B50400343402216170016813
:1021A0000A6A364B134003D10A6801239A430A6036
:1021B00000F0A8FE00206070207010BD00080140F3
:1021C0000014014010B40A0006D0042908D00829E0
:1021D0000AD00C290CD010E00268D36802240AE06F
:1021E0000268D368042406E00268D368082402E089
:1021F0000268D36810241C43D460026801200123C4
:102200008B40116A99431162116A0B431362116882
:1022100008431060002010BC704710B40A0006D0BC
:10222000042908D008290AD00C290CD010E0026833
:10223000D36802240AE00268D368042406E0026836
:10224000D368082402E00268D3681024A343D36053
:102250000268106A01238B4098431062106A106272
:10226000106A0649014003D11068012188431060BB
:10227000002010BC70470000FFFCFFFF11110000A0
:1022800030B581B0050001D1012031E02C0034349B
:102290006078002803D12070280000F0F5FD0220AE
:1022A0006070281D29680B688022D205914205D0F4
:1022B000264DA94202D0264DA94209D17025AB4333
:1022C0001D0043682B43914205D0204A914202D021
:1022D0001F4A914203D11F4A1A40C36813430B603F
:1022E0008268CA62006888620120486160700020CC
:1022F00001B030BD10B40A0006D0042908D0082966
:102300000AD00C290CD010E00268D36802240AE03D
:102310000268D368042406E00268D368082402E057
:102320000268D36810241C43D46002680120012392
:102330008B40116A99431162116A0B431362116851
:1023400008431060002010BC7047000000080140E6
:1023500000140140FFFCFFFF70B504002068022656
:102360000169314016D0C168314013D00221C94300
:102370000161012121758069800703D0200000F0F0
:10238000D2F905E0200000F0DDFD200000F0CCF9DE
:1023900000202075206804250169294017D0C168F4
:1023A000294014D00421C943016126758069C021E8
:1023B0008900014003D0200000F0B5F905E02000BD
:1023C00000F0C0FD200000F0AFF90020207520686B
:1023D00008260169314015D0C168314012D008216A
:1023E000C94301612575C069800703D0200000F052
:1023F0009AF905E0200000F0A5FD200000F094F916
:10240000002020752068102102690A4017D0C26898
:10241000114014D01021C94301612675C069C02143
:102420008900014003D0200000F07DF905E0200084
:1024300000F088FD200000F077F90020207520686A
:10244000012102690A4008D0C268114005D001216B
:10245000C9430161200000F065F92068402102694C
:102460000A4008D0C268114005D04021C94301612B
:10247000200000F05AF970BDF0B482B03423C35C80
:10248000012B01D1022078E0012334254355022499
:10249000050034356C70002A06D0042A19D0082AA9
:1024A00030D00C2A46D061E00468241DE2699A43CA
:1024B000E261E269256867697326B7430E683E43A7
:1024C0000227BA438F681743256066614968216314
:1024D00016E00468241DE2691025AA43E261E2695E
:1024E00025686669274F37400E6836023E4320272D
:1024F000BA438F683F01174325606661496861638D
:10250000E76133E00468241DE2691F4D1540E56171
:10251000E2692568A7697326B7430E683E43184FE2
:1025200017408A6812023A432560A6614968A16390
:10253000E2611BE00268146A144D25401562146ABA
:102540000194141D2568D7690E4E3E400F683F0266
:1025500037430097019F6D4E3E408F683F033743DE
:102560002560009CD4614968116417620100343110
:102570004B70002134300170002002B0F0BC704775
:10258000FFFDFFFFFF8CFFFFFFFEFFFFFFEFFFFFE1
:10259000F0B481B03423C35C012B01D10220B1E03F
:1025A0000123342543550224050034356C70002A7C
:1025B00006D0042A27D0082A4ED00C2A71D09AE0DF
:1025C00005682D1DEA699A43EA61EA692C686F691A
:1025D0007326B7430E683E430227BA438F681743FA
:1025E0002C606E614A682A63EF610268946908256D
:1025F00025439561026894690425AC43946102689F
:102600009469C96825E005682D1DEA691024A24374
:10261000EA61EA692C686E693D4F37400E68360200
:102620003E432027BA438F683F0117432C606E61F9
:102630004A686A63EF6102689469DD022543956127
:1026400002689469334D2540956102689469C968B0
:102650000902214391614EE005682D1DEA692E4C67
:102660001440EC61EA692C68AF697326B7430E68C1
:102670003E432A4F17408A6812023A432C60AE61EB
:102680004C68AC63EA610268D46908252543D561CA
:102690000268D4690425AC43D4610268D469C9686E
:1026A00027E00468226A1E4D15402562226A251D16
:1026B0002E680096E669164F37400E6836023E4394
:1026C000124F17408A6812033A43009F2F60E66159
:1026D0004D68256422620268D469DD022543D56114
:1026E0000268D4690B4D2540D5610268D469C96878
:1026F00009022143D161010034314B700021343093
:102700000170002001B0F0BC70470000FFDFFFFF48
:10271000FF8CFFFFFFFBFFFFFFFEFFFFFFFDFFFF43
:10272000FFEFFFFF7047704770477047F0B583B009
:102730000400BB4D2078C0074CD50C21E868084048
:10274000082808D080204002EA6811400C290AD1EC
:10275000E968014007D0286880033BD560680028FD
:1027600038D101205DE26168814207D0A022D20207
:102770009142296806D182000A432A6029680843E9
:1027800028600AE0A74A0A402A60296808400090A9
:1027900000982868A449014029608027BF0260682A
:1027A00000280BD0FFF7E5FA06002868384011D161
:1027B000FFF7DFFA801B6528F7D32FE2FFF7D9FA7E
:1027C00006002868384005D0FFF7D3FA801B65283B
:1027D000F7D323E22078800718D50C21E868084059
:1027E000042806D0E86801400C2937D1E868C00306
:1027F00034D42868400702D5E0680128B1D1686860
:102800008A49014020690002084368602078C006B8
:1028100000D4BFE06F0DE8680C21014000D0CFE08C
:102820002868074002D0E06900289AD0606AF02149
:1028300000226B68E02636021E4086425FD200927C
:10284000EA6811403FD1C0214901B14F80225205B1
:10285000AB6B134027D03A680A402DE0E0680427AC
:10286000002810D029680922914308432860FFF707
:1028700080FA060028683840C1D1FFF77AFA801B39
:102880000328F7D3CAE12868012188432860FFF7AD
:1028900070FA060028683840B8D0FFF76AFA801B43
:1028A0000328F7D3BAE1AB6B1A43AA633A680A402C
:1028B000AB6BB54E1E40AE638A4204D1C90088425C
:1028C00001D101200090B148016801229143009A92
:1028D0000A4302600068C107C90F0098814200D016
:1028E0003FE76868AA490140606A08436860686811
:1028F0000002000A216A09060143696039E06B6839
:10290000A34E1E403043686068680002000A236AD4
:102910001B0603436B60606A0092EA6811401AD19B
:10292000C02149017A4F80225205AB6B134002D07F
:102930003A680A4008E0AB6B1A43AA633A680A4057
:10294000AB6B914E1E40AE638A4204D1C9008842EF
:1029500001D1012000908D48016801229143009A25
:102960000A4302600068C107C90F0098814200D085
:10297000F7E60120616A490B491C8840C003AA4957
:10298000EA681206120F895CC840A8490860032053
:10299000FFF7D8F92078000759D560690028286D1D
:1029A00046D0012101432965FFF7E3F90600286DB0
:1029B00080074CD4FFF7DDF9801B0328F7D32DE106
:1029C000E069002828681CD0A90D01432960FFF7A1
:1029D000D0F906002868384005D1FFF7CAF9801BF6
:1029E0000328F7D31AE1686869490140606A08431F
:1029F000686068680002000A216A0906014369608C
:102A0000C8E78B4901402960FFF7B3F90600286841
:102A10003840BFD0FFF7ADF9801B0328F7D3FDE0A6
:102A200000100240FFFFFEFFFFFFFBFFFFE0FFFF84
:102A3000012188432865FFF79CF90600286D80076F
:102A400005D5FFF796F9801B0328F7D3E6E0207839
:102A5000400767D500206946087180225205A86B9F
:102A6000104004D1A86B0243AA6301200871284FCB
:102A70003868C0050FD43868A90D01433960FFF7E5
:102A800078F906003868C00505D4FFF772F9801B95
:102A90006528F7D3C2E0A068A90D884202D1286D4D
:102AA000014315E0002801D1286D0BE0A021C900E9
:102AB0008842286D06D1290D01432965286DA90D8D
:102AC000014305E05A4901402965286D59490140F3
:102AD00029656F0DA06800280CD0FFF74AF90600A1
:102AE000286D384016D1FFF744F9801BA949884268
:102AF000F6D393E0FFF73DF90600286D384009D082
:102B0000FFF737F9801BA3498842F6D386E000BF60
:102B10000070004068460079002803D0A86B1A496D
:102B20000140A9632078800634D59B48A16900291B
:102B3000A96816D001220A43AA60696B01220A43E0
:102B40006A630168420C0A430260FFF712F906004B
:102B5000A86880071ED4FFF70CF9801B0328F7D361
:102B60005CE001229143A96001688C4A0A4002603E
:102B7000FFF7FFF80600A86880070BD5FFF7F9F804
:102B8000801B0328F7D349E0FFFFFFEF002002403E
:102B9000FF1FFFFFA06A002842D0E9680C220A400C
:102BA0000C2A00D1DDE58027BF047D490228286872
:102BB00027D101402960FFF7DCF80600286838407B
:102BC00005D0FFF7D6F8801B0328F7D326E0E86886
:102BD0008E490140E06A0843216B0143606B084362
:102BE000E8602868790801432960FFF7C2F8060009
:102BF0002868384014D1FFF7BCF8801B0328F7D3AE
:102C00000CE001402960FFF7B4F80600286838405E
:102C100006D0FFF7AEF8801B0328F7D3032000E0AF
:102C2000002003B0F0BD0000B83E0008680100209D
:102C3000FFFEFFFFFFFBFFFFF2B5040074480068D2
:102C4000C107C90F009881420DD271480068012167
:102C50008843009901436E4801600068C107C90FAD
:102C60000098814270D16B4D2078800705D5E868C7
:102C7000F0218843A1680143E9602078C0074ED560
:102C80006068022802D12968890308E0032802D17C
:102C90002968890103E00128296802D1490702D483
:102CA00052E0890550D5E968032291430843E86062
:102CB000FFF75FF8070060680C2602280AD1E86871
:102CC000304008282BD0FFF754F8C01B3149884208
:102CD000F5D322E003280AD1E86830400C281ED042
:102CE000FFF747F8C01B2B498842F5D315E00128B0
:102CF0000AD1E8683040042811D0FFF73AF8C01B29
:102D000024498842F5D308E0E868304007D0FFF74F
:102D100030F8C01B1F498842F6D3032037E00098E3
:102D20003B490968CA07D20F90420FD23848006861
:102D30000121884300990143354801600068C107BB
:102D4000C90F0098814201D0012020E0207840077F
:102D500005D5E86830490140E0680843E86020781C
:102D6000000706D5E8682D4901402069C0000843E6
:102D7000E86000F017F82A49EA681206120F895C29
:102D8000C840284908600320FEF7DCFF002001B09E
:102D9000F0BD00008913000020000140FFDFFFFFAD
:102DA000FFFFFFFE00B51B4AD1680C200840042835
:102DB00004D0082809D00C2809D01EE01068C006ED
:102DC00001D5194800BD194800BD194800BD194872
:102DD0008B021B0FC05C0902890F491CD368DB03FF
:102DE00001D5134A05E01268D20601D50E4A00E06B
:102DF0000E4A5043FEF73AFF00BD5068012100041F
:102E0000400F401C8140C80300BD0000FFFF02FFCF
:102E10000020024000100240FFF8FFFFFFC7FFFF45
:102E2000B83E00086801002000093D000024F400BD
:102E300000127A00C83E000870B4020034321378E1
:102E4000012B01D102201AE00123137002245470D7
:102E5000046865687026B5436560046865680E6837
:102E60002E4366600468A5688026B543A5600068A7
:102E7000846849682143816053700020107070BCE1
:102E80007047FEE77047FEE700682949884200D096
:102E9000704700B585B02748016820220A430260C8
:102EA00080200090022001900020029001210391D7
:102EB000049069462048FEF773FF05B000BD006826
:102EC0008021C905884200D0704700B585B0012037
:102ED0001A490A6802430A600821009102210191FF
:102EE000002202920390049169461548FEF758FFAC
:102EF000002202210F20FFF7BFF80F20FFF7D6F8BE
:102F000005B000BD00688021C905884200D0704727
:102F100000B581B009480168012291430160082190
:102F20000748FFF708F80F20FFF7C7F801B000BD0A
:102F300000140140341002400008005038100240D4
:102F40000004005001688022D205914200D07047F1
:102F500000B581B0007D022802D1002000F034FAD3
:102F600001B000BD00B581B08021C900884202D106
:102F700000F054F804E0C900884201D100F08BFE53
:102F800001B000BD0020704700207047002070474E
:102F900000207047002070470020704700207047D5
:102FA00000B581B067494968002908D08A681300D4
:102FB00001D0904706E0F0310968080000D1FEE733
:102FC0006C48884701B000BD00B581B05D494968D3
:102FD000002908D0CA68130001D0904706E0F031FC
:102FE0000968080000D1FEE76D48884701B000BDC0
:102FF00000B581B053484068002809D0026813002A
:1030000002D00800904707E0F0300168080000D1C6
:10301000FEE780200001884701B000BD00B581B007
:1030200048484068002808D041690A0001D0884714
:1030300006E0F0300168080000D1FEE781488847CB
:1030400001B000BD10B500243E494968002909D0EF
:103050008A69130002D09047040006E0F031096845
:10306000080000D1FEE778488847200010BD10B561
:10307000002434494968002909D0CA69130002D0E4
:103080009047040006E0F0310968080000D1FEE72F
:1030900077488847200010BD10B5002429494968A9
:1030A000002909D00A6A130002D09047040006E004
:1030B000F0310968080000D1FEE77A48884720000F
:1030C00010BD10B508241F494968002909D04A6A73
:1030D000130002D09047040006E0F03109680800B0
:1030E00000D1FEE77C488847200010BD10B50024C1
:1030F00014494968002909D00A6B130002D090478F
:10310000040006E0F0310968080000D1FEE79348AA
:103110008847200010BD10B500240A4949680029DD
:1031200009D04A6B130002D09047040006E0F0314A
:103130000968080000D1FEE795488847200010BDC7
:10314000000000002806002010B5002491494968BD
:10315000002909D08A6B130002D09047040006E0D2
:10316000F0310968080000D1FEE796488847200042
:1031700010BD00000208000000B581B08549496813
:10318000002908D0CA6B130001D0904706E0F03147
:103190000968080000D1FEE79548884701B000BDE6
:1031A0000308000000B581B07A494968002908D0B9
:1031B0000A6C130001D0904707E0F031096808005D
:1031C00000D1FEE781200001884701B000BD00006A
:1031D00010B5704A5268002A08D0536C1C0001D008
:1031E000984710BDF0321168080000D1FEE79548FD
:1031F000884710BD00B581B066494968002908D0EC
:103200008A6C130001D0904706E0F031096808008D
:1032100000D1FEE78C48884701B000BD30B581B0D1
:103220005C4B5B68002B08D0DC6C250001D0A0470C
:1032300006E0F0331968080000D1FEE783488847AC
:1032400001B030BD050800000608000010B5514A65
:103250005268002A08D0536D1C0001D0984710BD59
:10326000F0321168080000D1FEE77948884710BDA8
:103270000708000030B581B00024464A5268002A91
:1032800009D0936D1D0002D09847040006E0F0328B
:103290001168080000D1FEE76E488847200001B0A1
:1032A00030BD00000808000030B581B00024394A64
:1032B0005268002A09D0D36D1D0002D0984704003F
:1032C00006E0F0321168080000D1FEE76248884746
:1032D000200001B030BD00000908000000B581B039
:1032E0002C494968002908D00A6E130001D0904784
:1032F00006E0F0310968080000D1FEE7574888472A
:1033000001B000BD00B581B022494968002908D04C
:103310004A6E130001D0904706E0F03109680800BA
:1033200000D1FEE74E48884701B000BD30B581B0FE
:103330000024184A5268002A09D0936E1D0002D05A
:103340009847040006E0F0321168080000D1FEE75B
:1033500044488847200001B030BD00000C08000040
:1033600030B581B000240B4A5268002A09D0D36ED0
:103370001D0002D09847040006E0F03211680800F2
:1033800000D1FEE744488847200001B030BD00006E
:103390000D0800002806002010B50024484949689F
:1033A000002909D00A6F130002D09047040006E0FC
:1033B000F0310968080000D1FEE74C48884720003A
:1033C00010BD00000E08000000B581B03C494968FE
:1033D000002908D074310A68130001D0904705E035
:1033E000C96F080000D1FEE74148884701B000BD21
:1033F0000F08000000B581B031494968002908D0A4
:1034000078310A68130001D0904705E0896F080001
:1034100000D1FEE73748884701B000BD00B581B054
:1034200027494968002908D07C310A68130001D077
:10343000904705E0496F080000D1FEE72E48884715
:1034400001B000BD110800001208000013080000C0
:1034500015080000160800001708000018080000F2
:10346000190800001A08000030B581B00024144A81
:103470005268002A09D0A03213681D0002D0984774
:10348000040005E0116D080000D1FEE71B488847E5
:10349000200001B030BD00001B08000010B5084A34
:1034A0005268002A08D0A43213681C0001D0984743
:1034B00010BDD16C080000D1FEE71148884710BD4F
:1034C0002806002030B581B00E4B5B68002B08D079
:1034D000A8331C68250001D0A04705E0996C0800BE
:1034E00000D1FEE70848884701B030BD1C08000045
:1034F0001D0800001E0800001F080000280800002A
:1035000029080000280600202A08000010B5002421
:103510001B494968002909D0F0318A69130002D09B
:103520009047040005E00968080000D1FEE7414823
:103530008847200010BD000010B5114A5268002ACB
:1035400008D0F032D3691C0001D0984710BD116833
:10355000080000D1FEE73848884710BD10B5084A7A
:103560005268002A08D0F032136A1C0001D0984734
:1035700010BD1168080000D1FEE73048884710BD33
:103580002806002010B5FE2452494968002909D0B8
:10359000F0310A6B130002D09047040005E009687F
:1035A000080000D1FEE74C488847200010BD00000D
:1035B00010B5FF2447494968002909D0F0314A6B0A
:1035C000130002D09047040005E00968080000D10C
:1035D000FEE742488847200010BD000030B581B0AA
:1035E00000243C4A5268002A09D0F032136C1D00B6
:1035F00002D09847040005E01168080000D1FEE7FA
:1036000037488847200001B030BD000030B581B098
:10361000304B5B68002B08D0F033DC6B250001D009
:10362000A04705E01968080000D1FEE72D4888474B
:1036300001B030BD4208000043080000440800000B
:1036400070B502000C00234D2A8000200026264978
:103650008A4202D1FFF796FC2DE0012A02D1FFF742
:1036600097FC28E021498A4202D1FFF793FC22E02F
:10367000891C8A4202D1FFF78FFC1CE0DC2A02D1B0
:10368000FCF71EFD17E01A498A4202D0891C8A42C3
:1036900002D1FFF779FC0EE008318A4202D0891C82
:1036A0008A4202D1FFF772FC05E0F02A01D0FA2A23
:1036B00001D1FFF773FC6860002809D0A2214900FE
:1036C0004158080004D0002C02D020008847060092
:1036D000300070BD2806002048080000490800009E
:1036E0004C0800004B0800004A1900003E1800007A
:1036F00046190000F0B583B0FEF710FB00F0F2FAB7
:103700000121DC20FFF79CFF0021DC20FFF770FC8B
:10371000DC48FFF759FCDC48FFF742FC002200219F
:103720000020C043FEF7A8FC0121002000F018FB98
:103730000020FFF7EBFE41080020FFF7FDFE002010
:10374000FFF720FF0600C8246400B44022000121D6
:103750000020FFF763FD0020FFF74CFEFA25AD00C7
:103760002800FEF709FB0020FFF758FE2800FEF7AF
:1037700003FB01210020FFF7F1FE220000210020C1
:10378000FFF74CFD0020FFF735FE0020FFF7A6FDF8
:103790002800FEF7F1FA00210020FFF7DFFEBB4C06
:1037A00021000020FFF714FD0020FFF723FE00207A
:1037B000FFF7CAFCA04203D0B548B6490880FEE72F
:1037C0000020FFF79FFD2800FEF7D6FA0020FFF744
:1037D000D3FC0020FFF70EFE0020FFF7B5FC280009
:1037E000FEF7CAFA624201210020FFF76BFE0020BB
:1037F000FFF700FE0020FFF7A7FC2800FEF7BCFA49
:103800000020FFF7CFFC0020FFF7F4FD0020FFF7BA
:103810009BFC2800FEF7B0FA00210020FFF716FD00
:103820009D4C2000FEF7A8FA0020FFF720FC962010
:1038300001010020FFF77AFD2000FEF79DFA00202D
:10384000FFF715FC9621C9000020FFF76FFD20004F
:10385000FEF792FA0020FFF70AFC6F003900002003
:10386000FFF708FD2000FEF787FA962001010020EF
:10387000FFF75CFD2000FEF77FFA0020FFF7F7FB63
:1038800096210901884203D0844882490880FEE7D6
:103890000020FFF701FC6946888039000020FFF70F
:1038A00003FD2000FEF768FA9621C9000020FFF70B
:1038B0003DFD2000FEF760FA0020FFF7D8FB6846C8
:1038C00081880020FFF7F0FC0020FFF765FD002055
:1038D000FFF790FD3800FEF74FFA01210020FFF7B7
:1038E000B5FC2000FEF748FA0020FFF783FC00201B
:1038F000FFF780FD3800FEF73FFAA1000020FFF738
:1039000067FC2000FEF738FA0020FFF745FD002095
:10391000FFF770FD3800FEF72FFA02210020FFF7B5
:103920005DFE009001210020FFF790FC0020FFF7D2
:10393000C8FB0328FAD16420FEF71EFA0098C005E0
:10394000020E04210020FFF761FE2800FEF714FAA2
:103950000020FFF721FD0020FFF74CFD0221002091
:10396000FFF73CFE0099884203D049484949088046
:10397000FEE72800FEF700FA052203210020FFF7EA
:1039800045FE2800FEF7F8F900210020FFF76CFD46
:103990000020FFF7C0FBF04081B20020FFF7E0FC01
:1039A000002803D1C8483B490880FEE70020FFF704
:1039B0009DFBF04081B20020FFF7B8FC002803D146
:1039C000C24834490880FEE70020FFF73BFBF04087
:1039D00081B20020FFF74EFC002803D1BC482D49DE
:1039E0000880FEE70020FFF757FBF04081B200207F
:1039F000FFF75AFC002803D1B64826490880FEE7A5
:103A0000C8210020FFF7E4FB0020FFF7F3FC0020B3
:103A1000FFF79AFBC82803D01D481E490880FEE71F
:103A20003800FEF7A9F931000020FFF71DFD002046
:103A3000FFF75CFBB04081B20020FFF777FC002865
:103A400003D1A24813490880FEE70020FFF763FB7B
:103A5000B04081B20020FFF783FC002803D19A48D0
:103A60000C490880FEE70020FFF7ECFAB04081B275
:103A70000020FFF7FFFB002812D195480549088078
:103A8000FEE700BF833C0008913C000800E7FFFF11
:103A900007A00000380600208813000008A00000DE
:103AA0000020FFF7F9FAB04081B20020FFF7FCFBDD
:103AB000002803D1874888490880FEE7C825C82028
:103AC000B040009001460020FFF782FB0020FFF786
:103AD00091FC0020FFF738FB0099884203D07F4813
:103AE0007D490880FEE70020FFF7F8FB3800FEF76D
:103AF00043F9701C8540A9B20020FFF717FC00288D
:103B000003D1724874490880FEE70020FFF79AFA53
:103B1000C10089B20020FFF7ADFB002803D16C483B
:103B20006D490880FEE70020FFF7B6FAC10089B2B0
:103B30000020FFF7B9FB002803D1664866490880DA
:103B4000FEE700210020FFF781FB2000FEF714F9BB
:103B50000020FFF721FC2000FEF70EF90020FFF700
:103B6000BDFB08210020FFF7FBFB08210020FFF729
:103B7000DDFB08210020FFF77DFB08210020FFF777
:103B800093FB0125B5406D1C2A0001210020FFF7A1
:103B900045FB0020FFF72EFC0020FFF7D5FAA842D6
:103BA00003D04E484C490880FEE70020FFF796FB03
:103BB0002820FEF7E1F802210020FFF7CFFC0122C8
:103BC00001210020FFF72AFB0020FFF713FC002053
:103BD000FFF784FB2820FEF7CFF801220121002007
:103BE000FFF71CFB0020FFF705FC0020FFF776FB2A
:103BF0002820FEF7C1F8012201210020FFF70EFB6B
:103C00000020FFF7F7FB0020FFF768FB2820FEF7F6
:103C1000B3F8012201210020FFF700FB0020FFF78D
:103C2000E9FB0020FFF75AFB00210020FFF796FC7C
:103C3000C821C9000020FFF779FBC82041000020FF
:103C4000FFF78EFBF0256D0029000020FFF712FB27
:103C500029000020FFF728FB3800FEF78DF87D00D3
:103C60000020FFF7A5FC01000020FFF7EFFA280075
:103C7000FEF782F80020FFF78FFB2000FEF77CF8AC
:103C8000EEE700B581B00020FFF7C8FB01B000BD32
:103C900011490880FEE700B581B00020FFF788FCDD
:103CA000002802D00021002000E00121FFF7F6FBF0
:103CB000C820FEF761F880208001094908600720CC
:103CC000FEF718FA01B000BD02A0000001A000003C
:103CD00003A0000004A000003806002007A0000098
:103CE0001404014010B594B01A48016880225205AE
:103CF0000A43026018480168184A0A40C10C11437F
:103D000001600220059000240694012108910F9083
:103D1000109440041190000112901020099005A801
:103D2000FEF704FD002802D00020FFF7B1FF0F20AE
:103D300000900320019002940394049401216846AA
:103D4000FEF77AFF002802D00120FFF7A1FF14B090
:103D500010BD00BF3810024000700040FFE7FFFFB9
:103D600030B587B00C00002808D104211A4A136826
:103D70000B4313601268114000910099050000BFC9
:103D800014A06900405A0190002003900121049181
:103D9000002C06D1029001A91148AA008058FDF715
:103DA000FFFF012C12D10D48029001A90C48AA0076
:103DB0008058FDF7F5FF00BF05A0445D00220F21EC
:103DC00060B2FEF759F960B2FEF770F907B030BD86
:103DD00007000000002000002C100240000021100D
:103DE00000000020F8B401684218446861085118C6
:103DF0008368E40701D54C461B190C3000908A42B9
:103E00002BD01578521C03262E4002D11678F61CB2
:103E1000521C28090F2807D110780F30521C03E0DC
:103E20001778521C1F705B1C761EF9D10028E6D053
:103E30001678521CAF0803253D40032D01D115789B
:103E4000521C2D0275195D1B801CD8D02E786D1C5C
:103E50001E705B1C401ED2D0F8E70098F2BC704781
:103E60000F480168820D0A430260C1680D4A0A408A
:103E7000C26001680C4A0A400260816801229143D5
:103E800081600168094A0A400260C168084A0A4024
:103E9000C26000210161802000050649086070476A
:103EA000001002400C40FF88F6FFF6FEFFFFFBFF0C
:103EB000FFFF02FF08ED00E000000000000000002E
:103EC0000102030406070809030406080C10182061
:103ED000300000007047FEE77047704700B581B0C2
:103EE000FDF742FF01B000BD00B581B08020C000E9
:103EF000FEF7A5F880208001FEF7A1F801B000BD13
:103F000000B581B00248FEF727FA01B000BD0000FD
:103F1000B405002070B40121002313E00468001DE3
:103F20000C4202D04D466D1E64192360241D121FE1
:103F3000042AFAD22500960701D52380AD1C0A4039
:103F400000D02B700268001D002AE7D170BC7047BA
:103F500010B5074979441831064C7C44163404E006
:103F6000081D0A68891888470100A142F8D110BDD0
:103F700008000000240000009DFFFFFFD0000000AB
:103F800070050020000000005DFEFFFF98000000AB
:103F90008C0100000000002000F00BF8002801D088
:103FA000FFF7D6FF0020C046C046FFF7A3FB00F096
:103FB00002F80120704780B500F002F801BDFEE76D
:103FC0000746384600F002F8FBE7FEE780B5C0463A
:103FD000C046024A11001820ABBEFBE726000200D3
:103FE0000148804701480047613E0008F13F000852
:103FF000C046C046C046C046FFF7CEFFFEE7FEE71C
:10400000FEE7FEE7FEE7FEE7FEE7FEE7FEE7FEE788
:10401000FEE7FEE7FEE7FEE7FEE7FEE7FEE7FEE778
:10402000FEE7FEE7100700080050C5000008EF0497
:1040300012F50412FB041200011007C90F0008B5A5
:10404000010008BB0412C10412C70412D30412D722
:104050000412DD0412E30412EF04100C51020008F4
:1040600005040008A1050008C9082C4209401007F2
:10407000D50B0008770C0008910412DF0412E70446
:1040800012F904100B350D0008450E0008711400DC
:10409000087508121344431F0134F10701126B34F1
:1040A00012B13C43390728D20130F309710B40F2B9
:1040B00002E95CF2062B70125B9012610412EB7045
:1040C00092FB2412F50C12CD04123F0412F51CF3DE
:1040D00001010240835B0D14123944123324123F54
:0A40E0000852392C000280841E00F3
:0400000508003FF1BF
:00000001FF
