:020000040800F2
:1000000070050020C13F0008B53E0008B73E00085B
:1000100000000000000000000000000000000000E0
:10002000000000000000000000000000B93E0008D1
:100030000000000000000000BB3E0008BD3E0008BC
:100040000F1D000800000000432E0008472E000886
:100050009F3F0008AB3F0008DD3F0008C93E000895
:1000600000000000DF3F0008E13F0008E33F000818
:10007000E53F0008E73F0008E93F000800000000F6
:10008000EB3F0008ED3F000800000000EF3F0008D4
:10009000E13E0008F13F0008F33F0008F53F00088B
:1000A000F73F0008F93F0008FB3F0008FD3F00084C
:1000B000FF3F00085F48704710B504005E480188A4
:1000C000491C018001F0D8FB01F0A9FC01F089FC7A
:1000D000002C02D101F08AF810BD200000F0AEFF24
:1000E00010BD55480088704754490864704754490A
:1000F0000860704700B581B001F042FD401E8041AC
:10010000C00F01B000BD00B581B001F0F0FC01B03E
:1001100000BD00B581B001F005FD01B000BD00B526
:1001200081B0AA49096C0A0002D0884701B000BD1D
:10013000FEE7F0B581B0414C0820275E25003A3536
:10014000E978002001F006F90820205E002827D079
:10015000A87808280AD0A878092807D02878C007E6
:1001600008D5287808210143297003E00120687030
:1001700001F0B2FC0A20A87001F051FC01F0F5FB7F
:10018000934801F0F7FB934E0020307001F0DDFB47
:100190000820205E0028FBD130780028FCD1278180
:1001A0000820A87001B0F0BD8848008E70478748CD
:1001B000008F70478548408E7047874800787047A9
:1001C000864800787047864870478048C068704706
:1001D0007E48808E70477D48C08E70478148007889
:1001E00070477A48406870477F48007870477F487A
:1001F000007870470020002906D002290AD006D3D3
:1002000004290DD009D37047794840787047784861
:10021000807870477648007870477548C078704796
:100220007348007970477348007870476748C08DFD
:1002300070470000040000204A060020B40500209A
:1002400044060020F0B581B0604C26002836307D91
:10025000092834D10820275E717D002001F07AF84A
:100260000820205E002827D0307D08280AD0307D65
:10027000092807D0B07CC00708D5B07C082101430D
:10028000B17403E00120F07401F026FC0A203075FF
:1002900001F0C5FB01F069FB4D4801F06BFB4D4DD2
:1002A0000020287001F051FB0820205E0028FBD1BF
:1002B00028780028FCD12781082030752AE0307D7D
:1002C000082827D008203075424801F0D5FB0028C7
:1002D00005D1B169080000D1FEE7AB48884701208D
:1002E00001F0C4FA27002137012038710025FD7084
:1002F0000021306801F058FB3D7101F0F8FBB07D42
:10030000717D884203D001F095FCB07D7075B574A5
:10031000E56135829D4861680029616808D54A42D7
:10032000E2611146814201D201200BE0002005E08C
:10033000E161814201D2002004E001200022D24389
:10034000511AE161E16900293DD00227B774317D7E
:1003500008290AD0317D092907D0B07CC00707D50C
:10036000B07C08210143B17402E0F07401F0B4FBE9
:10037000E169002000F0F4FD01F0D4FB00251549EF
:100380000D70256065612069002807D1B07C0128C7
:1003900004D0377521342571607803E03575213438
:1003A00025712078E070E178306801F0FDFA01F005
:1003B000F0FA01F034FB01F0D8FAF189002000F0E6
:1003C00067FD01F0C2FA01B0F0BD0000B4050020E5
:1003D000102700004D060020F0050020EF0500204A
:1003E000000101004C060020F1050020F30500206B
:1003F000D4050020E0050020F0B581B0644CE06831
:10040000009026002836307D092834D10820275E48
:10041000717D002000F09EFF0820205E002827D07C
:10042000307D08280AD0307D092807D0B07CC0076D
:1004300008D5B07C08210143B17403E00120F074B9
:1004400001F04AFB0A20307501F0E9FA01F08DFA5B
:10045000B34801F08FFAB34D0020287001F075FA0F
:100460000820205E0028FBD128780028FCD12781B5
:10047000082030752AE0307D082827D00820307504
:10048000A84801F0F9FA002805D1B169080000D1A7
:10049000FEE73D488847012001F0E8F927002137B1
:1004A000012038710025FD700021306801F07CFAD0
:1004B0003D7101F01CFBB07D717D884203D001F0DD
:1004C000B9FBB07D7075B574E56135822F48616800
:1004D000009A914209DA11466268891AE161814203
:1004E00001D201200DE0002007E06168891AE16176
:1004F000814201D2002004E001200022D243511A9F
:10050000E161E16900293DD00227B774317D0829F6
:100510000AD0317D092907D0B07CC00707D5B07C4F
:1005200008210143B17402E0F07401F0D5FAE169E9
:10053000002000F015FD01F0F5FA002579490D7055
:10054000256065612069002807D1B07C012804D0AE
:10055000377521342571607803E0357521342571B4
:100560002078E070E178306801F01EFA01F011FAAD
:1005700001F055FA01F0F9F9F189002000F088FC4A
:1005800001F0E3F901B0F0BD0EA00000FFFFFF7F16
:10059000B4050020F2B5644C26002836307D0928C9
:1005A00034D10820275E717D002000F0D3FE0820A2
:1005B000205E002827D0307D08280AD0307D092809
:1005C00007D0B07CC00708D5B07C08210143B174C6
:1005D00003E00120F07401F07FFA0A20307501F089
:1005E0001EFA01F0C2F94E4801F0C4F94D4D002049
:1005F000287001F0AAF90820205E0028FBD1287895
:100600000028FCD12781082030752AE0307D082899
:1006100027D008203075434801F02EFA002805D174
:10062000B169080000D1FEE7A2488847012001F027
:100630001DF927002137012038710025FD700021A8
:10064000306801F0B1F93D7101F051FAB07D717D72
:10065000884203D001F0EEFAB07D7075B574E561A3
:10066000358295486168009A914209DA11466268BC
:10067000891AE161814201D201200DE0002007E0EA
:100680006168891AE161814201D2002004E0012001
:100690000022D243511AE161E16900293DD00227CD
:1006A000B774317D08290AD0317D092907D0B07C83
:1006B000C00707D5B07C08210143B17402E0F07493
:1006C00001F00AFAE169002000F04AFC01F02AFA80
:1006D000002514490D70256065612069002807D147
:1006E000B07C012804D0377521342571607803E08F
:1006F0003575213425712078E070E178306801F09B
:1007000053F901F046F901F08AF901F02EF9F18967
:10071000002000F0BDFB01F018F901B0F0BD0000B1
:10072000102700004D060020B4050020F6B581B06A
:100730009D4C26002836307D092834D10820275EBC
:10074000717D002000F006FE0820205E002827D0E2
:10075000307D08280AD0307D092807D0B07CC0073A
:1007600008D5B07C08210143B17403E00120F07486
:1007700001F0B2F90A20307501F051F901F0F5F8F5
:100780008A4801F0F7F88A4D0020287001F0DDF862
:100790000820205E0028FBD128780028FCD1278182
:1007A000082030752AE0307D082827D008203075D1
:1007B0007F4801F061F9002805D1B169080000D136
:1007C000FEE73C488847012001F050F82700213718
:1007D000012038710025FD700021306801F0E4F837
:1007E0003D7101F084F9B07D717D884203D001F044
:1007F00021FAB07D7075B574E5613582684600797F
:1008000000286068029906D088420846616808DBC3
:10081000401A401E06E08842606802DA401A401E14
:1008200000E0401AE061E069002841D00227B77477
:10083000307D08280AD0307D092807D0B07CC00759
:100840000BD5B07C08210143B17406E068460079FD
:10085000F0746846007901F03FF9E169002000F08A
:100860007FFB01F05FF9002551490D70256065613E
:100870002069002807D1B07C012804D037752134C5
:100880002571607803E03575213425712078E0709A
:10089000E178306801F088F801F07BF801F0BFF8EA
:1008A00001F063F8F189002000F0F2FA01F04DF850
:1008B00003B0F0BD0EA00000FFFFFF7F70B53A4C03
:1008C00026003C36F078002816D1082030703848D1
:1008D00001F0D2F8002805D17168080000D1FEE7C8
:1008E000B84888471C3400256572E0792072217A67
:1008F000E06801F059F81DE0012827D10820307088
:100900002B4801F0B9F8002805D17168080000D122
:10091000FEE7AC488847012000F0A8FF1C34012006
:100920006072002525720021E06801F03DF86572D3
:1009300001F0DDF8B0787178884203D001F07AF9DF
:10094000B0787070A5772560A58370BD02282AD184
:1009500008203070164801F08FF8002805D1716822
:10096000080000D1FEE797488847012000F07EFF8D
:100970001C3401206072002525720021E06801F01E
:1009800013F8657201F0B3F8B0787178884203D03B
:1009900001F050F9B0787070A5772560A58301F05B
:1009A00090F80920307070BDB405002010270000B9
:1009B0004D060020F6B581B0B94D2C002834207DBD
:1009C000092834D108202F5E617D002000F0C2FC90
:1009D0000820285E002827D0207D08280AD0207D06
:1009E000092807D0A07CC00708D5A07C08210143B6
:1009F000A17403E00120E07401F06EF80A20207574
:100A000001F00DF800F0B1FFB64800F0B3FF544E0E
:100A10000020307000F099FF0820285E0028FBD1EC
:100A200030780028FCD12F81082020752AE0207D15
:100A3000082827D008202075494801F01DF8002813
:100A400005D1A169080000D1FEE75E488847012072
:100A500000F00CFF2F002137012038710026FE70B6
:100A60000021206800F0A0FF3E7101F040F8A07D59
:100A7000617D884203D001F0DDF8A07D6075A67429
:100A8000EE6126820298002868D0E8610220A074F6
:100A9000207D08280AD0207D092807D0A07CC00727
:100AA0000BD5A07C08210143A17406E068460079BB
:100AB000E0746846007901F00FF8E089A1890E1A08
:100AC000A189081846433000218901F0C9F8470878
:100AD0003000618901F0C4F84008002602993A18F4
:100AE00091420FD26189029848432289511801F03E
:100AF000B7F8022803D3471E02D1012700E00027E0
:100B00002F6103E02F610299081A401EA86101F0CD
:100B100009F813490E702E606E612869002808D10B
:100B2000A07C012805D00220207521352E7168781F
:100B300003E0267521352E712878E870E978206861
:100B400000F032FF00F025FF00F069FF00F00DFF1C
:100B5000E189002000F09CF900F0F7FE03B0F0BD41
:100B60004D06002070B54E4C26003C3608203070F3
:100B70009C4800F081FF002805D17168080000D171
:100B8000FEE759488847012000F070FE1C34012020
:100B90006072002525720021E06800F005FF657293
:100BA00000F0A5FFB0787178884203D001F042F8D8
:100BB000B0787070A5772560A58300F082FF0920CA
:100BC000307070BD0EA00000F1B50F00344E34003F
:100BD0001C343C363078092804D168460078FFF789
:100BE000A8FA28E03078082825D0082030707D4801
:100BF00000F042FF002805D17168080000D1FEE72F
:100C000039488847012000F031FE0120607200253C
:100C100025720021E06800F0C7FE657200F067FFF2
:100C2000B0787178884203D001F004F8B078707021
:100C3000A5772560A583307808280AD03078092860
:100C400007D0A07FC00708D5A07F08210143A17766
:100C500003E0E777380000F03FFF0120A077684607
:100C6000007800F0C2FB01B0F0BD0020002908D0E0
:100C7000854A137B1B0702D4937A012B01D1118083
:100C8000012070470020002908D0804A937A1B0772
:100C900002D4137A012B01D111800120704700008A
:100CA000B405002000B581B00800A8498A78082A58
:100CB00002D08A78092A03D1487000F00DFF06E0BF
:100CC0000878C00703D50878082202430A7001B0EB
:100CD00000BD00209E49486070479D484168C16042
:100CE00070470000102700000EA0000000200B003D
:100CF000082B00DA704730B4964A974CA34206DBC3
:100D00001578002D0ED0557CEB40A3420ADA5389AA
:100D1000994207D3137C1B0702D4937B012B01D18B
:100D20001181012030BC704700200A00083A8B4B2B
:100D30009A420BD2A04A13888B4207D3137A1B071F
:100D400002D49379012B01D15180012070470228F0
:100D500003DA9F4908700120704700207047F1B501
:100D60000F007B4C26002436307E082829D0307EA8
:100D7000092826D0082030761A4800F07DFE002889
:100D800005D1F169080000D1FEE7924888470120AB
:100D900000F06CFD01207070002535700021706836
:100DA00000F002FE757000F0A2FEB07E717E8842F7
:100DB00003D000F03FFFB07E7076B575201D8561D1
:100DC000B58200F07EFE241D0025A5802560A5606B
:100DD00039006846007800F0BDFA01B0F0BD9248D5
:100DE000017070474D06002010B5904C01206071D5
:100DF000652A00DB6422002906D0022908D005D329
:100E000004290BD006D30EE0627010BDA27010BD95
:100E1000227010BDE270207F082806D122711100D7
:100E2000A06800F0C1FD0020607110BD494801704C
:100E300070476948C1857047002044498A78120785
:100E400004D40878042202430A70012070476248E3
:100E5000806A704700B581B008007549486009781C
:100E600000F0A2FD01B000BD724808215A4A3C239F
:100E7000D35C0B42FBD03C23D35C0B4202D0037803
:100E8000002BF4D170470000E4050020E6050020A7
:100E900070B50E002E4C25002C3528780028687C73
:100EA0003BD0092805DB6969080000D1FEE76248EC
:100EB0008847687C00281ED0A97C6A883000C8401A
:100EC000824235DAA87B800706D5E0696269801A1C
:100ED00001228A4090422BD30820205EC0B2802895
:100EE00026D100F097FE00206874A87C2168C140DC
:100EF0002160C6401CE06888B04202D3A87C00286C
:100F00000ED1A87B800713D50120A97C8840E16918
:100F10006269891A88420BD302E0A97C884207D013
:100F200000F088FEA87C68742168814021608640BA
:100F3000B6B2082E01DA082603E0A6498E4200DB8D
:100F40004E1EAE81300000F015FD70BDEE05002094
:100F5000B4050020E005002011270000092700004B
:100F6000F0B50C009C4DE88EA98E0E1AA98E0818BB
:100F700046433000298E00F073FE47083000698E2A
:100F800000F06EFE400839188C420FD2698E4C4337
:100F900020002A8E511800F063FE022803D3471E5A
:100FA00002D1012700E000272F6102E02F61201A03
:100FB000401EA861F0BD0000E805002087480068D9
:100FC000010000D1704700B581B0804701B000BD7D
:100FD0004C0600200EA00000B405002010B5002231
:100FE0007D48026042600281026142618261C261A9
:100FF000030025331A7001002E314A810A73012241
:101000004A730A89DB79002B03D00B88714CA34209
:1010100002DAC988914205D2016C080000D1FEE7CE
:101020006F48884710BD0000F3050020D40500205C
:10103000D80500204D0600200CA00000F0B581B0BE
:101040000400654E350024350920287620880028C4
:1010500007D0297E090702D4A97D012901D1A881E1
:1010600005E0E969080000D1FEE75E48884760882E
:10107000002807D0297E090702D4A97D012901D1C2
:10108000E88105E0E969080000D1FEE75648884795
:10109000A0880100082914DB4E4A914206DB2B7A16
:1010A000002B0ED06B7ED94091420ADA698A8842C1
:1010B00007D3297E090702D4A97D012901D12882FD
:1010C00005E0E969080000D1FEE79F488847E0880D
:1010D000010008399D4A91420AD2298A814207D3E8
:1010E000297E090702D4A97D012901D1688205E082
:1010F000E969080000D1FEE79548884760696860A3
:10110000297800F051FC207A01276F70652800DBF8
:101110006420361D7077607A6F70652800DB64206C
:10112000B077A07A6F70652800DB64203077E17AB1
:101130006F70652900DB6421F177287E082805D1CE
:101140002970686800F030FC00206870207B2872ED
:10115000E0896881607CE876FFF740FF6846217C83
:101160000170287E082827D0287E092824D008204E
:101170002876B44800F080FC002805D1E969080011
:1011800000D1FEE7B0488847012000F06FFB6F7088
:1011900000242C700021686800F006FC6C7000F0E0
:1011A000A6FCA87E697E884203D000F043FDA87E9D
:1011B0006876AC75B461AC8200F083FC0024B48026
:1011C0003460B46068460178002000F0C3F801B0D4
:1011D000F0BD000011270000B405002044060020E7
:1011E00009A0000003A0000004A00000F0B581B039
:1011F000964D2C002434092020760827207E384282
:1012000002D1A07D012803D1F0204000A08105E09B
:10121000E169080000D1FEE78D488847207E38420A
:1012200002D1A07D012803D1F0204000E08105E03B
:10123000E169080000D1FEE786488847608A864950
:10124000884208D2207E384202D1A07D012802D1F6
:10125000481E208205E0E169080000D1FEE73A4817
:101260008847C8204000218A814207D3217E394225
:1012700002D1A17D012901D1608205E0E169080068
:1012800000D1FEE73248884774486060217800F05A
:101290008BFB012666702D1D009514206877667003
:1012A0000F200099887766700A2000990877667089
:1012B00019200099C8770025217E082905D12070C2
:1012C0001921606800F070FB65702672C82060818B
:1012D000E576FFF783FE207E082826D0207E0928A9
:1012E00023D02776574800F0C7FB002805D1E169D5
:1012F000080000D1FEE754488847012000F0B6FA04
:10130000667025700021606800F04EFB657000F08B
:10131000EEFBA07E617E884203D000F08BFCA07EB5
:101320006076A57500988561A58200F0CAFB0099DA
:101330008D8000980560009885600521002000F0F0
:1013400009F801B0F0BD000001A00000092700006D
:1013500002A0000010B50C00414804704470200049
:10136000082840D801A1095C8F4400BF0A2A383EF2
:1013700048525C66700000F04DFC012000F076FAE7
:1013800000F095FB012000F071FA002C01D000F074
:1013900051FC012010BD002301221946104600F027
:1013A000F9FBEAE701230022F7E7002301220121EC
:1013B0000120F4E70123012201210120EFE70123AD
:1013C000002200210020EAE7012300220121012060
:1013D000E5E70023012200210020E0E700230022AE
:1013E00001210120DBE7002010BD10B500F09AFBC1
:1013F0000020144A10701549086048610C00283418
:101400000A69002A08D1A27C012A05D0022222758D
:1014100021310871487803E020752131087108787E
:10142000C870C978206800F0BFFA00F0B2FA00F086
:10143000F6FA00F09AFAE1890020FFF729FD00F0A2
:1014400084FA10BD4D0600200EA00000B405002057
:1014500003A0000004A0000041060000A0860100D7
:10146000F1050020F0B583B0A64C26002836B07DEB
:10147000717D401A0190307D0A28A348007819D167
:10148000002808D00020A04908700820205E00280D
:101490000CD10846D7E101209B490870707D218955
:1014A00001220823181A8240881A2081974800F0E8
:1014B00061FAD2E1002803D1012093490870B9E113
:1014C000002791490F70012001998840616909182E
:1014D0006161F17C0029616810D008186060707D3E
:1014E000218901220823181A824088182081E05E91
:1014F000D901884213DB2089401A0FE0081A606086
:10150000707D218901220823181A8240881A2081BF
:10151000E05E002803D52089D90140182081307D64
:10152000002805D0022800D196E0032860D081E190
:10153000616920690090358A30890004019AD040A1
:10154000B37C0C22134278D1B27C022A02D1A26968
:10155000914272D2B289019BDA40954200DB25E1CB
:10156000B27C022A03D1009A914200D31EE1002DE1
:1015700000D1012521680091290000F071FB00993C
:1015800008182060B648414222688A4228D322685F
:10159000121822606D1CADB222688A4217D32268ED
:1015A000121822606D1CADB222688A420FD32268E5
:1015B000121822606D1CADB222688A4207D32268DD
:1015C000121822606D1CADB222688A42DFD2B08947
:1015D0000199C840A84202DAB5890846C54035825B
:1015E00021342079002800D124E1277120781CE1E2
:1015F000B0890199C84000906069019025002135AB
:101600002879002807D02F712020205CE870E97825
:10161000306800F0C9F9B07C0C2108420DD1B07CD3
:10162000022803D10198A169884206D2B07C012822
:1016300008D10098318A884204DA02203075276088
:101640002134F0E0B07C012800D0F3E0308A00992A
:10165000884200DBEEE029E06169358A7089000488
:10166000019AD040B37C0C22134204D0F289019B32
:10167000DA40AA4207DAB27C022A00D08EE0E269A0
:10168000914200D28AE00825B07C284214D0B07C78
:10169000F7210140B174F07C411E8941C90FF174FA
:1016A000F07C00F019FAB07C400705D4377527604C
:1016B000213427712078B8E0F07D002815D13575E8
:1016C000114800F0D9F9002805D1B169080000D10E
:1016D000FEE764488847250021352F71A878E87017
:1016E000E978306800F060F94CE00228357506486A
:1016F0002FD100F0C1F900280CD1B169080007D141
:10170000FEE700BFB40500204D06002010270000B2
:1017100054488847012000F0A9F825002135012010
:101720002871EF700021306800F03EF92F7100F051
:10173000DEF9B07D717D884203D000F07BFAB07D88
:101740007075B774E761378200F0BBF90920307516
:1017500070E000F091F9002805D1B169080000D1CE
:10176000FEE740488847012000F080F82500213539
:1017700001202871EF700021306800F015F92F71F9
:1017800000F0B5F9B07D717D884203D000F052FAC7
:10179000B07D7075B774E76137824BE0B17C012989
:1017A0000ED1B189019AD140A94209DB03203075DD
:1017B000250021352F7120342078E870E97836E053
:1017C000F189019AD140A94234DA6A461772002D94
:1017D00000D1012521680091290000F041FA00990B
:1017E000081820601E4841426B4608E02268121823
:1017F0002260022D01DB6D1EADB201221A72226839
:101800008A42F3D26846007A002808D0F08901990C
:10181000C840854202DAF5890846C5403582213440
:101820002079002806D027716078E070E178306870
:1018300000F0BAF8307D000704D4318A0020FFF7A9
:1018400027FB0AE0084800F017F9002805D1B16924
:10185000080000D1FEE70348884703B0F0BD000050
:101860000000FFFF0EA000004D06002000B581B073
:1018700000F078FA01B000BDF0B58BB0802189028C
:10188000BD4802680A430260026811400091009955
:101890008021C90202680A43026002681140009177
:1018A00000998021090302680A4302600068014030
:1018B000009100988026F6000696012407940025E2
:1018C000089509949027FF0506A9380000F05CFAF6
:1018D00072B600223100380000F095FBA748066080
:1018E00062B600220121072000F0B2FB072000F0C1
:1018F000C9FB10200190029403950494C44E01A9E1
:10190000300000F041FA40200190029403950494C5
:1019100001A9300000F038FA2002019002940395EA
:10192000049401A9380000F02FFA6602019602948F
:101930000395049401A9380000F026FA0022310032
:10194000380000F060FB0BB0F0BD10B5B84C0220C1
:10195000C0432168086100220821BB4800F053FB06
:101960000021200000F044FC10BDB1480168496A24
:101970000164704770B5050001F0EAF9AC4C266CC3
:10198000A90100F06DF930182064206C21684863CB
:1019900070BD00B581B00421AC4800F015FD1920E0
:1019A00000F0E0F901B000BD30B581B005000C00D9
:1019B00001F0CEF9290000F053F9401EA34DA449CF
:1019C0002960652C00DB6424C862E8606421091B7F
:1019D0004843642100F044F980B22968886301B06B
:1019E00030BD30B589B0994D994828600024AC606D
:1019F0006C60EC602C6160200290069403942800D7
:101A000000F088FC042202A9280000F0FDFD0094EB
:101A100001946946280001F0EDF909B030BD70B5B8
:101A20008AB0834D8B4E2E600024AC601F2068600E
:101A30008948E8602C61280000F05EFB049406945D
:101A400003942868B04209D050200290002202A9D5
:101A5000280000F0AFFD3020029000E00294002248
:101A600002A9280000F0A6FD009401946946280010
:101A700001F0C0F90AB070BD10B572B60078012847
:101A800001D162B610BD0821614800F0B5FA002806
:101A900002D062B6002010BD654C0021200000F08D
:101AA000E3FB62B6200000F07DFB012010BD00B515
:101AB00081B0012251029020C00500F0A4FA01B0CB
:101AC00000BD00B581B00022802189009020C005B2
:101AD00000F099FA01B000BD00B581B0020080218C
:101AE00049009020C00500F08EFA01B000BD30B56D
:101AF00085B08024E400009401200190002102912F
:101B000003909025ED056946280000F03DF972B676
:101B100000222100280000F076FA1848046062B61E
:101B200005B030BD30B585B08024E4009025ED05CA
:101B30002100280000F060FA002819D101222100BC
:101B4000280000F060FA0A2000F00CF900944348E5
:101B500001900120029003906946280000F014F9DA
:101B600006480460072000F0B1FA072000F08AFA66
:101B700005B030BD00000000141002401404014004
:101B800000B581B08021C9009020C00500F034FA72
:101B900001B000BDF0B585B00E0015001F001C4C53
:101BA000002801D0012200E000221021200000F0D6
:101BB0002AFA002E01D0012200E00022402120005C
:101BC00000F021FA1A4800F0EDFA082000900120F8
:101BD00001900021029103906946200000F0D4F8A2
:101BE000002D01D0012200E000220821200000F099
:101BF0000AFA9020C00580214900002F01D001225F
:101C000000E0002200F0FFF9012005B0F0BD000067
:101C10000004004810B50C4C00221021200000F0F8
:101C2000F2F900224021200000F0EDF910BD000083
:101C30007005002000B581B001221021024800F09B
:101C4000E2F901B000BD000000040048F8050020E2
:101C50000004004000400140FFFF00000000211090
:101C60000022030A8B420BD203098B4219D243088C
:101C70008B422ED2411A00D2014652411046704783
:101C8000FF2209023FD012068B4205D3121209022D
:101C90008B4201D31212090203098B4219D300E0CF
:101CA000090AC3098B4201D3CB01C01A52418309EF
:101CB0008B4201D38B01C01A524143098B4201D39D
:101CC0004B01C01A524103098B4201D30B01C01AC8
:101CD0005241C3088B4201D3CB00C01A5241830842
:101CE0008B4201D38B00C01A524143088B4201D36F
:101CF0004B00C01A5241884200D3401A5241CFD201
:101D000001461046704708B501F09CF808BDFEE793
:101D100000B581B01A48016810220A43026003200E
:101D200000F006F800F003F8002001B000BD704795
:101D300010B5040001F037F8FA218900FFF790FF91
:101D400000F0AEF9002221000020C04300F080F92D
:101D5000002010BD0B480168491C0160704709480C
:101D60000068704711B581B0FFF7F9FF0400FFF775
:101D7000F6FF001B01998842F9D302B010BD0000A4
:101D80000020024040060020D0B483B002000B00C7
:101D900000241868002800D1B8E00120A04000907D
:101DA00018680099014002910298002800D1A8E02B
:101DB0005868022801D0122812D1E00880001618B5
:101DC000316A6007C00E6F463871684607790F2088
:101DD000B840814318696F463F79B8400843306284
:101DE000116860006E4630710326684600798640AF
:101DF000F04301401E79B607B60F6F463F79BE40EB
:101E00000E4316605968012905D0022903D0112913
:101E100001D0122910D196680640D9686F463F79E3
:101E2000B940314391605168009EB1435E68F70646
:101E3000FF0FA7400F435760D168084099686E466E
:101E40003679B1400143D1605868C00059D579480E
:101E5000006801210143774801600068C107C90F8C
:101E6000009100987448A10889004018009001680A
:101E7000A007060F0F20B04081439020C00582428A
:101E800001D100200FE06D48824201D101200AE01B
:101E90006B48824201D1022005E06A48824201D1AA
:101EA000032000E00520B040084300990860664820
:101EB0000168029EF04301405E68F60302D50E0001
:101EC00002993143604E3160716801405E68B6032B
:101ED00002D50E00029931435B4E7160B16801403A
:101EE0005E68F60202D50E0002993143564EB1608B
:101EF000F16808405968890202D501000298084338
:101F0000F060641C1868E04000D046E703B0D0BC25
:101F10007047C2B483B0010000224B4B03980028E5
:101F200067D00120904002900398029E06400196DF
:101F30000198002859D056000320B040C6430096AF
:101F4000086806400E60D00880000E18376ABC464C
:101F50005007C70E0F20B84067468743376288682E
:101F6000009E06408E604868029EB0434860C86884
:101F7000009E0640CE6030489608B600801900905A
:101F8000066803271740BF000F20B8403040902656
:101F9000F605B14201D100260FE0284EB14201D131
:101FA00001260AE0264EB14201D1022605E0254E67
:101FB000B14201D1032600E00526BE40B04214D153
:101FC000009806680F20B840864300980660019E7E
:101FD000F0431E6806401E605E6806405E609E68B4
:101FE00006409E60DE683040D860521C0398D040A6
:101FF00097D104B0C0BC704700690840401E8041C2
:10200000C043C00F7047002A01D0816170478162D0
:10201000704742694A40426170470C4A1368034066
:1020200000D1704700B581B0106000F08DFF01B0A5
:1020300000BD0000181002400800014000040048E4
:1020400000080048000C004800040140140401404E
:1020500010B48207D30EFF249C40E2438907090E87
:102060009940030004D51D481B071B0F083B00E0E7
:102070001B489B089B00C01803681A40114301606D
:1020800010BC70470121C006C00E81401548016098
:1020900070470121C006C00E81401348016070479F
:1020A000401E80214904884201D3012070470F4916
:1020B00048600F4802681202120AC0231B0613432D
:1020C00003600020886007220A6070470121C00673
:1020D000C00E814007480160704700001CED00E021
:1020E00000E400E000E100E080E100E010E000E05A
:1020F00020ED00E080E200E030B581B0050001D1C4
:10210000012047E02C003C346078002803D1207087
:10211000280000F0B7FE02206070281D29680B68B7
:102120001E4A914202D01E4DA94206D17025AB43F2
:102130001D0043682B4391420ED0194DA9420BD08C
:10214000244DA94208D0244DA94205D0234DA942CF
:1021500002D0244DA94203D1214D1D40C3682B4319
:102160008025AB4345691D430D608368CB620368DE
:102170008B62914208D0184A914205D0174A914289
:1021800002D0184A914201D10069086301204861D8
:102190006070002001B030BD00000000002C014044
:1021A0000004004010B504003C3402216170016855
:1021B0000A6A0D4B134007D10A6A0C4B134003D136
:1021C0000A6801239A430A6000F088FE00206070CC
:1021D000207010BD0020004000400140004401403C
:1021E000FFFCFFFF00480140111100004404000003
:1021F00010B40A0006D0042908D008290AD00C29F6
:102200000CD010E00268D36802240AE00268D368A8
:10221000042406E00268D368082402E00268D36858
:1022200010241C43D4600268012001238B40116AF2
:1022300099431162116A0B43136230498A4208D0F4
:102240002F498A4205D02F498A4202D02E498A421C
:1022500003D1516CC3030B435364116808431060EE
:10226000002010BC7047000010B40A0006D00429FA
:1022700008D008290AD00C290CD010E00268D368D5
:1022800002240AE00268D368042406E00268D368E6
:10229000082402E00268D3681024A343D3600268D4
:1022A000106A01238B4098431062106A1062134831
:1022B000824208D01248824205D01248824202D09F
:1022C000114882420BD1106A1049014007D1106AAF
:1022D0003849014003D1506C0D4901405164106AE6
:1022E0000A49014007D1106A3249014003D1106800
:1022F000012188431060002010BC7047002C014071
:10230000004001400044014000480140111100001C
:10231000FF7FFFFF30B581B0050001D1012047E00C
:102320002C003C346078002803D12070280000F095
:102330008BFD02206070281D29680B681E4A91429F
:1023400002D03F4DA94206D17025AB431D00436822
:102350002B4391420ED03A4DA9420BD0394DA942A0
:1023600008D0164DA94205D0154DA94202D0154DF1
:10237000A94203D1344D1D40C3682B438025AB4394
:1023800045691D430D608368CB6203688B6291428F
:1023900008D00A4A914205D0094A914202D0094A1E
:1023A000914201D1006908630120486160700020FA
:1023B00001B030BD44040000002C01400040014049
:1023C000004401400048014010B40A0006D004292E
:1023D00008D008290AD00C290CD010E00268D36874
:1023E00002240AE00268D368042406E00268D36885
:1023F000082402E00268D36810241C43D4600268F9
:10240000012001238B40116A99431162116A0B4329
:1024100013620E498A4208D00D498A4205D00D49FF
:102420008A4202D00C498A4203D1516CC3030B4348
:102430005364116808431060002010BC704700000E
:102440000004004000200040FFFCFFFF002C014082
:1024500000400140004401400048014070B50400C4
:10246000206802260169314016D0C168314013D07E
:102470000221C9430161012121778069800703D0CE
:10248000200000F02CF905E0200000F03CFD2000C9
:1024900000F026F9002020772068042501692940F2
:1024A00017D0C168294014D00421C943016126779F
:1024B0008069C0218900014003D0200000F00FF99D
:1024C00005E0200000F01FFD200000F009F90020C9
:1024D0002077206808260169314015D0C168314055
:1024E00012D00821C94301612577C069800703D054
:1024F000200000F0F4F805E0200000F004FD2000CA
:1025000000F0EEF8002020772068102102690A40D0
:1025100017D0C268114014D01021C9430161267739
:10252000C069C0218900014003D0200000F0D7F825
:1025300005E0200000F0E7FC200000F0D1F80020CA
:1025400020772068012102690A4008D0C268114042
:1025500005D00121C9430161200000F0BFF82068C7
:10256000802102690A4008D0C268114005D080214C
:10257000C9430161200000F063FC2068402102692A
:102580000A4008D0C268114005D04021C94301610A
:10259000200000F0A6F82068202102690A4008D037
:1025A000C268114005D02021C9430161200000F01C
:1025B00046FC70BD30B581B004003C342378012B5B
:1025C00001D102201EE00125257002236370002A3C
:1025D00006D0042A08D0082A0AD00C2A0CD00EE013
:1025E000006800F07FF80AE0006800F0B6F806E046
:1025F000006800F0E7F802E0006800F016F9657086
:102600000020207001B030BDF0B581B004000D0095
:1026100027003C373878012801D1022058E00126F4
:102620003E7002207870002A06D0042A15D0082AAD
:1026300027D00C2A36D048E0206800F053F82068F4
:10264000816908220A4382612068816904229143DA
:102650008161206881692A6910E0206800F07DF8B6
:1026600020688169F2020A438261206881691A4AFE
:102670000A408261206881692A6912020A438261E4
:1026800023E0206800F09EF82068C16908220A4310
:10269000C2612068C16904229143C1612068C16997
:1026A0002A6910E0206800F0C0F82068C169F202D1
:1026B0000A43C2612068C169074A0A40C2612068B2
:1026C000C1692A6912020A43C2617E700020387013
:1026D00001B0F0BD00000000FFFBFFFF7047704736
:1026E0007047704770B4026A01239A430262046A19
:1026F0004268856973239D430B682B430225AC43D5
:102700008D6825435E4CA04208D05E4EB04205D095
:102710005D4EB04202D05E4EB0420ED10826B543A7
:102720002E00CD6835430426B543A04208D0554C51
:10273000A04205D0544CA04202D0554CA04205D135
:10274000524C14404E6926438A6932434260836189
:1027500049684163056270BC704770B4026A102317
:102760009A430262026A436884694A4D25400C68B4
:1027700024022C432025AA438D682D011543404A8D
:10278000904208D1802295432E00CA681501354336
:102790004022954308E03B4A904205D03A4A904295
:1027A00002D03B4A904206D13B4A1A404B698E699F
:1027B0001E43B3001343436084614968816305622B
:1027C00070BC704770B4026A344B13400362046AF1
:1027D0004268C56973239D430B682B43304D2540E8
:1027E0008C6824022C43264DA84207D12D4D25404C
:1027F000CC6826022E432C4C344008E0214DA842E0
:1028000005D0214DA84202D0214DA84206D1274D26
:1028100015404A698E69164332012A434260C361FA
:102820004968C163046270BC704730B4026A204BCF
:1028300013400362036A4268C469164D25400C6860
:1028400024022C431B4D1D408B681B032B430C4D56
:10285000A84208D00B4DA84205D00B4DA84202D08B
:102860000B4DA84204D1144D15404A6992012A43E8
:102870004260C46149680164036230BC7047000073
:10288000002C01400040014000440140FFFCFFFFDC
:1028900000480140FF8CFFFFFFF3FFFFFFFEFFFF3B
:1028A000FFFDFFFFFFF7FFFFFFFBFFFFFFCFFFFF76
:1028B000FFEFFFFFFFDFFFFFFFBFFFFFF0B583B0BC
:1028C0000400AE4D2078C0074FD50C206968014048
:1028D000042906D06968084008280AD16868C0033E
:1028E00007D52868800340D5606800283DD10120C5
:1028F00093E16068012804D12868802149020143DE
:1029000015E0002801D128680BE00528286808D1C7
:102910008021C902014329602868802149020143BE
:1029200005E09749014029602868964901402960DF
:102930008027BF02606800280BD0FFF710FA06005E
:102940002868384011D1FFF70AFA801B6528F7D3B1
:1029500060E1FFF704FA06002868384005D0FFF769
:10296000FEF9801B6528F7D354E102272068384020
:1029700017D00C206968014006D069680840082813
:1029800025D16868C00322D42868384002D0E068A6
:102990000128ACD12868F82188432169C900014386
:1029A00029602078000743D5E0690028686A30D0A4
:1029B000012101436962FFF7D2F90600686A3840D5
:1029C00036D1FFF7CCF9801B0328F7D322E1E0686A
:1029D000002828680ED0012101432960FFF7BFF9C4
:1029E000060028683840D5D1FFF7B9F9801B0328C5
:1029F000F7D30FE1012188432860FFF7B0F9060003
:102A000028683840CDD0FFF7AAF9801B0328F7D3F8
:102A100000E1012188436862FFF7A1F90600686AB6
:102A2000384005D0FFF79BF9801B0328F7D3F1E06E
:102A30002078400765D5002069460870F806E969E6
:102A4000014009D1E9690143E961E9690840019060
:102A5000019801206946087071480068C00512D4C9
:102A60006F480068A90D01436D480160FFF777F9D1
:102A700006006B480068C00505D4FFF770F9801B9D
:102A80006528F6D3C6E0A068012809D0002801D146
:102A9000286A0AE00528286A07D10421014329622F
:102AA000286A01210143296206E001218843286246
:102AB000286A042188432862A06800280CD0FFF708
:102AC0004EF90600286A384013D1FFF748F9801BF9
:102AD0009D498842F6D39DE0FFF741F90600286A38
:102AE000384006D0FFF73BF9801B97498842F6D360
:102AF00090E068460078002803D0E86993490140D7
:102B0000E9612078C0061DD5606901283CD1686B59
:102B1000042101436963686B012101436963FFF785
:102B20001EF90600686B384005D1FFF718F9801BC5
:102B30000328F7D36EE0686BF8218843A169C900C8
:102B400001436963206A002866D069680C220A4044
:102B5000082A00D1CBE63F069449022828684CD1C8
:102B600001402960FFF7FBF806002868384026D0AE
:102B7000FFF7F5F8801B0328F7D34BE00010024065
:102B8000FFFFFEFFFFFFFBFF0421C9438842686B84
:102B900002D101406963CEE7042101436963686B98
:102BA000012188436863FFF7DAF80600686B384054
:102BB000C8D0FFF7D4F8801B0328F7D32AE0E86ACF
:102BC0000F218843E16A0143E9626868784901405E
:102BD000A06A0843616A0143696028687908014373
:102BE0002960FFF7BCF806002868384014D1FFF7C9
:102BF000B6F8801B0328F7D30CE001402960FFF7EB
:102C0000AEF806002868384006D0FFF7A8F8801B09
:102C10000328F7D3032000E0002003B0F0BD00003C
:102C200000700040F2B582B00400012561480068E0
:102C3000284088420BD25F480068A84302990143AC
:102C40005C480160006828400299884260D15A4E71
:102C500002202168014005D07168F0229143A268EA
:102C60000A4372602168294040D06168012902D17D
:102C70003068800303E0022903D13068800103D467
:102C800046E03268104043D070680322904301430D
:102C90007160FFF764F8009060680C2701280BD181
:102CA00070683840042821D0FFF759F80099401A7D
:102CB00025498842F4D317E002280BD170683840C8
:102CC000082813D0FFF74BF80099401A1E49884294
:102CD000F4D309E07068384008D0FFF740F8009955
:102CE000401A19498842F5D303202AE00298314955
:102CF0000968294088420DD22E480068A8430299ED
:102D000001432C480160006805400298854201D0CB
:102D1000012016E02078400705D57068274901405A
:102D2000E0680843706000F013F8254972681206E5
:102D3000120F895CC840234908600320FEF7F8FFA2
:102D4000002003B0F0BD000089130000FFFFFFEF7B
:102D500010B588B004A800BF1EA1102200F004F92D
:102D6000684600BF1FA1102200F0FEF8164908684F
:102D70000C220240082A13D10F2204AB840C144009
:102D80001C5D6B46896A0A40995CC00304D50F48F4
:102D9000FEF766FF604304E00D484443200000E076
:102DA0000A4808B010BD074800687047FFFFFFFEE3
:102DB000FFFFC2FF0020024000100240FFF8FFFFAB
:102DC000A43E0008680100200410024000127A00AE
:102DD00000093D0002030405060708090A0B0C0D53
:102DE0000E0F10100102030405060708090A0B0C58
:102DF0000D0E0F1070B402003C321378012B01D17C
:102E000002201AE0012313700224547004686568DC
:102E10007026B5436560046865680E682E43666079
:102E20000468A5688026B543A56000688468496881
:102E30002143816053700020107070BC7047704750
:102E40007047FEE77047FEE700683849884200D0C7
:102E5000704700B587B0022035490A6802430A600E
:102E600009680140009100998021019102900020A1
:102E7000039001200490059001A92E48FEF784FFDD
:102E800007B000BD00682C49884200D0704710B5DB
:102E900086B08020400229490A6802430A60096816
:102EA0000840009000980820019001200290002125
:102EB00003910490224C01A92000FEF765FF002237
:102EC00008212000FFF79FF8002202211420FFF7BD
:102ED000BFF81420FFF7D6F806B010BD00681649F9
:102EE000884200D0704700B581B014480168154A87
:102EF0000A40026008211248FFF70BF81420FFF780
:102F0000C8F801B000BD01680B4A914200D070477B
:102F100000B581B0007F012806D108210848FFF7DD
:102F200078F8002000F05CFA01B000BD0004004019
:102F30001C100240000800480040014018100240E8
:102F400000040048FFFFFEFF00B581B08021C900EA
:102F5000884202D100F06EF804E0C900884201D135
:102F600000F0A5FE01B000BD70B4103A03D378C9DB
:102F7000103A78C0FBD2530701D318C918C001D545
:102F800008C908C0D20704D30B880380891C801CA1
:102F9000002A01D50B78037070BC70470020704781
:102FA00000207047002070470020704700207047C5
:102FB000002070470020704700B581B0674949681C
:102FC000002908D08A68130001D0904706E0F0314C
:102FD0000968080000D1FEE76C48884701B000BDD1
:102FE00000B581B05D494968002908D0CA6813005E
:102FF00001D0904706E0F0310968080000D1FEE7F3
:103000006D48884701B000BD00B581B053484068A5
:10301000002809D00268130002D00800904707E09A
:10302000F0300168080000D1FEE7802000018847E9
:1030300001B000BD00B581B048484068002808D004
:1030400041690A0001D0884706E0F03001680800B5
:1030500000D1FEE78148884701B000BD10B50024CB
:103060003E494968002909D08A69130002D0904777
:10307000040006E0F0310968080000D1FEE7784856
:103080008847200010BD10B5002434494968002944
:1030900009D0CA69130002D09047040006E0F0315D
:1030A0000968080000D1FEE777488847200010BD76
:1030B00010B5002429494968002909D00A6A13007B
:1030C00002D09047040006E0F0310968080000D102
:1030D000FEE77A488847200010BD10B508241F4934
:1030E0004968002909D04A6A130002D090470400B9
:1030F00006E0F0310968080000D1FEE77C48884707
:10310000200010BD10B5002414494968002909D0D9
:103110000A6B130002D09047040006E0F031096802
:10312000080000D1FEE793488847200010BD10B585
:1031300000240A494968002909D04A6B130002D0CB
:103140009047040006E0F0310968080000D1FEE76E
:1031500095488847200010BD000000003806002078
:1031600010B5002491494968002909D08A6B1300E1
:1031700002D09047040006E0F0310968080000D151
:10318000FEE796488847200010BD000002080000B6
:1031900000B581B085494968002908D0CA6B130081
:1031A00001D0904706E0F0310968080000D1FEE741
:1031B0009548884701B000BD0308000000B581B004
:1031C0007A494968002908D00A6C130001D0904759
:1031D00007E0F0310968080000D1FEE78120000116
:1031E000884701B000BD000010B5704A5268002A3F
:1031F00008D0536C1C0001D0984710BDF032116804
:10320000080000D1FEE79548884710BD00B581B0A1
:1032100066494968002908D08A6C130001D090479C
:1032200006E0F0310968080000D1FEE78C488847C5
:1032300001B000BD30B581B05C4B5B68002B08D09D
:10324000DC6C250001D0A04706E0F03319680800C7
:1032500000D1FEE78348884701B030BD0508000073
:103260000608000010B5514A5268002A08D0536D74
:103270001C0001D0984710BDF0321168080000D141
:10328000FEE77948884710BD0708000030B581B0D7
:103290000024464A5268002A09D0936D1D0002D0CE
:1032A0009847040006E0F0321168080000D1FEE7FC
:1032B0006E488847200001B030BD000008080000BB
:1032C00030B581B00024394A5268002A09D0D36D44
:1032D0001D0002D09847040006E0F0321168080093
:1032E00000D1FEE762488847200001B030BD0000F1
:1032F0000908000000B581B02C494968002908D0B0
:103300000A6E130001D0904706E0F031096808000A
:1033100000D1FEE75748884701B000BD00B581B035
:1033200022494968002908D04A6E130001D090470D
:1033300006E0F0310968080000D1FEE74E488847F2
:1033400001B000BD30B581B00024184A5268002A8F
:1033500009D0936E1D0002D09847040006E0F032B9
:103360001168080000D1FEE744488847200001B0FA
:1033700030BD00000C08000030B581B000240B4ABD
:103380005268002A09D0D36E1D0002D0984704006D
:1033900006E0F0321168080000D1FEE74448884793
:1033A000200001B030BD00000D08000038060020EC
:1033B00010B5002448494968002909D00A6F130054
:1033C00002D09047040006E0F0310968080000D1FF
:1033D000FEE74C488847200010BD00000E080000A2
:1033E00000B581B03C494968002908D074310A68A9
:1033F000130001D0904705E0C96F080000D1FEE737
:103400004148884701B000BD0F08000000B581B0F9
:1034100031494968002908D078310A68130001D081
:10342000904705E0896F080000D1FEE737488847DC
:1034300001B000BD00B581B027494968002908D016
:103440007C310A68130001D0904705E0496F0800FD
:1034500000D1FEE72E48884701B000BD11080000EA
:1034600012080000130800001508000016080000EC
:103470001708000018080000190800001A080000CA
:1034800030B581B00024144A5268002A09D0A03215
:1034900013681D0002D09847040005E0116D080074
:1034A00000D1FEE71B488847200001B030BD000076
:1034B0001B08000010B5084A5268002A08D0A43240
:1034C00013681C0001D0984710BDD16C080000D1D2
:1034D000FEE71148884710BD3806002030B581B09E
:1034E0000E4B5B68002B08D0A8331C68250001D068
:1034F000A04705E0996C080000D1FEE7084888471E
:1035000001B030BD1C0800001D0800001E080000AE
:103510001F080000280800002908000038060020C5
:103520002A08000010B500241B494968002909D069
:10353000F0318A69130002D09047040005E0096861
:10354000080000D1FEE741488847200010BD000078
:1035500010B5114A5268002A08D0F032D3691C0015
:1035600001D0984710BD1168080000D1FEE7384827
:10357000884710BD10B5084A5268002A08D0F032BA
:10358000136A1C0001D0984710BD1168080000D1D3
:10359000FEE73048884710BD3806002010B5FE24ED
:1035A00052494968002909D0F0310A6B130002D052
:1035B0009047040005E00968080000D1FEE74C4888
:1035C0008847200010BD000010B5FF244749496816
:1035D000002909D0F0314A6B130002D09047040053
:1035E00005E00968080000D1FEE74248884720004E
:1035F00010BD000030B581B000243C4A5268002A5A
:1036000009D0F032136C1D0002D09847040005E089
:103610001168080000D1FEE737488847200001B054
:1036200030BD000030B581B0304B5B68002B08D056
:10363000F033DC6B250001D0A04705E019680800D5
:1036400000D1FEE72D48884701B030BD4208000098
:10365000430800004408000070B502000C00234D30
:103660002A800020002626498A4202D1FFF796FCD4
:103670002DE0012A02D1FFF797FC28E021498A4278
:1036800002D1FFF793FC22E0891C8A4202D1FFF7A6
:103690008FFC1CE0DC2A02D1FCF70CFD17E01A4974
:1036A0008A4202D0891C8A4202D1FFF779FC0EE0DF
:1036B00008318A4202D0891C8A4202D1FFF772FC8B
:1036C00005E0F02A01D0FA2A01D1FFF773FC686007
:1036D000002809D0A22149004158080004D0002C3C
:1036E00002D0200088470600300070BD3806002058
:1036F00048080000490800004C0800004B08000082
:103700004A1900003E18000046190000F0B583B0C9
:10371000FEF7FEFA00F0F2FA0121DC20FFF79CFF31
:103720000021DC20FFF770FCDC48FFF759FCDC4887
:10373000FFF742FC002200210020C043FEF788FC76
:103740000121002000F0FEFA0020FFF7EBFE410807
:103750000020FFF7FDFE0020FFF720FF0600C82431
:103760006400B440220001210020FFF763FD002027
:10377000FFF74CFEFA25AD002800FEF7F3FA002013
:10378000FFF758FE2800FEF7EDFA01210020FFF7B1
:10379000F1FE220000210020FFF74CFD0020FFF782
:1037A00035FE0020FFF7A6FD2800FEF7DBFA00211A
:1037B0000020FFF7DFFEBB4C21000020FFF714FDC7
:1037C0000020FFF723FE0020FFF7CAFCA04203D031
:1037D000B548B6490880FEE70020FFF79FFD2800A6
:1037E000FEF7C0FA0020FFF7D3FC0020FFF70EFE23
:1037F0000020FFF7B5FC2800FEF7B4FA6242012171
:103800000020FFF76BFE0020FFF700FE0020FFF70F
:10381000A7FC2800FEF7A6FA0020FFF7CFFC002047
:10382000FFF7F4FD0020FFF79BFC2800FEF79AFA53
:1038300000210020FFF716FD9D4C2000FEF792FAB4
:103840000020FFF720FC962001010020FFF77AFD01
:103850002000FEF787FA0020FFF715FC9621C9002B
:103860000020FFF76FFD2000FEF77CFA0020FFF735
:103870000AFC6F0039000020FFF708FD2000FEF76A
:1038800071FA962001010020FFF75CFD2000FEF791
:1038900069FA0020FFF7F7FB96210901884203D05F
:1038A000844882490880FEE70020FFF701FC694652
:1038B000888039000020FFF703FD2000FEF752FA50
:1038C0009621C9000020FFF73DFD2000FEF74AFACF
:1038D0000020FFF7D8FB684681880020FFF7F0FC46
:1038E0000020FFF765FD0020FFF790FD3800FEF790
:1038F00039FA01210020FFF7B5FC2000FEF732FA6B
:103900000020FFF783FC0020FFF780FD3800FEF762
:1039100029FAA1000020FFF767FC2000FEF722FA39
:103920000020FFF745FD0020FFF770FD3800FEF78F
:1039300019FA02210020FFF75DFE0090012100200E
:10394000FFF790FC0020FFF7C8FB0328FAD16420A2
:10395000FEF708FA0098C005020E04210020FFF7C8
:1039600061FE2800FEF7FEF90020FFF721FD002090
:10397000FFF74CFD02210020FFF73CFE0099884232
:1039800003D0494849490880FEE72800FEF7EAF9D4
:10399000052203210020FFF745FE2800FEF7E2F98B
:1039A00000210020FFF76CFD0020FFF7C0FBF04076
:1039B00081B20020FFF7E0FC002803D1C8483B4952
:1039C0000880FEE70020FFF79DFBF04081B2002059
:1039D000FFF7B8FC002803D1C24834490880FEE74D
:1039E0000020FFF73BFBF04081B20020FFF74EFCC8
:1039F000002803D1BC482D490880FEE70020FFF7CE
:103A000057FBF04081B20020FFF75AFC002803D199
:103A1000B64826490880FEE7C8210020FFF7E4FBEE
:103A20000020FFF7F3FC0020FFF79AFBC82803D023
:103A30001D481E490880FEE73800FEF793F9310063
:103A40000020FFF71DFD0020FFF75CFBB04081B2B6
:103A50000020FFF777FC002803D1A2481349088013
:103A6000FEE70020FFF763FBB04081B20020FFF7C4
:103A700083FC002803D19A480C490880FEE7002007
:103A8000FFF7ECFAB04081B20020FFF7FFFB0028FF
:103A900012D1954805490880FEE700BF9B3C00080D
:103AA000A93C000800E7FFFF07A00000480600202F
:103AB0008813000008A000000020FFF7F9FAB040CA
:103AC00081B20020FFF7FCFB002803D1874888491A
:103AD0000880FEE7C825C820B040009001460020BD
:103AE000FFF782FB0020FFF791FC0020FFF738FB77
:103AF0000099884203D07F487D490880FEE7002076
:103B0000FFF7F8FB3800FEF72DF9701C8540A9B2CD
:103B10000020FFF717FC002803D172487449088081
:103B2000FEE70020FFF79AFAC10089B20020FFF7F4
:103B3000ADFB002803D16C486D490880FEE70020EA
:103B4000FFF7B6FAC10089B20020FFF7B9FB0028E1
:103B500003D1664866490880FEE700210020FFF790
:103B600081FB2000FEF7FEF80020FFF721FC20007B
:103B7000FEF7F8F80020FFF7BDFB08210020FFF753
:103B8000FBFB08210020FFF7DDFB08210020FFF7E9
:103B90007DFB08210020FFF793FB0125B5406D1C3C
:103BA0002A0001210020FFF745FB0020FFF72EFC33
:103BB0000020FFF7D5FAA84203D04E484C490880B0
:103BC000FEE70020FFF796FB2820FEF7CBF8022146
:103BD0000020FFF7CFFC012201210020FFF72AFB84
:103BE0000020FFF713FC0020FFF784FB2820FEF7DE
:103BF000B9F8012201210020FFF71CFB0020FFF78C
:103C000005FC0020FFF776FB2820FEF7ABF8012229
:103C100001210020FFF70EFB0020FFF7F7FB00203B
:103C2000FFF768FB2820FEF79DF801220121002004
:103C3000FFF700FB0020FFF7E9FB0020FFF75AFB2E
:103C400000210020FFF796FCC821C9000020FFF7E3
:103C500079FBC82041000020FFF78EFBF0256D00A6
:103C600029000020FFF712FB29000020FFF728FBA6
:103C70003800FEF777F87D000020FFF7A5FC010073
:103C80000020FFF7EFFA2800FEF76CF80020FFF79E
:103C90008FFB2000FEF766F8EEE700B581B000204C
:103CA000FFF7C8FB01B000BD11490880FEE700B571
:103CB00081B00020FFF788FC002802D000210020FE
:103CC00000E00121FFF7F6FBC820FEF74BF880204B
:103CD0008001094908600720FEF7F8F901B000BD2E
:103CE00002A0000001A0000003A0000004A000004A
:103CF0004806002007A000001404014030B591B030
:103D00000024049402250C950D9401200F90A0200E
:103D100080030E9004A8FEF7D1FD002802D00020F9
:103D2000FFF7C2FF07200090019502940394012140
:103D30006846FEF777FF002802D00120FFF7B4FFA6
:103D400011B030BD30B587B00C00002809D18021FA
:103D500009031A4A13680B4313601268114000915B
:103D60000099050014A06900405A019000200390BA
:103D700003210491002C06D1029001A91048AA0049
:103D80008058FEF701F8012C12D10E48029001A9CB
:103D90000B48AA008058FDF7F7FF00BF05A0445D5F
:103DA0000022032160B2FEF753F960B2FEF76AF910
:103DB00007B030BD070000000020000014100240D2
:103DC0000000002000002110F8B401684218446887
:103DD000610851188368E40701D54C461B190C3063
:103DE00000908A422BD01578521C03262E4002D117
:103DF0001678F61C521C28090F2807D110780F30AE
:103E0000521C03E01778521C1F705B1C761EF9D100
:103E10000028E6D01678521CAF0803253D40032D3C
:103E200001D11578521C2D0275195D1B801CD8D04C
:103E30002E786D1C1E705B1C401ED2D0F8E70098D7
:103E4000F2BC70471148016801220A4302604168D0
:103E50000F4A0A40426001680E4A0A400260016847
:103E60000D4A0A40026041680C4A0A404260C16A39
:103E70000F229143C162016B094A0A400263416B00
:103E8000012291434163002181607047001002408C
:103E90000CB8FF08FFFFF6FEFFFFFBFFFFFFC0FFB0
:103EA000ECFEFFFF00000000000000000102030420
:103EB000060708097047FEE77047704700B581B0F4
:103EC000FDF748FF01B000BD00B581B08020C00003
:103ED000FEF7A3F880208001FEF79FF801B000BD37
:103EE00000B581B00248FEF7B9FA01B000BD00008C
:103EF0007005002070B40121002313E00468001D48
:103F00000C4202D04D466D1E64192360241D121F01
:103F1000042AFAD22500960701D52380AD1C0A4059
:103F200000D02B700268001D002AE7D170BC7047DA
:103F300010B5074979441831064C7C44163404E026
:103F4000081D0A68891888470100A142F8D110BDF0
:103F500008000000240000009DFFFFFFE0000000BB
:103F6000700500200000000061FEFFFF94000000CB
:103F70008C0100000000002000F00BF8002801D0A8
:103F8000FFF7D6FF0020C046C046FFF7BFFB00F09A
:103F900002F80120704780B500F002F801BDFEE78D
:103FA0000746384600F002F8FBE7FEE780B5C0465A
:103FB000C046024A11001820ABBEFBE726000200F3
:103FC0000148804701480047453E0008D13F0008AE
:103FD000C046C046C046C046FFF7CEFFFEE7FEE73C
:103FE000FEE7FEE7FEE7FEE7FEE7FEE7FEE7FEE7A9
:103FF000FEE7FEE7FEE7FEE7FEE7FEE7FEE7FEE799
:10400000100700080048B9000008E30412E9041290
:10401000EF041200011007BD0F0008A9010008AF4E
:104020000412B50412BB0412C70412CB0412D1044B
:1040300012D70412E304100C45020008F90300082B
:1040400095050008BD082C4209401007C90B00085F
:104050006B0C0008850412D30412DB0412ED04106B
:104060000B290D0008390E000865140008690812B4
:10407000074443130134F10701125F3412A53C4396
:104080002D0728C3F50030F309650B40F202DD5C13
:10409000F2061F70124F9012550412DF7092EF2437
:1040A00012E90C12C10412330412E91CF202F540A9
:1040B000834F0D14122D44162718123308532D0266
:0640C000180001127A0055
:0400000508003FD1DF
:00000001FF
