:020000040800F2
:1000000070050020A5420008E1410008E341000816
:10001000E5410008E7410008E94100080000000050
:10002000000000000000000000000000EB4100089C
:10003000ED41000800000000EF410008F141000818
:10004000C1420008C5420008C9420008CD4200086C
:10005000D1420008D5420008D9420008DD4200081C
:10006000E1420008E5420008E9420008ED420008CC
:10007000F1420008F5420008F9420008FD4200087C
:100080000143000805430008094300080D43000828
:100090001143000815430008194300081D430008D8
:1000A0002143000825430008294300082D43000888
:1000B0000F420008314300080000000035430008EB
:1000C000394300083D430008414300084543000808
:1000D00000000000494300084D4300085143000858
:1000E000F541000855430008000000000000000032
:1000F0000000000000000000000000000000000000
:1001000000000000000000000000000000000000EF
:100110000000000000000000594300085D43000893
:1001200000000000000000000000000000000000CF
:1001300000000000000000000000000000000000BF
:10014000614300086543000800000000694300089F
:100150006D430008714300087543000879430008A7
:100160007D430008814300080000000000000000FB
:10017000000000000000000000000000000000007F
:100180000000000085430008DFF89C0C704710B5A4
:100190000446DFF8980C0188491C018001F036FD07
:1001A00001F01EFE01F0FCFD002C04BFBDE8104074
:1001B00001F098B92046BDE8104001F0A1B8DFF881
:1001C0006C0C00887047DFF8681C48647047DFF8E3
:1001D000641C0860704700B581B001F0A3FE401EAA
:1001E0008041C00F01B000BD01F056BE01F070BEED
:1001F000DFF83C1C496C0A0018BF0847FEE7000006
:1002000030B5DFF82C4C81B0B4F9085094F83D10AB
:10021000002001F03BFAB4F9080080B394F83C00E8
:1002200008281CBF94F83C0009280AD094F83A002A
:10023000C0070BD594F83A0040F0080084F83A0063
:1002400004E0012084F83B0001F01FFE0A2084F83E
:100250003C0001F0C5FD01F067FD42F2107001F0B5
:1002600068FD002084F8400001F04DFDB4F908005D
:100270000028FBD194F840000028FBD125810820FC
:1002800084F83C0001B030BDDFF8A40B008E70474D
:10029000DFF89C0B008F7047DFF8940B408E70479F
:1002A000DFF88C0B90F83C007047DFF8840B90F877
:1002B0003B007047DFF8CC0C7047DFF8740BC06868
:1002C0007047DFF86C0B808E7047DFF8640BC08ED0
:1002D0007047DFF8B40C00787047DFF8540B4068C3
:1002E0007047DFF84C0B90F83D007047DFF8400B8B
:1002F00090F83F0070470000002004291CD8DFE878
:1003000001F003080D121700DFF8240B90F821000C
:100310007047DFF81C0B90F822007047DFF8100BD5
:1003200090F820007047DFF8080B90F82300704722
:10033000DFF8FC0A90F824007047DFF8F40A90F820
:100340002C007047DFF8E80AC08D704730B5DFF841
:10035000E04A81B094F83C0009283ED1B4F9085035
:1003600094F83D10002001F091F9B4F9080080B331
:1003700094F83C0008281CBF94F83C0009280AD0D7
:1003800094F83A00C0070BD594F83A0040F0080002
:1003900084F83A0004E0012084F83B0001F075FD88
:1003A0000A2084F83C0001F01BFD01F0BDFC42F284
:1003B000107001F0BEFC002084F8400001F0A3FCA6
:1003C000B4F908000028FBD194F840000028FBD1C4
:1003D0002581082084F83C0035E094F83C0008288A
:1003E00031D0082084F83C0004F1400001F025FDE4
:1003F00030B9616C080000D1FEE74AF20E00884770
:10040000012001F001FC012084F8250000210020DA
:1004100084F82400A06A01F0A7FC002084F82500DD
:1004200001F03AFD94F83E0094F83D10884205D062
:1004300001F0C6FD94F83E0084F83D00002084F8E9
:100440003A00E06120876FF0004061680029616830
:1004500007D54942E161814238BF01200BD300201A
:1004600005E0E161814238BF002004D301204FF054
:10047000FF32511AE161E169002950D0022184F86C
:100480003A1094F83C1008291CBF94F83C10092934
:100490000AD094F83A00C0070AD594F83A0040F020
:1004A000080084F83A0003E084F83B0001F0EDFC1A
:1004B000E169002000F0C8FE01F00AFD002084F888
:1004C000400020606061206960B994F83A0001281A
:1004D00008D0022084F83C00002084F8250094F81D
:1004E000220006E0002084F83C0084F8250094F8FF
:1004F000210084F8240094F82410A06A01F034FC50
:1005000001F026FC01F06CFC01F00EFCE18E0020F5
:1005100000F02BFE01B0BDE8304001F0F4BB01B0AB
:1005200030BD000070B5DFF80849E56894F83C007C
:1005300009283ED1B4F9086094F83D10002001F07C
:10054000A5F8B4F9080080B394F83C0008281CBF53
:1005500094F83C0009280AD094F83A00C0070BD55B
:1005600094F83A0040F0080084F83A0004E00120D2
:1005700084F83B0001F089FC0A2084F83C0001F07B
:100580002FFC01F0D1FB42F2107001F0D2FB0020F1
:1005900084F8400001F0B7FBB4F908000028FBD153
:1005A00094F840000028FBD12681082084F83C0004
:1005B00035E094F83C00082831D0082084F83C004D
:1005C00004F1400001F039FC30B9616C080000D141
:1005D000FEE74AF20E008847012001F015FB0120DA
:1005E00084F825000021002084F82400A06A01F08E
:1005F000BBFB002084F8250001F04EFC94F83E007F
:1006000094F83D10884205D001F0DAFC94F83E00E1
:1006100084F83D00002084F83A00E06120876FF004
:1006200000406168A942616807DA691AE1618142A4
:1006300038BF01200CD3002006E0491BE161814254
:1006400038BF002004D301204FF0FF32511AE1617E
:10065000E16900294FD0022184F83A1094F83C1047
:1006600008291CBF94F83C1009290AD094F83A00D4
:10067000C0070AD594F83A0040F0080084F83A0020
:1006800003E084F83B0001F000FCE169002000F089
:10069000DBFD01F01DFC002084F84000206060615B
:1006A000206960B994F83A00012808D0022084F843
:1006B0003C00002084F8250094F8220006E0002089
:1006C00084F83C0084F8250094F8210084F8240084
:1006D00094F82410A06A01F047FB01F039FB01F007
:1006E0007FFB01F021FBE18E002000F03EFDBDE824
:1006F000704001F008BB70BD70B5DFF8344794F866
:100700003C0009280D463ED1B4F9086094F83D102C
:10071000002000F0BBFFB4F9080080B394F83C005F
:1007200008281CBF94F83C0009280AD094F83A0025
:10073000C0070BD594F83A0040F0080084F83A005E
:1007400004E0012084F83B0001F09FFB0A2084F8BC
:100750003C0001F045FB01F0E7FA42F2107001F0B5
:10076000E8FA002084F8400001F0CDFAB4F908005E
:100770000028FBD194F840000028FBD126810820F6
:1007800084F83C0035E094F83C00082831D008207B
:1007900084F83C0004F1400001F04FFB30B9616C7B
:1007A000080000D1FEE74AF20E008847012001F060
:1007B0002BFA012084F825000021002084F8240071
:1007C000A06A01F0D1FA002084F8250001F064FB52
:1007D00094F83E0094F83D10884205D001F0F0FBFB
:1007E00094F83E0084F83D00002084F83A00E0616F
:1007F00020876FF000406168A942616807DA691AD2
:10080000E161814238BF01200CD3002006E0491B82
:10081000E161814238BF002004D301204FF0FF3254
:10082000511AE161E16900294FD0022184F83A10A0
:1008300094F83C1008291CBF94F83C1009290AD0F0
:1008400094F83A00C0070AD594F83A0040F008003E
:1008500084F83A0003E084F83B0001F016FBE169FC
:10086000002000F0F1FC01F033FB002084F8400090
:1008700020606061206960B994F83A00012808D0CE
:10088000022084F83C00002084F8250094F822001F
:1008900006E0002084F83C0084F8250094F821004C
:1008A00084F8240094F82410A06A01F05DFA01F0A5
:1008B0004FFA01F095FA01F037FAE18E002000F0CE
:1008C00054FCBDE8704001F01EBA70BDF0B5DFF811
:1008D000604581B094F83C0009280D4616463ED18B
:1008E000B4F9087094F83D10002000F0CFFEB4F980
:1008F000080080B394F83C0008281CBF94F83C0022
:1009000009280AD094F83A00C0070BD594F83A00A9
:1009100040F0080084F83A0004E0012084F83B002D
:1009200001F0B3FA0A2084F83C0001F059FA01F012
:10093000FBF942F2107001F0FCF9002084F840004D
:1009400001F0E1F9B4F908000028FBD194F8400067
:100950000028FBD12781082084F83C0035E094F87A
:100960003C00082831D0082084F83C0004F1400005
:1009700001F063FA30B9616C080000D1FEE74AF279
:100980000E008847012001F03FF9012084F825007E
:100990000021002084F82400A06A01F0E5F900207D
:1009A00084F8250001F078FA94F83E0094F83D10A0
:1009B000884205D001F004FB94F83E0084F83D0025
:1009C000002084F83A00E0612087002D606806D09E
:1009D000B0426068A6BF301A401E301A05E0B0422F
:1009E0006068BABF801B401E801BE061E069002880
:1009F00051D0022084F83A0094F83C0008281CBF2B
:100A000094F83C0009280AD094F83A00C0070BD5A6
:100A100094F83A0040F0080084F83A0004E084F8C2
:100A20003B50284601F031FAE169002000F00CFC4F
:100A300001F04EFA002084F84000206060612069D7
:100A400060B994F83A00012808D0022084F83C00EC
:100A5000002084F8250094F8220006E0002084F8A5
:100A60003C0084F8250094F8210084F8240094F8D0
:100A70002410A06A01F078F901F06AF901F0B0F9E8
:100A800001F052F9E18E002000F06FFB01B0BDE8EB
:100A9000F04001F038B901B0F0BD10B5DFF8904377
:100AA00094F83F00D8B9082084F83C0004F14000D5
:100AB00001F0C3F930B9616C080000D1FEE74AF2D9
:100AC0000E008847002084F8250094F8230084F85D
:100AD000240094F82410A06A01F046F922E00128CD
:100AE00032D1082084F83C0004F1400001F0A5F95F
:100AF00030B9616C080000D1FEE74AF20E00884769
:100B0000012001F081F8012084F825000021002057
:100B100084F82400A06A01F027F9002084F8250059
:100B200001F0BAF994F83E0094F83D10884205D0DF
:100B300001F046FA94F83E0084F83D00002084F865
:100B40003A00E061208710BD022836D1082084F8E1
:100B50003C0004F1400001F070F930B9616C08000C
:100B600000D1FEE74AF20E008847012001F04CF860
:100B7000012084F825000021002084F82400A06AC8
:100B800001F0F2F8002084F8250001F085F994F8CE
:100B90003E0094F83D10884205D001F011FA94F817
:100BA0003E0084F83D00002084F83A00E061208790
:100BB00001F064F9092084F83C0010BDF0B59C4CAC
:100BC00081B094F83C0009280E4615463FD1B4F98F
:100BD000087094F83D10002000F058FDB4F90800AA
:100BE00088B394F83C0008281CBF94F83C000928FE
:100BF0000AD094F83A00C0070BD594F83A0040F0B8
:100C0000080084F83A0004E0012084F83B0001F079
:100C10003CF90A2084F83C0001F0E2F801F084F885
:100C200042F2107001F085F8002084F8400001F0D5
:100C30006AF800BFB4F908000028FBD194F840001E
:100C40000028FBD12781082084F83C0035E094F887
:100C50003C00082831D0082084F83C0004F1400012
:100C600001F0EBF830B9616C080000D1FEE74AF200
:100C70000E008847012000F0C7FF012084F82500FE
:100C80000021002084F82400A06A01F06DF8002003
:100C900084F8250001F000F994F83E0094F83D1026
:100CA000884205D001F08CF994F83E0084F83D00AC
:100CB000002084F83A00E0612087002D77D0E561BC
:100CC000022084F83A0094F83C0008281CBF94F8ED
:100CD0003C0009280AD094F83A00C0070BD594F8D4
:100CE0003A0040F0080084F83A0004E084F83B60E1
:100CF000304601F0CAF8E08EA18EA28E091A10FAD1
:100D000082F04843218E628EB0FBF1F14908B0FBBE
:100D1000F2F001EB5002954211D2608E228E05FB5B
:100D200000F110FA82F0B1FBF0F0022804D3411E6A
:100D300003D10121216106E00021216103E0A5EB3F
:100D400050002161401EA06101F0C2F8002084F82B
:100D5000400020606061206960B994F83A00012881
:100D600008D0022084F83C00002084F8250094F884
:100D7000220006E0002084F83C0084F8250094F866
:100D8000210084F8240094F82410A06A00F0ECFFFD
:100D900000F0DEFF01F024F800F0C6FFE18E002035
:100DA00000F0E3F901B0BDE8F04000F0ACBF01B0E5
:100DB000F0BD10B51E4C082084F83C0004F1400042
:100DC00001F03BF830B9616C080000D1FEE74AF24F
:100DD0000E008847012000F017FF012084F825004D
:100DE0000021002084F82400A06A00F0BDFF00204C
:100DF00084F8250001F050F894F83E0094F83D1076
:100E0000884205D001F0DCF894F83E0084F83D00FB
:100E1000002084F83A00E061208701F02FF80920D3
:100E200084F83C0010BD0000040000204E060020A5
:100E3000700500204806002070B5DFF84C690446B4
:100E400096F83C0009280D4603D12046FFF7D8F953
:100E500035E096F83C00082831D0082086F83C00A0
:100E600006F1400000F0E9FF30B9716C080000D1D4
:100E7000FEE74AF20E008847012000F0C5FE01207F
:100E800086F825000021002086F82400B06A00F0D2
:100E90006BFF002086F8250000F0FEFF96F83E006C
:100EA00096F83D10884205D001F08AF896F83E0089
:100EB00086F83D00002086F83A00F061308796F809
:100EC0003C0008281CBF96F83C0009280AD096F878
:100ED0003A00C0070BD596F83A0040F0080086F8B3
:100EE0003A0004E086F83B50284600F0CEFF01208F
:100EF00086F83A002046BDE8704000F010BC0020A3
:100F000059B1DFF8842892F83C301B0703D492F8DB
:100F10003A30012B01D1118601207047002059B1D0
:100F2000DFF8642892F83C301B0703D492F83A307B
:100F3000012B01D1518601207047DFF84C0890F851
:100F40003C20082A1CBF90F83C20092A04D180F8D4
:100F50003B10084600F099BF90F83A10C90705D534
:100F600090F83A1041F0080180F83A107047DFF825
:100F70001818002048607047DFF80C084168C1600D
:100F800070470000000101005006002000200829E1
:100F900000DA704730B442F21174A142DFF8E8374A
:100FA00008DB93F82C5095B193F93D5021FA05F2E6
:100FB000A2420CDADA8E914209D393F83C20120750
:100FC00003D493F83A20012A01D19986012030BC3C
:100FD00070470020A1F1080242F209739A420ED232
:100FE000DFF8A427938E8B4209D392F83C301B077D
:100FF00003D492F83A30012B01D1D18601207047F9
:101000000228BDBFDFF8F01B0870012000207047E8
:1010100070B5DFF87467044696F83C0008281CBFDA
:1010200096F83C0009280D4631D0082086F83C008F
:1010300006F1400000F001FF30B9716C080000D1EA
:10104000FEE74AF20E008847012000F0DDFD012096
:1010500086F825000021002086F82400B06A00F000
:1010600083FE002086F8250000F016FF96F83E006B
:1010700096F83D10884205D000F0A2FF96F83E0099
:1010800086F83D00002086F83A00F061308700F0D5
:10109000F5FE002030817060F06029462046BDE8F2
:1010A0007040F3E2DFF8E00680F83F107047000080
:1010B00010B5DFF8D446012084F82500652AA8BFC2
:1010C0006422042919D8DFE801F00306090C120094
:1010D00084F8212010BD84F8222010BD84F820203F
:1010E00010BD84F8232094F83C00082808D184F827
:1010F00024201146A06A00F037FE002084F8250065
:1011000010BDDFF8840680F82C107047DFF87806F1
:10111000C1857047DFF8701691F83C200020120757
:1011200006D491F83A0040F0040081F83A0001201A
:101130007047DFF85406806A70470846DFF84816A3
:10114000886291F8241000F00FBE0000DFF8380626
:1011500090F83C100907FBD590F83C10090703D51F
:1011600090F840100029F3D1704730B5DFF81856D9
:1011700081B095F82C00002895F83D000C4643D02E
:10118000092806DB696C080000D1FEE74AF20C0072
:10119000884795F83D0018B395F83E00E98D24FA8C
:1011A00000F291423EDA95F83A10890707D5E969CD
:1011B0006A69891A012202FA00F0814232D3B5F934
:1011C0000800C0B280282DD100F0ECFE002085F888
:1011D0003D0095F83E002968C1402960C44021E0E7
:1011E000E88DA04202D395F83E0088B995F83A0000
:1011F000800717D595F93E1001208840E9696A6992
:10120000891A88420ED303E095F83E10884209D02F
:1012100000F0D6FE95F83E0085F83D008440296830
:1012200081402960A4B2082CB8BF082405DB42F233
:1012300011718C42A8BF42F210742C87204601B075
:10124000BDE8304000F075BDDFF83C05C28E838EEE
:10125000B0F834C09B1A12FA8CF25A43038EB0F8DD
:1012600032C0B2FBF3F35B08B2FBFCF203EB520CAF
:10127000614512D2428E038E514312FA83F2B1FBC2
:10128000F2F2022A05D3531E04D1012303618261C5
:1012900070470023036182617047A1EB5201036133
:1012A000491E81617047DFF854090068010018BFCA
:1012B00000477047DFF8D0040021016041600181E0
:1012C000016141618161C16180F82510018780F869
:1012D0003A10012180F83B10C18E90F82C2022B1E9
:1012E000C28D42F211739A4202DA828E8A4206D28B
:1012F000416C080000D1FEE74AF209000847704738
:1013000030B50546DFF8804481B0092084F83C0000
:10131000288848B194F83C10090703D494F83A108F
:10132000012901D1208606E0616C080000D1FEE7AA
:101330004AF203008847688848B194F83C100907CE
:1013400003D494F83A10012901D1608606E0616C5B
:10135000080000D1FEE74AF204008847A888082860
:1013600019DB42F21172904208DB94F82C3093B1F1
:1013700094F93D3020FA03F191420CDAE18E884273
:1013800009D394F83C10090703D494F83A100129C2
:1013900001D1A08606E0616C080000D1FEE74AF2A8
:1013A00001008847E888A0F1080142F209729142E1
:1013B0000CD2A18E814209D394F83C10090703D4C2
:1013C00094F83A10012901D1E08606E0616C08002A
:1013D00000D1FEE74AF2020088476869A06294F8EB
:1013E000241000F0C1FC287A012184F8251065281A
:1013F000A8BF642084F82100687A84F82510652845
:10140000A8BF642084F82200A87A84F825106528F3
:10141000A8BF642084F820000120E97A84F8250020
:101420006529A8BF642184F8231094F83C0008289B
:1014300007D184F82410A06A00F096FC002084F8FC
:101440002500287B84F82C00E889E085687C84F8F6
:101450003F00FFF72FFF2D7C94F83C0008281CBFAD
:1014600094F83C00092831D0082084F83C0004F1AD
:10147000400000F0E2FC30B9616C080000D1FEE7EA
:101480004AF20E008847012000F0BEFB012084F8DC
:1014900025000021002084F82400A06A00F064FCEC
:1014A000002084F8250000F0F7FC94F83E0094F842
:1014B0003D10884205D000F083FD94F83E0084F88A
:1014C0003D00002084F83A00E061208700F0D6FC5F
:1014D000002020816060E060294601B0BDE8304016
:1014E000D4E0000010B5A84C092084F83C0094F822
:1014F0003C00000703D494F83A00012803D14FF4CC
:10150000F070208606E0616C080000D1FEE74AF228
:101510000300884794F83C00000703D494F83A008D
:10152000012803D14FF4F070608606E0616C08007A
:1015300000D1FEE74AF204008847E08E40F24161A4
:1015400088420BD294F83C00000703D494F83A0088
:10155000012803D14FF4C860A08606E0616C080042
:1015600000D1FEE74AF201008847A08EB0F5C87F9F
:101570000BD394F83C00000703D494F83A000128F8
:1015800003D14FF4C870E08606E0616C080000D11A
:10159000FEE74AF202008847DFF86406A06294F88A
:1015A000241000F0E1FB012084F82500142084F8C9
:1015B0002100012084F825000F2084F8220001205A
:1015C00084F825000A2084F82000012084F82500F2
:1015D000192084F8230094F83C00082809D1192028
:1015E00084F824001921A06A00F0BEFB002084F8D2
:1015F0002500012084F82C00C820E085002084F814
:101600003F00FFF757FE94F83C0008281CBF94F8F1
:101610003C00092831D0082084F83C0004F1400047
:1016200000F00BFC30B9616C080000D1FEE74AF213
:101630000E008847012000F0E7FA012084F8250019
:101640000021002084F82400A06A00F08DFB002017
:1016500084F8250000F020FC94F83E0094F83D103A
:10166000884205D000F0ACFC94F83E0084F83D00C0
:10167000002084F83A00E061208700F0FFFB0020A2
:1016800020816060E0600521BDE8104010B53E4853
:101690000C4680F83D40082C80F83E403DD8DFE8FD
:1016A00004F005141B1E23282D32370000F07AFCAD
:1016B000012000F0A9FA00F0DAFB012000F0A4FA02
:1016C0000CB100F07DFC012010BD00230122194661
:1016D000104600F02DFCEBE701230022F7E7002382
:1016E000012201210120F4E701230122012101202F
:1016F000EFE70123002200210020EAE70123002276
:1017000001210120E5E70023012200210020E0E77C
:101710000023002201210120DBE7002010BD10B5CD
:1017200000F0D6FB184C002084F840002060606177
:10173000206960B994F83A00012808D0022084F8A2
:101740003C00002084F8250094F8220006E00020E8
:1017500084F83C0084F8250094F8210084F82400E3
:1017600094F82410A06A00F0FFFA00F0F1FA00F0FB
:1017700037FB00F0D9FAE18E0020FFF7F6FCBDE858
:10178000104000F0C0BA000070050020F0B5DFF88E
:10179000744481B094F83E0094F83D10401A94F8D7
:1017A0003C100A291DD194F8400030B1002084F883
:1017B0004000B4F9080068B90DE2012084F8400047
:1017C000012294F83D002189C0F1080002FA00F0DE
:1017D000081A208101B0BDE8F04042F2107000F01C
:1017E000A8BA94F8401019B9012084F84000E7E144
:1017F000002184F840100121636901FA00F2D31836
:10180000636194F83B30002B636812D0D218626099
:1018100094F83D202389C2F108029140C918218122
:10182000B4F90810B1F5806F15DB2189A1F580614D
:1018300010E09A1A626094F83D202389C2F10802F0
:101840009140591A2181B4F90810002903D5218942
:1018500001F58061218194F83C10032900F2B081E8
:10186000DFE811F00400AE01A50070006269236991
:10187000218F258E94F83A602D04C5400C273E42F6
:1018800040F0858094F83A60022E02D1A669B242F7
:101890007DD2A68EC640B14280F2568194F83A605D
:1018A000022E02D19A4280F04F8101B901212268B3
:1018B000B5FBF1F39A1822602268B2F5803F36D367
:1018C000226802F17F4202F57F022260491C2268F1
:1018D000B2F5803F89B223D3226802F17F4202F53C
:1018E0007F022260491C2268B2F5803F89B217D37B
:1018F000226802F17F4202F57F022260491C2268C1
:10190000B2F5803F89B20BD3226802F17F4202F523
:101910007F022260491C2268B2F5803F89B2CFD293
:10192000A28EC2408A42BCBFA18EC140218794F8DA
:101930002500002800F04481002084F8250094F858
:10194000210036E1A58E6669C54094F8250058B19E
:10195000002084F8250094F8200084F8240094F8EE
:101960002410A06A00F000FA94F83A000C21084212
:101970000DD194F83A00022802D1A069864206D21D
:1019800094F83A00012808D1208F854205DA022018
:1019900084F83C000020206007E194F83A00012818
:1019A00040F00E81208FA84280F20A812FE0636907
:1019B000218F628E94F83A501204C2400C263542B0
:1019C00003D0E58EC5408D4208DA94F83A50022DD6
:1019D00040F0B280E569AB42C0F0AE8094F83A00C6
:1019E00000071DD594F83A0000F0F70084F83A009B
:1019F00094F83B00411E8941C90F84F83B1094F8CC
:101A00003B0000F042FA94F83A00400708D4002066
:101A100084F83C00206084F8250094F82100C8E098
:101A200094F83F00D8B9082084F83C0004F1400045
:101A300000F003FA30B9616C080000D1FEE74AF209
:101A40000E008847002084F8250094F8230084F8CD
:101A5000240094F82410A06A00F086F95AE00228C5
:101A600037D1082084F83C0004F1400000F0E5F98B
:101A700030B9616C080000D1FEE74AF20E008847D9
:101A8000012000F0C1F8012084F825000021002089
:101A900084F82400A06A00F067F9002084F825008B
:101AA00000F0FAF994F83E0094F83D10884205D011
:101AB00000F086FA94F83E0084F83D00002084F897
:101AC0003A00E061208700F0D9F9092084F83C0051
:101AD00076E0082084F83C0004F1400000F0ADF905
:101AE00030B9616C080000D1FEE74AF20E00884769
:101AF000012000F089F8012084F825000021002051
:101B000084F82400A06A00F02FF9002084F8250052
:101B100000F0C2F994F83E0094F83D10884205D0D8
:101B200000F04EFA94F83E0084F83D00002084F85E
:101B30003A00E061208743E094F83A30012B0CD161
:101B4000A38EC3408B4208DB032084F83C000020B6
:101B500084F8250094F820002BE0E38EC3408B42EC
:101B60002EDA002301B901212568B2FBF1F25219E6
:101B700022600AE0226802F17F4202F57F022260C1
:101B80000229A4BF491E89B201232268B2F5803F11
:101B9000F0D233B1E28EC2409142BCBFE18EC1406F
:101BA000218794F8250058B1002084F8250094F886
:101BB000220084F8240094F82410A06A00F0D4F8DD
:101BC00094F83C00000706D4218F01B0BDE8F04036
:101BD0000020FFF7CABA04F1400000F02EF948B91E
:101BE000616C080000D1FEE701B0BDE8F0404AF2A8
:101BF0000E00084701B0F0BD500600204806002046
:101C0000A08601007005002000F01CBA10B5DFF8B6
:101C1000BC038CB0016841F4003101604FF4806472
:101C2000016801F4003100910099016841F48021BC
:101C30000160016801F4802100910099016841F47C
:101C40000021016006A9006800F4002000900098BF
:101C500006940120079000200890012009904FF081
:101C6000904000F003FA72B6002221464FF09040F7
:101C700000F026FBD648046062B60022012128202D
:101C800000F04BFB282000F071FB10200190012098
:101C90000290002003900120049001A9CD4C204621
:101CA00000F0E4F94020019001A9012002900020F9
:101CB000039001200490204600F0D8F94FF4807082
:101CC000019001A9012002900020039001200490BE
:101CD0004FF0904000F0CAF94FF40070019001A954
:101CE0000120029000200390012004904FF09040CA
:101CF00000F0BCF900224FF400714FF0904000F06A
:101D0000DFFA0CB010BDB44801686FF004020A613C
:101D10000A6A92060A6A54BF42F0200222F02002A8
:101D20000A62042100F0D6BBAB480168496A01642D
:101D3000704710B5044601F0CAF8A7490A6CE301E0
:101D4000B0FBF3F080180864086C0968886310BD64
:101D500000B581B00421A14800F0B0FC01B05DF8ED
:101D600004EB192000F06EB930B581B004460D4681
:101D700001F0ADF8B0FBF4F09849994A0A60401EB2
:101D8000652DA8BF6425D062C860C5F164025043C8
:101D900064220968B0FBF2F080B2886301B030BD04
:101DA00010B58E4C8E488AB020600020A060606024
:101DB000E06020616020039000200790049020469E
:101DC00000F020FC042203A9204601F0FBF80020CB
:101DD000009002906946204601F090F90AB010BDCB
:101DE00010B57D4C8AB04FF0804020600020A0608C
:101DF0003F2060604FF0FF30E0600020206120460F
:101E000000F0F0FA00200590079004900422502082
:101E1000039003A9204601F099F830200390042292
:101E200003A9204601F092F8002000900290694634
:101E3000204601F063F90AB010BD10B572B6007803
:101E4000012801D162B610BD0821624800F031FAC4
:101E500010B162B6002010BD5F4C0421204600F096
:101E60007BFB62B6204600F018FB012010BD01226A
:101E70004FF400714FF0904000F022BA00224FF46E
:101E800000714FF0904000F01BBA02464FF4807191
:101E90004FF0904000F014BA012010B586B04FF416
:101EA0008064019000940020029069460120039014
:101EB0004FF0904000F0DAF872B6002221464FF061
:101EC000904000F0FDF94248046062B606B010BDD3
:101ED00010B586B04FF480614FF0904000F0E9F902
:101EE000F0B901224FF480614FF0904000F0E8F922
:101EF0000A2000F0A7F83B4801904FF480640120CD
:101F000002900390009469464FF0904000F0AEF8C4
:101F10002F480460282000F04CFA282000F026FA10
:101F200006B010BD4FF480614FF0904000F0C1B991
:101F3000F0B585B0144600280F46264E14BF012286
:101F400000221D461021304600F0BAF9002F14BFC0
:101F5000012200224021304600F0B2F91E4800F074
:101F60009CFA082000906946012001900020029010
:101F700001200390304600F079F8002C14BF0122B4
:101F800000220821304600F09BF9002D14BF0122E9
:101F900000224FF480714FF0904000F091F9012041
:101FA00005B0F0BD10B50B4C00221021204600F00A
:101FB00087F92046BDE810400022402100F080B99A
:101FC00001221021034800F07BB9000014100240E8
:101FD0001404014000040048B8050020FC0500205E
:101FE000000400400000211000B51D4881B00168C8
:101FF00041F010010160032000F082F90F2000F091
:1020000006F800F003F8002001B000BD704710B5DD
:102010000446144800684FF47A71B0FBF1F000F008
:10202000B7F9002221464FF0FF3000F076F900208A
:1020300010BD0D480168491C016070470A480068DE
:102040007047000011B581B0FFF7F8FF4FEA0004B8
:10205000FFF7F4FF0199001B8842F9D302B010BDCD
:102060000020024068010020440600202DE9F04FC6
:1020700081B00C689B4BDFF87082DFF87092002211
:10208000002C4FF00F0A4FF0010B00F0A5800C68F8
:102090000BFA02FC1CEA040E00F099804C68022C3A
:1020A00018BF122C0ED1D40800EB840402F00705EF
:1020B000266AAD000AFA05F7BE430F6907FA05F56F
:1020C000354325625400032506680F79A540ED438A
:1020D00007F003072E40A7403E4306604E68012EDE
:1020E00018BF022E03D0112E18BF122E0ED18668F3
:1020F000CF682E40A7403E438660466826EA0C071C
:102100004E68C6F3001696403E434660D0F80CC0B9
:1021100005EA0C0C8D6805FA04F444EA0C04C4606A
:102120004C68E40053D5D9F8004044F00104C9F8E4
:1021300000404FEA920CD9F8005005F001040094D9
:10214000009C58F82C5002F00304A400B543B0F1F1
:10215000904F08BF00260ED0654EB04208BF012642
:1021600009D0644EB04208BF022604D0624EB0428D
:102170000CBF0326052606FA04F42C4348F82C402D
:102180006FEA0E0C1C684D680CEA0404ED0348BFAE
:102190004EEA04041C605C684D680CEA0404AD035C
:1021A00048BF4EEA04045C609C684D680CEA040475
:1021B000ED0248BF4EEA04049C60DC680CEA040CA3
:1021C0004C68A40248BF4EEA0C0CC3F80CC0521C69
:1021D0000C68D4407FF45BAF01B0BDE8F08F000025
:1021E0002DE9F04F002200293E4BDFF80481DFF893
:1021F000F8904FF00F0A4FF0010B58D00BFA02FE87
:102200001EEA010C4FD003245500AC400568E4439E
:102210002540056002F00707D50800EB8505BF00E3
:102220002E6A0AFA07F7BE432E628568254085604C
:10223000456825EA0E0545604FEA920EC5682C40B8
:10224000C46002F0030459F82E60A4000AFA04F5F1
:102250002E40B0F1904F08BF00270DD0404508BF79
:10226000012709D0234FB84208BF022704D0224FCC
:10227000B8420CBF0327052707FA04F4A64212D17F
:1022800059F82E40AC4349F82E406FEA0C041D6803
:1022900025401D605D6825405D609D6825409D600E
:1022A000DD682C40DC60521C31FA02F4A6D1BDE896
:1022B000F08F00690840401E8041C043C00F704746
:1022C000002A14BF8161816270470C4A136803427F
:1022D00000D1704700B581B0106001F008F801B07E
:1022E00000BD000000040140080001401810024039
:1022F0000004004800080048000C00481404014095
:1023000030490A684FF6FF031A4000F0070042EA1E
:1023100000202D4A10430860704730B4294B1B68D9
:10232000C3F30223C3F10704052C28BF04241D1D99
:10233000072D34BF0023DB1E012505FA04F4641EBB
:102340002140994005FA03F35B1E1A40114309012D
:10235000002807D51D4A00F00F00801800F8041C63
:1023600030BC70471A4A815430BC7047012100F0DC
:102370001F029140174A400942F82010704701217E
:1023800000F01F029140144A400942F820107047A3
:10239000401EB0F1807F01D3012070470F49486093
:1023A000F02081F8130D00208860072008600020CD
:1023B0007047012100F01F029140094A400942F88C
:1023C000201070470CED00E00000FA0518ED00E069
:1023D00000E400E000E100E080E100E010E000E067
:1023E00080E200E030B581B0040008BF012052D087
:1023F00094F83D0020B984F83C00204600F025FF09
:10240000022084F83D00201D2168DFF82C230B6892
:1024100091421EBFB1F1804FDFF82053A94208D18D
:10242000456823F070032B43914218BFB1F1804FF0
:102430000FD0DFF80853A9421CBFDFF80453A942AC
:1024400007D0DFF80053A9421CBFDFF8FC52A942B5
:1024500003D1C56823F440732B43456923F08003FF
:102460002B430B6091428368CB6203688B621CBF75
:10247000DFF8CC22914207D0DFF8C82291421CBF7E
:10248000DFF8C422914201D100690863012048614C
:1024900084F83D00002001B030BD10B50446022094
:1024A00084F83D0041F211122068016A114202BF16
:1024B000016A40F24442114203D1016849084900CF
:1024C0000160204600F0E9FE002084F83D0084F819
:1024D0003C0010BD0C291CD8DFE801F0071B1B1BBA
:1024E0000C1B1B1B111B1B1B16000268D36843F03F
:1024F00002030DE00268D36843F0040308E00268B9
:10250000D36843F0080303E00268D36843F0100384
:10251000D360026801208840116A81431162116A08
:1025200008431062DFF8100282421CBFDFF810027D
:10253000824207D0DFF80C0282421CBFDFF808029B
:10254000824203D1506C40F400405064106840F067
:1025500001001060002070470C291CD8DFE801F052
:10256000071B1B1B0C1B1B1B111B1B1B16000268D4
:10257000D36823F002030DE00268D36823F004035C
:1025800008E00268D36823F0080303E00268D36818
:1025900023F01003D3600268106A012303FA01F1EB
:1025A00088431062106A1062DFF88C0182421CBFFF
:1025B000DFF88C01824207D0DFF8880182421CBF1D
:1025C000DFF8840182420DD1106A41F211110842F4
:1025D00002BF106A40F24441084203D1506C20F41B
:1025E0000040506441F21111106A084202BF106AA3
:1025F00040F24441084203D1106840084000106096
:102600000020704730B581B0040008BF012052D0CF
:1026100094F83D0020B984F83C00204600F0F4FD19
:10262000022084F83D00201D2168DFF80C210B6892
:1026300091421EBFB1F1804FDFF80051A94208D18D
:10264000456823F070032B43914218BFB1F1804FCE
:102650000FD0DFF8E850A9421CBFDFF8E450A942D0
:1026600007D0DFF8E050A9421CBFDFF8DC50A942D8
:1026700003D1C56823F440732B43456923F08003DD
:102680002B430B6091428368CB6203688B621CBF53
:10269000DFF8AC20914207D0DFF8A82091421CBFA0
:1026A000DFF8A420914201D100690863012048614C
:1026B00084F83D00002001B030BD00000C291CD87A
:1026C000DFE801F0071B1B1B0C1B1B1B111B1B1B3B
:1026D00016000268D36843F002030DE00268D36875
:1026E00043F0040308E00268D36843F0080303E002
:1026F0000268D36843F01003D36002680120884069
:10270000116A81431162116A084310620A488242C9
:102710001CBF0B48824205D00A4882421CBF0A48AF
:10272000824203D1506C40F400405064106840F085
:102730000100106000207047002C014000040040A0
:1027400000400140004401400048014010B50446EB
:1027500020680169890716D5C168890713D56FF00C
:102760000201016101212177806910F0030F2046E9
:1027700002D000F091F804E000F0AEFD204600F039
:102780008CF80020207720680169490716D5C168B8
:10279000490713D56FF00401016102212177806997
:1027A00010F4407F204602D000F076F804E000F0FC
:1027B00093FD204600F071F8002020772068016921
:1027C000090716D5C168090713D56FF00801016123
:1027D00004212177C06910F0030F204602D000F0D9
:1027E0005BF804E000F078FD204600F056F8002089
:1027F000207720680169C90616D5C168C90613D5B6
:102800006FF01001016108212177C06910F4407F49
:10281000204602D000F040F804E000F05DFD2046C4
:1028200000F03BF80020207720680169C90708D52F
:10283000C168C90705D56FF001010161204600F0AC
:102840002AF820680169090608D5C168090605D576
:102850006FF080010161204600F075FC206801697D
:10286000490608D5C168490605D56FF040010161E8
:10287000204600F013F82068016989060AD5C1686E
:10288000890607D56FF0200101612046BDE81040A0
:1028900000F058BC10BD704770477047704770B467
:1028A000026A674D520852000262046A42688369F4
:1028B0002B400D682B438D6824F002042C43474DB8
:1028C000A8421CBF5B4EB04205D05B4EB0421CBF5D
:1028D0005A4EB0420CD1CE6824F008043443A842CA
:1028E0001FBF544DA842544DA84224F0040402D006
:1028F000524DA84205D14D6922F440722A438D6998
:102900002A434260836149684163046270BC704736
:1029100070B4026A4B4D22F010020262046A4268EF
:1029200083692B400D6843EA05238D6824F0200459
:1029300044EA0514294DA84207D1CD6824F080044B
:1029400044EA051424F0400407E03A4DA8421FBFB2
:10295000394DA842394DA84206D14D698E6922F4FD
:102960004062354342EA850242608361496881637F
:10297000046270BC704770B4026A314D22F48072F8
:102980000262046A4268C3692B400D682B438D685C
:1029900024F4007444EA0524104DA84207D1CD6800
:1029A00024F4006444EA052424F4806407E0214D03
:1029B000A8421FBF204DA842204DA84206D14D6914
:1029C0008E6922F44052354342EA05124260C361E7
:1029D0004968C163046270BC70470000002C01406C
:1029E00030B4026A174D22F480520262036A4268D0
:1029F000C4692C400D6844EA05248D6823F4005313
:102A000043EA0533104DA8421CBF0A4DA84205D029
:102A1000094DA8421CBF094DA84204D14D6922F4BA
:102A2000804242EA85124260C461496801640362DF
:102A300030BC704700400140004401400048014064
:102A40008CFFFEFFFF8CFFFE002C01402DE9F041C2
:102A5000044682B02078DFF8B054C0075DD56868BE
:102A600000F00C00042807D0686800F00C0008286B
:102A70000ED16868C0030BD52868C0F34040002819
:102A80004BD06068002848D1012002B0BDE8F08139
:102A90006068B0F5803F03D1286840F4803013E0CF
:102AA00008B928680AE0B0F5A02F286806D140F4DC
:102AB00080202860286840F4803005E020F48030D1
:102AC0002860286820F480202860E86AA16800094E
:102AD00041EA0010E862606878B1FFF7AFFA064695
:102AE0002868C0F34040C0B9FFF7A8FA801B6528EA
:102AF000F6D3032002B0BDE8F081FFF79FFA064647
:102B00002868C0F3404040B1FFF798FA801B652861
:102B1000F6D3032002B0BDE8F081207880071AD5F3
:102B2000686810F00C0F07D0686800F00C000828E7
:102B30002CD16868C00329D42868C0F3400000285D
:102B40001CBF206901289FD12868616920F0F80026
:102B500040EAC10028602078000752D5A069DFF85C
:102B6000B473E0B30120C7F88004FFF767FA0646A4
:102B7000686AC0F34000002843D1FFF75FFA801B6A
:102B80000328F5D3032002B0BDE8F0812069DFF807
:102B9000847390B101203860FFF750FA0646286828
:102BA000C0F340000028CFD1FFF748FA801B03286C
:102BB000F5D3032002B0BDE8F0813860FFF73EFA9C
:102BC00006462868C0F340000028C4D0FFF736FA54
:102BD000801B0328F5D3032002B0BDE8F081C7F8BD
:102BE0008004FFF72BFA0646686AC0F3400040B144
:102BF000FFF724FA801B0328F6D3032002B0BDE8B8
:102C0000F0812078400770D5E8690027C00009D41A
:102C1000E86940F08050E8610127E86900F08050E1
:102C200000900098DFF8F082D8F80000C00516D4B4
:102C3000D8F8000040F48070C8F80000FFF7FEF9F3
:102C40004FEA0006D8F80000C00508D4FFF7F6F9EF
:102C5000801B6528F6D3032002B0BDE8F081E06850
:102C6000012803D1286A40F0010012E008B9286A5F
:102C700009E00528286A06D140F004002862286A85
:102C800040F0010005E0400840002862286A20F07A
:102C900004002862E06888B1FFF7D0F9064641F2E7
:102CA0008938286AC0F34000D0B9FFF7C7F9801B04
:102CB0004045F6D3032002B0BDE8F081FFF7BEF92E
:102CC000064641F28938286AC0F3400040B1FFF758
:102CD000B5F9801B4045F6D3032002B0BDE8F08172
:102CE0001FB1E86920F08050E861E069002847D012
:102CF000696801F00C0108293FF4C6AE0228DFF82C
:102D000014722BD100203866FFF798F90646286820
:102D1000C0F3406040B1FFF791F9801B0328F6D360
:102D2000032002B0BDE8F0816868616A20F4741085
:102D30000843216A0843686001203866FFF77EF97E
:102D400006462868C0F34060D0B9FFF777F9801BCA
:102D50000328F6D3032002B0BDE8F08100203866D6
:102D6000FFF76CF906462868C0F3406040B1FFF7F2
:102D700065F9801B0328F6D3032002B0BDE8F0817B
:102D8000002002B0BDE8F0812DE9F041634E044619
:102D90003068884600F00700404509D23068C00816
:102DA00048EAC0003060306800F00700404568D154
:102DB0002078554F800705D57868A16820F0F0008D
:102DC000084378602078C0074CD56068012803D19B
:102DD0003968C1F3404104E00228396805D1C1F3E4
:102DE000406131B90120BDE8F081C1F34001002903
:102DF00047D07968890840EA81007860FFF71EF9BA
:102E00000546606801280ED1786800F00C0004289F
:102E100028D0FFF713F9401B41F289318842F3D3E0
:102E20000320BDE8F08102280ED1786800F00C0084
:102E3000082817D0FFF702F9401B41F28931884278
:102E4000F3D30320BDE8F081786810F00C0F09D0AF
:102E5000FFF7F4F8401B41F289318842F4D3032094
:102E6000BDE8F081306800F0070080450CD2306882
:102E7000C00848EAC0003060306800F007004045F4
:102E800002D00120BDE8F0812078400705D57868A0
:102E9000E16820F4E060084378602078000706D5F8
:102EA0007868216920F4605040EAC100786000F041
:102EB0000EF87A681A49C2F30312515CC8401449EB
:102EC00008600F20FFF7A3F80020BDE8F081154847
:102ED000016801F00C02082A14D10FF25002C1F36C
:102EE0008343C9039A5C806A09D50FF250030749EE
:102EF00000F00F00C05CB1FBF0F0504370470A488F
:102F000050437047014870470010024000127A0099
:102F10006801002000004242007000400020024092
:102F2000904100080410024000093D00020304051E
:102F3000060708090A0B0C0D0E0F101001020304FE
:102F400005060708090A0B0C0D0E0F1010B50446F4
:102F500094F83C00012801D1022010BD012084F822
:102F60003C000220142A84F83D0023D8DFE802F058
:102F70000B2222220F222222132222221722222275
:102F80001B2222221F002068FFF789FC12E0206824
:102F9000FFF7BEFC0EE02068FFF7EDFC0AE02068BA
:102FA000FFF71EFD06E0206800F0CEF802E0206882
:102FB00000F0F4F8012084F83D00002084F83C0083
:102FC00010BD000030B5044681B094F83C000128E3
:102FD0000D4608BF022000F08F80012084F83C00DD
:102FE0000220142A84F83D0000F28080DFE802F01D
:102FF0000B7E7E7E1E7E7E7E327E7E7E457E7E7E49
:10300000597E7E7E6B002068FFF749FC206881694D
:1030100041F0080181612068816921F0040181612A
:10302000206881692A69114381615FE02068FFF7A8
:103030006FFC2068816941F40061816120688169C9
:1030400021F480618161206881692A6941EA022155
:1030500081614BE02068FFF78EFC2068C16941F078
:103060000801C1612068C16921F00401C1612068C3
:10307000C1692A691143C16138E02068FFF7B0FCDB
:103080002068C16941F40061C1612068C16921F40F
:103090008061C1612068C1692A6941EA0221C16178
:1030A00024E0206800F050F82068416D41F00801EC
:1030B00041652068416D21F0040141652068416D42
:1030C0002A69114311E0206800F068F82068416D1A
:1030D00041F4006141652068416D21F480614165E2
:1030E0002068416D2A6941EA02214165012084F886
:1030F0003D00002084F83C0001B030BD30B490F8B1
:103100003C20012A08BF02201AD0012280F83C206E
:10311000374D026853689468AA4203D14D6823F47E
:1031200070032B438D68096823F0700324F080043A
:1031300019432C4351609460002180F83C1000201A
:1031400030BC70477047704730B4026A294D22F492
:1031500080320262036A4268446D2C400D682C4341
:103160008D6823F4003343EA0543214DA8421CBF78
:10317000214DA84205D0214DA8421CBF204DA84298
:1031800004D14D6922F4803242EA0522426044654E
:1031900049688165036230BC7047000030B4026A40
:1031A000184D22F480120262036A4268446D2C407A
:1031B0000D6844EA05248D6823F4001343EA05539F
:1031C0000B4DA8421CBF0C4DA84205D00B4DA84288
:1031D0001CBF0B4DA84204D14D6922F4802242EA63
:1031E0008522426044654968C165036230BC70470E
:1031F000002C01408FFFFEFF0040014000440140D1
:1032000000480140FF8FFFFE00682F49884200D030
:10321000704700B52D4887B0016841F00201016098
:1032200001A9006800F00200009000988020019041
:1032300002200290002003900120049002200590BB
:103240002348FEF713FF07B000BD0068B0F1804FC0
:1032500000D0704700B51D4887B0016841F00101FA
:10326000016001A9006800F00100009000980820AA
:10327000019002200290002003900120049005900C
:103280001448FEF7F3FE002202211C20FFF745F848
:103290001C20FFF76BF807B000BD00B581B00068D7
:1032A000B0F1804F0ED1094801684908490001601A
:1032B00008210848FEF794FF01B05DF804EB1C20DC
:1032C000FFF75DB801B000BD000400401C100240D3
:1032D00000080048000400480168B1F1804F05D1A2
:1032E000007F022804BF002000F00EBA7047B0F53E
:1032F000806F08BF00F045B8B0F5005F08BF00F070
:103300004ABE704700207047002070470020704779
:103310000020704700207047002070470020704751
:10332000DFF86015496839B18A68130018BF104783
:10333000D1F8F010080000D1FEE740F6020008477F
:10334000DFF84015496839B1CA68130018BF104743
:10335000D1F8F010080000D1FEE740F6030008475E
:10336000DFF82005406840B1026813001CBF084622
:103370001047D0F8F010080000D1FEE74FF40060CD
:103380000847DFF80005406838B141690A0018BFF6
:103390000847D0F8F010080000D1FEE740F605001D
:1033A000084710B5DFF8DC144968002451B18A6978
:1033B000130003D090470446204610BDD1F8F0100A
:1033C000080000D1FEE740F606008847204610BD01
:1033D00010B5DFF8B0144968002451B1CA69130070
:1033E00003D090470446204610BDD1F8F0100800E5
:1033F00000D1FEE740F607008847204610BD10B513
:10340000DFF880144968002451B10A6A130003D020
:1034100090470446204610BDD1F8F010080000D1B6
:10342000FEE740F608008847204610BD10B5DFF8DB
:1034300054144968082451B14A6A130003D09047D4
:103440000446204610BDD1F8F010080000D1FEE778
:1034500040F609008847204610BD10B5DFF8241457
:103460004968002451B10A6B130003D09047044609
:10347000204610BDD1F8F010080000D1FEE740F65C
:103480000C008847204610BD10B5DFF8F8134968D6
:10349000002451B14A6B130003D0904704462046E4
:1034A00010BDD1F8F010080000D1FEE740F60D0085
:1034B0008847204610BD10B5DFF8C81349680024BE
:1034C00051B18A6B130003D090470446204610BDCB
:1034D000D1F8F010080000D1FEE740F60E00884752
:1034E000204610BDDFF89C13496839B1CA6B130040
:1034F00018BF1047D1F8F010080000D1FEE740F6E1
:103500000F000847DFF87C13496839B10A6C1300D3
:1035100018BF1047D1F8F010080000D1FEE74FF4B3
:103520000160084710B4DFF85C2381B052684AB1EB
:10353000536C1C0002D001B010BC1847D2F8F01038
:10354000080000D1FEE701B010BC40F611000847AA
:10355000DFF83013496839B18A6C130018BF10477F
:10356000D1F8F010080000D1FEE740F6120008473D
:1035700030B5DFF8103381B05B684BB1DC6C2500EF
:1035800002D0A04701B030BDD3F8F010080000D140
:10359000FEE701B0BDE8304040F61300084710B424
:1035A000DFF8E02281B052684AB1536D1C0002D0AE
:1035B00001B010BC1847D2F8F010080000D1FEE7A7
:1035C00001B010BC40F61500084730B5DFF8B42252
:1035D00081B0526800245AB1936D1D0004D0984701
:1035E0000446204601B030BDD2F8F010080000D1EA
:1035F000FEE740F616008847204601B030BD30B5E2
:10360000DFF8802281B0526800245AB1D36D1D00CA
:1036100004D098470446204601B030BDD2F8F010DF
:10362000080000D1FEE740F617008847204601B0A9
:1036300030BDDFF85012496839B10A6E130018BF67
:103640001047D1F8F010080000D1FEE740F618004E
:103650000847DFF83012496839B14A6E130018BFC5
:103660001047D1F8F010080000D1FEE740F619002D
:10367000084730B5DFF80C2281B0526800245AB1F7
:10368000936E1D0004D098470446204601B030BD1B
:10369000D2F8F010080000D1FEE740F61A00884783
:1036A000204601B030BD30B5DFF8D82181B0526876
:1036B00000245AB1D36E1D0004D09847044620461A
:1036C00001B030BDD2F8F010080000D1FEE740F69E
:1036D0001B008847204601B030BD10B5DFF8A411AB
:1036E0004968002451B10A6F130003D09047044683
:1036F000204610BDD1F8F010080000D1FEE740F6DA
:103700001C008847204610BDDFF87811496839B1A0
:103710004A6F130018BF1047D1F8F010080000D10D
:10372000FEE740F61D000847DFF85811496839B137
:103730008A6F130018BF1047D1F8F010080000D1AD
:10374000FEE740F61E000847DFF83811496839B136
:10375000CA6F130018BF1047D1F8F010080000D14D
:10376000FEE740F61F00084730B5DFF8182181B0AA
:103770005268002462B1D2F8A0301D0004D09847EE
:103780000446204601B030BDD2F8F010080000D148
:10379000FEE740F628008847204601B030BD10B44F
:1037A000DFF8E02081B0526852B1D2F8A4301C009A
:1037B00002D001B010BC1847D2F8F010080000D1B8
:1037C000FEE701B010BC40F62900084730B5DFF82D
:1037D000B43081B05B6853B1D3F8A840250002D063
:1037E000A04701B030BDD3F8F010080000D1FEE7CB
:1037F00001B0BDE8304040F62A00084710B5214925
:103800004968002459B1D1F80821130003D090472A
:103810000446204610BDD1F8F010080000D1FEE7A4
:1038200040F642008847204610BD10B4154A81B0CA
:10383000526852B1D2F80C311C0002D001B010BC59
:103840001847D2F8F010080000D1FEE701B010BC14
:1038500040F64300084710B40A4A81B0526852B19A
:10386000D2F810311C0002D001B010BC1847D2F8B9
:10387000F010080000D1FEE701B010BC40F6440093
:10388000084700003C06002010B5DFF85C114968CD
:10389000FE2459B1D1F82021130003D090470446EB
:1038A000204610BDD1F8F010080000D1FEE740F628
:1038B00048008847204610BD10B5DFF82C11496834
:1038C000FF2459B1D1F82421130003D090470446B6
:1038D000204610BDD1F8F010080000D1FEE740F6F8
:1038E00049008847204610BD30B53F4A81B0526834
:1038F000002462B1D2F830311D0004D0984704464C
:10390000204601B030BDD2F8F010080000D1FEE72B
:1039100040F64C008847204601B030BD30B5324BF0
:1039200081B05B6853B1D3F82C41250002D0A04789
:1039300001B030BDD3F8F010080000D1FEE701B0AF
:10394000BDE8304040F64B00084770B50C46264EA7
:10395000002541F64A118842308002D1FFF7D2FC9F
:1039600034E0012802D1FFF7D3FC2FE041F63E01FD
:10397000884202D1FFF7CEFC28E0B0F5C25F02D149
:10398000FFF7CAFC22E0DC2802D1FCF7FDFB1DE0BA
:1039900041F6461188421CBF41F64811884202D1C7
:1039A000FFF7B2FC12E041F6501188421CBF41F60D
:1039B0005211884202D1FFF7A9FC07E0F02818BF96
:1039C000FA2802D1FFF7AAFC00E00020706040B1A5
:1039D000D0F84411080018BF002C02D020468847B8
:1039E0000546284670BD00003C060020F0B581B0B9
:1039F000FEF7FAFA00F0EEFA0121DC20FFF7A5FF4E
:103A00000021DC20FFF7ACFC0FF27D50FFF798FCA3
:103A10000FF27D50FFF784FC002200214FF0FF30B1
:103A2000FEF77BFC0121002000F036FB0020FFF7B1
:103A3000E5FE41080020FFF7F8FE0020FFF724FF15
:103A400004464FF4C87000FA04F52A46012100200C
:103A5000FFF78EFD0020FFF767FE4FF47A70FEF748
:103A6000F1FA0020FFF770FE4FF47A70FEF7EAFAE1
:103A700001210020FFF7EFFE2A4600210020FFF77A
:103A800077FD0020FFF750FE0020FFF7D2FD4FF436
:103A90007A70FEF7D7FA00210020FFF7DCFEDFF88E
:103AA000285529460020FFF73DFD0020FFF73CFE8A
:103AB0000020FFF700FDA84205D0DFF810154AF2FC
:103AC00007000880FEE70020FFF7C3FD4FF47A707F
:103AD000FEF7B8FA0020FFF705FD0020FFF724FEEF
:103AE0000020FFF7E8FC4FF47A70FEF7ABFA4FF4D2
:103AF000C85201210020FFF769FE0020FFF714FEE5
:103B00000020FFF7D8FC4FF47A70FEF79BFA0020F4
:103B1000FFF7F8FC0020FFF707FE0020FFF7CBFCC3
:103B20004FF47A70FEF78EFA00210020FFF737FD80
:103B300041F288352846FEF785FA0020FFF748FC59
:103B40004FF416610020FFF794FD2846FEF77AFA3D
:103B50000020FFF73DFC4FF496610020FFF789FD40
:103B60002846FEF76FFA0020FFF732FC4FF4FA61A7
:103B70000020FFF72AFD2846FEF764FA4FF416618D
:103B80000020FFF776FD2846FEF75CFA0020FFF7DD
:103B90001FFCB0F5166F05D0DFF830144AF20800AC
:103BA0000880FEE70020FFF72AFC06464FF4FA6182
:103BB0000020FFF724FD2846FEF744FA4FF49661F3
:103BC0000020FFF756FD2846FEF73CFA0020FFF7DD
:103BD000FFFB31460020FFF712FD0020FFF77DFDBF
:103BE0000020FFF7A1FD4FF4FA60FEF72BFA012148
:103BF0000020FFF7D4FC2846FEF724FA0020FFF748
:103C0000A7FC0020FFF790FD4FF4FA60FEF71AFAC8
:103C100044F620610020FFF785FC2846FEF712FAE3
:103C20000020FFF75AFD0020FFF77EFD4FF4FA60F9
:103C3000FEF708FA02210020FFF756FE0646012192
:103C40000020FFF7ACFC0020FFF7F0FB0328FAD1BF
:103C50006420FEF7F7F9F005020E04210020FFF7BB
:103C60005DFE4FF47A70FEF7EDF90020FFF735FDA9
:103C70000020FFF759FD02210020FFF735FEB0427A
:103C800004D0D2494AF207000880FEE74FF47A7068
:103C9000FEF7D8F9052203210020FFF73FFE4FF47D
:103CA0007A70FEF7CFF900210020FFF75DFD0020BC
:103CB000FFF7EAFBE04081B20020FFF7F4FC20B9F7
:103CC000C2494AF202000880FEE70020FFF7C5FB68
:103CD000E04081B20020FFF7CCFC20B9BB494AF29A
:103CE00001000880FEE70020FFF75BFBE04081B2A7
:103CF0000020FFF76AFC20B9B4494AF203000880AB
:103D0000FEE70020FFF77BFBE04081B20020FFF7D9
:103D100076FC20B9AD494AF204000880FEE7C821CC
:103D20000020FFF7FFFB0020FFF7FEFC0020FFF75D
:103D3000C2FBC82804D0A5494AF207000880FEE764
:103D40004FF4FA60FEF77EF921460020FFF70CFDE4
:103D50000020FFF782FBA04081B20020FFF789FC22
:103D600020B99A494AF201000880FEE70020FFF7D7
:103D70008BFBA04081B20020FFF795FC20B993494E
:103D80004AF202000880FEE70020FFF70AFBA0408D
:103D900081B20020FFF719FC20B98C494AF20300D8
:103DA0000880FEE70020FFF72AFBA04081B2002038
:103DB000FFF725FC20B985494AF204000880FEE798
:103DC000C82606FA04F739460020FFF7ABFB0020AF
:103DD000FFF7AAFC0020FFF76EFBB84204D07B4936
:103DE0004AF207000880FEE70020FFF722FC4FF4AC
:103DF000FA60FEF727F9601C06FA00F081B2002095
:103E0000FFF737FC20B971494AF201000880FEE74C
:103E10000020FFF7C6FAC10089B20020FFF7D5FBEA
:103E200020B96A494AF203000880FEE70020FFF744
:103E3000E6FAC10089B20020FFF7E1FB20B963492F
:103E40004AF204000880FEE700210020FFF7A7FBEC
:103E50002846FEF7F7F80020FFF73FFC2846FEF75C
:103E6000F1F80020FFF7E5FB08210020FFF71BFC1D
:103E700008210020FFF7FDFB08210020FFF7A5FB2C
:103E800008210020FFF7BBFB0120A040441C224674
:103E900001210020FFF76CFB0020FFF745FC00200C
:103EA000FFF709FBA04204D048494AF20700088006
:103EB000FEE70020FFF7BDFB2820FEF7C3F8022134
:103EC0000020FFF7C8FC012201210020FFF750FB72
:103ED0000020FFF729FC0020FFF7ABFB2820FEF7AE
:103EE000B1F8012201210020FFF742FB0020FFF77B
:103EF0001BFC0020FFF79DFB2820FEF7A3F8012202
:103F000001210020FFF734FB0020FFF70DFC00200B
:103F1000FFF78FFB2820FEF795F8012201210020F2
:103F2000FFF726FB0020FFF7FFFB0020FFF781FBD8
:103F300000210020FFF78FFC4FF4C8610020FFF73D
:103F400098FB4FF4C8710020FFF7ADFB4FF4F07100
:103F50000020FFF73AFB4FF4F0710020FFF74FFB12
:103F60004FF4FA60FEF76EF80020FFF7A5FC01465B
:103F70000020FFF714FB4FF47A60FEF763F800208F
:103F8000FFF7ABFB2846EDE70020FFF7DDBB0000A5
:103F90000E490880FEE700B581B00020FFF78CFCD9
:103FA00000281ABF002100200121FFF7F8FBC820DC
:103FB000FEF748F806494FF40050086001B05DF87C
:103FC00004EB2820FEF7F5B900E7FFFF4C060020C0
:103FD0001404014000B58FB00020059002200C9021
:103FE00000200D904FF460100E9005A8FEF72EFDF6
:103FF00010B10020FFF7CCFF0F200090022102201B
:104000000190002002904FF4806003900020049003
:104010006846FEF7B9FE10B10120FFF7B9FF0FB0F7
:1040200000BDF0B4016844688368091801EB5402CC
:10403000E40748BF4B440C3091422BD011F8014BA0
:1040400014F0030504BF11F8015BED1C26090F2EC7
:1040500007D111F8016B0F3603E011F8017B03F86B
:10406000017B6D1EF9D1002EE6D0A40811F8015B8A
:1040700004F00304032C08BF11F8014B05EB0424E2
:104080001C1BB51CD8D014F8016B03F8016B6D1E16
:10409000F9D1D1E7F0BC704730B5040087B00D46C8
:1040A0000AD1DFF87C00016841F40021016000685A
:1040B00000F40020009000988DB90FF2700030F8E5
:1040C0001400019001A90020029002200390032017
:1040D0000490DFF8500050F82400FDF7C7FF012DD1
:1040E0001BD10FF2480030F81400019001A9002004
:1040F0000390DFF834000290DFF8280050F8240025
:10410000FDF7B4FF0FF22800245C00220F2160B2FB
:10411000FEF703F960B2FEF729F907B030BD0000E1
:1041200014100240000000200000111000200000C8
:10413000280000001148124A016841F001010160A5
:104140004168114041600F4A0168114001600E4A08
:10415000016821F480210160416821F4FE01416081
:10416000C16A09090901C162016B114001630021A3
:1041700081604FF000600549086070470010024000
:104180000CC07FF8FFFFF6FECCFC00FF08ED00E05E
:1041900000000000000000000102030406070809F7
:1041A00019E050F8041BCB0744BFA9F101035918CB
:1041B000121F0023042A41F8043BF9D25FEA827CF3
:1041C0000B4604D54FF0000CA1F800C09B1CD10792
:1041D00044BF0021197050F8042B002AE1D1704728
:1041E0007047FEE7FEE7FEE7FEE77047704770475F
:1041F000FDF71FBF00B581B04FF48060FEF765F892
:1042000001B05DF804EB4FF40050FEF75EB80148D2
:10421000FEF79CBAB805002010B50749794418315B
:10422000064C7C44163404E00A68081D511888477F
:104230000146A142F8D110BD080000002400000092
:1042400061FFFFFFE4000000700500200000000097
:10425000D3FDFFFF340100008801000000000020B2
:1042600000F00BF8002801D0FFF7D6FF0020C04671
:10427000C046FFF7BBFB00F002F80120704700F0DA
:1042800001B800000746384600F002F8FBE70000DE
:1042900080B5C046C046024A11001820ABBEFBE7FD
:1042A00026000200014880470148004735410008C8
:1042B000B5420008C046C046C046C046FFF7D0FF22
:1042C000FFF7FEBFFFF7FEBFFFF7FEBFFFF7FEBF22
:1042D000FFF7FEBFFFF7FEBFFFF7FEBFFFF7FEBF12
:1042E000FFF7FEBFFFF7FEBFFFF7FEBFFFF7FEBF02
:1042F000FFF7FEBFFFF7FEBFFFF7FEBFFFF7FEBFF2
:10430000FFF7FEBFFFF7FEBFFFF7FEBFFFF7FEBFE1
:10431000FFF7FEBFFFF7FEBFFFF7FEBFFFF7FEBFD1
:10432000FFF7FEBFFFF7FEBFFFF7FEBFFFF7FEBFC1
:10433000FFF7FEBFFFF7FEBFFFF7FEBFFFF7FEBFB1
:10434000FFF7FEBFFFF7FEBFFFF7FEBFFFF7FEBFA1
:10435000FFF7FEBFFFF7FEBFFFF7FEBFFFF7FEBF91
:10436000FFF7FEBFFFF7FEBFFFF7FEBFFFF7FEBF81
:10437000FFF7FEBFFFF7FEBFFFF7FEBFFFF7FEBF71
:10438000FFF7FEBFFFF7FEBF1007000800488F01D0
:104390000008BF0412C70412CF041200011007A7BF
:1043A00012000889020008910412990412A1041253
:1043B000B50412BB0412C30412CB0412DB04401078
:1043C0004D03000825050008F90600089B0A0008AF
:1043D000BD0B401003390E0008FF0410031D0F0031
:1043E000086F04127904128D0412D3041315110CF2
:1043F00012173C110812E97052ED74F10701100315
:10440000111000083B3843CD0828D2D730F309B348
:104410000D40F301D3021CF206F170123390123BEF
:104420000412A57092ED3812E30C12AB04120104D1
:1044300012B11CF202F9548301101422034815181A
:0C444000120D08534503180001127A0009
:04000005080042B5F8
:00000001FF
